:100000002EC100005DC100005BC1000059C10000AD
:1000100057C1000055C1000053C1000051C100008C
:100020004FC100004DC100004BC1000049C100009C
:1000300047C100000C940F1343C1000041C10000F0
:100040003FC1000036C500003BC1000039C10000BF
:1000500037C1000035C1000033C1000059C40000A1
:100060002FC100000C94BA090C94910929C1000019
:1000700027C1000025C1000023C1000021C10000EC
:10008000EBC400001DC100001BC1000019C100002D
:1000900017C1000015C1000013C1000011C100000C
:1000A0000FC100000DC10000AAC4000009C100007A
:1000B00007C1000005C1000003C1000073C40000B7
:1000C000FFC00000FDC00000FBC000000C945B09F5
:1000D0000C943209F5C00000F3C00000F1C000002C
:1000E000EFC00000EC01EF01DE01E201E8012602B1
:1000F000F301F701FD01010205020B020F021302D9
:10010000260219021D02210285038A038F03990327
:10011000A3031C04AD03B503BD03C703D103DB0375
:10012000EA03F4031C04FE030804120455068607C0
:10013000B9066107FA07DC07C407000020002300A6
:10014000260029002C002F003200000100000301CE
:100150000601090100000A0B02090C0D0E08070335
:10016000040100000000000000000000000000008A
:10017000000000000000000000000000000000007F
:10018000121110000000000000000000000000003C
:100190000000000000000000000000002200250018
:1001A00028002B002E003100340002010000050160
:1001B00008010B010200002100240027002A002D65
:1001C000003000330001010000040107010A0101B1
:1001D0000210202008081020401020408002010258
:1001E0000108040201010204081020408080402020
:1001F000100804020180040201804020100804025B
:1002000001080402010102040810204080010204D8
:1002100008102040800505050507050808080802A4
:100220000202020A0A08080404040401010101018F
:100230000101010303030303030303040707070C7E
:100240000C0C0C0C0C0C0C02020202060606060634
:100250000606060B0B0B0B0B0B0B0B000B181124DC
:100260001FBECFEFD1E2DEBFCDBF00E00CBF15E077
:10027000A0E0B2E0E0EFFAE300E00BBF02C00790BD
:100280000D92A634B107D9F727E0A6E4B5E001C086
:100290001D92A83DB207E1F711E0CFE2D1E000E006
:1002A00006C021970109802FFE010E94501BCE320B
:1002B000D10780E00807A9F70E94F3130C94761D7C
:1002C0009FCEFC01538D448D252F30E0842F90E08C
:1002D000821B930B541710F0CF9608950197089541
:1002E000FC01918D828D981761F0828DDF01A80F3E
:1002F000B11D5D968C91928D9F5F9F73928F90E060
:1003000008958FEF9FEF0895FC01918D828D9817CE
:1003100031F0828DE80FF11D858D90E008958FEF0B
:100320009FEF0895FC01918D228D892F90E0805CD4
:100330009F4F821B91098F739927089580E090E069
:10034000892B19F019D7811120C080E090E0892B0A
:1003500041F080E090E0892B21F00E9400008111A3
:1003600017C080E090E0892B19F0FDD6811113C0F1
:1003700080E090E0892BA1F080E090E0892B81F073
:100380000E94000081110AC008950E940000DDCF84
:100390000E940000E6CF0E940000EACF0C9400000B
:1003A000089590E0FC013197E231F10508F04EC06C
:1003B0008827EE58FF4F8F4F0C94501B8091800080
:1003C0008F7703C0809180008F7D80938000089597
:1003D00080918000877FF9CF84B58F7702C084B584
:1003E0008F7D84BD08958091B0008F7703C0809188
:1003F000B0008F7D8093B0000895809190008F773A
:1004000007C0809190008F7D03C080919000877F0E
:100410008093900008958091A0008F7707C080910D
:10042000A0008F7D03C08091A000877F8093A000F3
:100430000895809120018F7707C0809120018F7DE2
:1004400003C080912001877F8093200108953FB7EA
:10045000F8948091E0059091E105A091E205B091BA
:10046000E30526B5A89B05C02F3F19F00196A11DF5
:10047000B11D3FBFBA2FA92F982F8827820F911D3A
:10048000A11DB11DBC01CD0142E0660F771F881F81
:10049000991F4A95D1F70895FC01848DDF01A80FBB
:1004A000B11DA35ABF4F2C91848D90E001968F739C
:1004B0009927848FA689B7892C93A089B1898C91BB
:1004C000837080648C93938D848D981306C002880A
:1004D000F389E02D80818F7D80830895CF93DF9312
:1004E000282F30E0F901EC5AFE4F8491F901E153D5
:1004F000FE4FD491F901EB5EFD4FC491CC2389F0FE
:1005000081114FDFEC2FF0E0EE0FFF1FE65CFE4F96
:10051000A591B491EC91ED2381E090E021F480E08D
:1005200002C080E090E0DF91CF9108951F93CF93B8
:10053000DF93282F30E0F901EC5AFE4F8491F90146
:10054000E153FE4FD491F901EB5EFD4FC491CC23F2
:10055000B9F0162F811125DFEC2FF0E0EE0FFF1F11
:10056000E656FE4FA591B4919FB7F894111104C0BF
:100570008C91D095D82302C0EC91DE2BDC939FBFE9
:10058000DF91CF911F910895CF93DF93DB01EA01B3
:10059000FC01E952FA4F208127FF04C011961C92FA
:1005A0001E920DC040815CE0589F9001599F300D14
:1005B0001124240F311D47FD3A9537FD20812081FC
:1005C0002F5F20834CE0489F9001499F300D1124FC
:1005D0008081A901480F511D87FD5A9557FF1EC004
:1005E00080818C30DCF44D915C918081B901680F81
:1005F000711D87FD7A95CB01DB01AA0FBB1F8A0F06
:100600009B1FDC01A95BBA4F11968D919C911297AB
:10061000840F951F99838883808111C08D919C914F
:100620001197049680349C4918F480E49CE903C037
:100630008D919C910496998388838FEF8083DF91BD
:10064000CF910895CF93DF9390E0FC01E153FE4FEB
:100650002491FC01EB5EFD4F8491882361F190E0D1
:10066000880F991FFC01EB54FE4FC591D491FC01FA
:10067000E656FE4FA591B491611109C09FB7F89459
:100680008881209582238883EC912E230BC06230D1
:1006900061F49FB7F8948881322F30958323888343
:1006A000EC912E2B2C939FBF06C08FB7F894E88156
:1006B0002E2B28838FBFDF91CF9108951F93CF9367
:1006C000DF93182FEB0161E0BDDF209711F460E0AC
:1006D00004C0CF3FD10531F461E0812FDF91CF918C
:1006E0001F9124CFE12FF0E0EC5AFE4FE4918E2FC2
:1006F00090E0FC013197E231F10508F09DC08827B8
:10070000EC57FF4F8F4F0C94501B84B5806884BD0D
:10071000C7BD97C084B5806284BDC8BD92C08091BA
:100720008000806880938000D0938900C093880007
:1007300088C080918000806280938000D0938B007D
:10074000C0938A007EC08091800088608093800082
:10075000D0938D00C0938C0074C08091B0008068ED
:100760008093B000C093B3006CC08091B0008062F1
:100770008093B000C093B40064C080919000806802
:1007800080939000D0939900C09398005AC08091B4
:100790009000806280939000D0939B00C0939A0059
:1007A00050C080919000886080939000D0939D000D
:1007B000C0939C0046C08091A00080688093A000F8
:1007C0008091A0008F7B8093A000D093A900C0935C
:1007D000A80037C08091A00080628093A000D093D1
:1007E000AB00C093AA002DC08091A00088608093C8
:1007F000A000D093AD00C093AC0023C08091200135
:10080000806880932001D0932901C093280119C0EA
:1008100080912001806280932001D0932B01C093AE
:100820002A010FC080912001886080932001D0931D
:100830002D01C0932C0105C0C038D1050CF04CCF60
:1008400046CFDF91CF911F910895863308F08653EC
:1008500090917B00282F2870977F922B90937B009C
:100860008770806480937C0080917A00806480939C
:100870007A0080917A0086FDFCCF809178002091EB
:10088000790090E0922B08958F929F92AF92BF9241
:10089000CF92DF92EF92FF926B017C01D8DD4B018A
:1008A0005C01C114D104E104F104E9F0D0DDDC0104
:1008B000CB0188199909AA09BB09883E9340A10573
:1008C000B10578F321E0C21AD108E108F10888EEF9
:1008D000880E83E0981EA11CB11CC114D104E10450
:1008E000F10421F7DECFFF90EF90DF90CF90BF9023
:1008F000AF909F908F9008952FB7F8946091DC058A
:100900007091DD058091DE059091DF052FBF089580
:100910001F920F920FB60F9211242F933F938F9334
:100920009F93AF93BF938091DC059091DD05A091DB
:10093000DE05B091DF053091DB0523E0230F2D3775
:1009400020F40196A11DB11D05C026E8230F0296D3
:10095000A11DB11D2093DB058093DC059093DD057F
:10096000A093DE05B093DF058091E0059091E1054D
:10097000A091E205B091E3050196A11DB11D809300
:10098000E0059093E105A093E205B093E305BF91E4
:10099000AF919F918F913F912F910F900FBE0F902C
:1009A0001F9018951F920F920FB60F9211240BB63D
:1009B0000F922F933F934F935F936F937F938F93F8
:1009C0009F93AF93BF93EF93FF9348E251E064E2AC
:1009D00071E080E090E0D8DDFF91EF91BF91AF91A1
:1009E0009F918F917F916F915F914F913F912F9147
:1009F0000F900BBE0F900FBE0F901F9018951F9277
:100A00000F920FB60F9211240BB60F922F933F93B4
:100A10004F935F936F937F938F939F93AF93BF9306
:100A2000EF93FF9348EA50E064EA70E083E090E0DF
:100A3000ABDDFF91EF91BF91AF919F918F917F912E
:100A40006F915F914F913F912F910F900BBE0F903F
:100A50000FBE0F901F9018951F920F920FB60F9216
:100A600011240BB60F922F933F934F935F936F9385
:100A70007F938F939F93AF93BF93EF93FF9348E937
:100A800050E064E970E082E090E07EDDFF91EF915C
:100A9000BF91AF919F918F917F916F915F914F9196
:100AA0003F912F910F900BBE0F900FBE0F901F9094
:100AB00018951F920F920FB60F9211240BB60F923A
:100AC0002F933F934F935F936F937F938F939F9356
:100AD000AF93BF93EF93FF9348E850E064E870E072
:100AE00081E090E051DDFF91EF91BF91AF919F9137
:100AF0008F917F916F915F914F913F912F910F90C7
:100B00000BBE0F900FBE0F901F9018958091460559
:100B10008F3F59F060910B0270E087E0CFDD60E01D
:100B200086E004DD8FEF80934605089580914605A9
:100B3000813059F060E087E0F9DC60910B0270E0F1
:100B400086E0BCDD81E080934605089580914605EE
:100B5000882341F060E087E0E9DC60E086E0E6DCE5
:100B6000109246050895809114068F3F59F06091C8
:100B70000B0270E082E0A2DD60E083E0D7DC8FEF63
:100B800080931406089580911406882341F060E054
:100B900082E0CCDC60E083E0C9DC109214060895AA
:100BA000809115068F3F51F06FEF70E084E086DD95
:100BB00060E085E0BBDC8FEF80931506089580919F
:100BC0001506882341F060E084E0B0DC60E085E059
:100BD000ADDC1092150608950F931F93CF93DF930A
:100BE000EC018B015CD760E872E0CE010E94B2128A
:100BF000B801CE0194D76EE172E0CE010E94B2122C
:100C00006091E8057091E905CE0189D761E272E053
:100C1000CE010E94B2126091E6057091E705CE0107
:100C20007ED764E272E0CE010E94B2126091E405C8
:100C30007091E505CE0173D767E272E0CE010E94A4
:100C4000B212CE01DF91CF911F910F910895CF92F3
:100C5000DF92EF92FF920F931F93CF93DF938091D8
:100C6000EA05811104C0D091EB05D11102C0D091E9
:100C7000FA058091EC05811104C0C091ED05C11108
:100C800002C0C091FA058AE292E00E94461080916B
:100C9000C60790E08730910508F037C2FC0188272D
:100CA000EA56FF4F8F4F0C94501B87E392E00E944F
:100CB000900F8091CD07823009F027C28091CE0736
:100CC0009091CB078823B9F0983070F52091CC072C
:100CD000283050F587E0E82FE91BF0E0E656F84FA2
:100CE000821B282F81E090E001C0880F2A95EAF747
:100CF000968D892B17C09830B8F42091CC072830F6
:100D000098F487E0E82FE91BF0E0E656F84F821BE5
:100D1000282F81E090E001C0880F2A95EAF780959E
:100D2000968D8923868F2FD6E7DDC090CF07D09090
:100D3000D007E090D107F090D207DC01CB018C19ED
:100D40009D09AE09BF09853F9140A105B10508F491
:100D5000DCC19091CE0781E089278093CE07CCDD5E
:100D60006093CF077093D0078093D1079093D207F9
:100D7000CCC181E492E00E94900F89E492E00E944D
:100D800046108091AE07813021F0833009F473C0A2
:100D9000B9C081E492E00E94900F33D420919A0769
:100DA00030919B0740919C0750919D07A7E0B0E0D0
:100DB0000E94D21A32EFC32E32E1D32EE12CF12C55
:100DC000A70196010E94B61AD22F283020F5209153
:100DD0009E0730919F074091A0075091A107A7E07F
:100DE000B0E00E94D21AA70196010E94B61A2830DC
:100DF00090F487E0E82FED1BF0E0E656F84F821BF9
:100E0000282F81E090E001C0880F2A95EAF7968D9F
:100E1000892B868FB8D5CC2309F474C083E009D31D
:100E200020919A0730919B0740919C0750919D0714
:100E3000A7E0B0E00E94D21A22EFC22E22E1D22E09
:100E4000E12CF12CA70196010E94B61A2093CB0742
:100E500020919E0730919F074091A0075091A107D4
:100E6000A7E0B0E00E94D21AA70196010E94B61A2C
:100E70002093CC0747C08BE592E00E94900FC1D32E
:100E8000882309F43FC08091B20728DBEC018AE691
:100E900092E00E94461081E090E0CD2B11F080E0BE
:100EA00090E027D38091B20719DB892B29F483E0E6
:100EB0008093C60781E025C081E08093C60782E069
:100EC00020C082E892E00E94900F9BD38091B207ED
:100ED00005DB892B81F084E08093C6078FEF9FEFBD
:100EE000DC018093C7079093C807A093C907B0930C
:100EF000CA0780E09ED2DD2329F086E08093C607F2
:100F000084E097D20DD386ED92E001C185E992E0AD
:100F10000E94900F76D3882309F44CC01092C60724
:100F200088E0E8EBF7E0DF011D928A95E9F78CE3B2
:100F30008093B80782E48093B90785EA8093BA0763
:100F400091E99093BB079093BC078093BD0781E81C
:100F50008093BE078CE78093BF0715D583E080930D
:100F6000CD0787EE92E0DCD76CEE72E08AE196E086
:100F7000C8D71092EE05DF91CF911F910F91FF908E
:100F8000EF90DF90CF90089588EB92E0C9D739D3E6
:100F9000882381F084E08093C6078FEF9FEFDC0108
:100FA0008093C7079093C807A093C907B093CA0757
:100FB00080E03FD2B5D2A9C086EA92E0B1D721D372
:100FC000882309F4A2C01092C60782E08093CD075F
:100FD0008EED92E0A5D71092EE0562EE72E08AE106
:100FE00096E0DF91CF911F910F91FF90EF90DF90EE
:100FF000CF9087C780EC92E093D78091C7079091FC
:10100000C807A091C907B091CA078F3F9F4FAF4F44
:10101000BF4F51F471DC6093C7077093C80780938A
:10102000C9079093CA0755D28091C2078093C3071E
:1010300061E08091C0077ADA83E290E00197F1F7EE
:1010400060E08091C00772DA8091C10790E0FC01F6
:10105000E153FE4F6491FC01EB5EFD4FE491F0E043
:10106000EE0FFF1FE65CFE4F8591949100E117E2C1
:1010700020E030E0462F0E94AE1361157105810516
:10108000910539F0DC01CB010196A11DB11DBF70A6
:1010900003C080E090E0DC01BC01892B11F46FEF0C
:1010A0007FEF81E0643F91E0790708F080E0809372
:1010B000C2078091C307811103C0643F714080F172
:1010C0008091C307882369F08091C207811109C00C
:1010D0008091C407882329F0FCD182E0AAD185E061
:1010E0003BC00ADCC090C707D090C807E090C90792
:1010F000F090CA07DC01CB018C199D09AE09BF092C
:10110000813D9740A105B10500F581ED92E0DF91A9
:10111000CF911F910F91FF90EF90DF90CF9000C77C
:1011200081EF92E0FDD68FEF92E0FAD681E08093D6
:10113000C40760E088E0FAD964E670E080E090E0FF
:10114000A3DB60E088E0F2D9BBCF8091C4078111B6
:10115000DCCF82E06ED181E08093C607D6CF0895C0
:1011600080E090E008958AE196E0DCD821E0892BC8
:1011700009F420E0822F089587EB96E0D3D821E090
:10118000892B09F420E0822F0895EF92FF920F93AC
:101190001F93CF93DF93EC0181E0888F9B8D8C8D23
:1011A000981305C0E889F989808185FD25C0F62E50
:1011B0000B8D10E00F5F1F4F0F731127E02E8C8DEA
:1011C000E8120BC00FB607FCFACFE889F9898081D5
:1011D00085FFF5CFCE0160D9F2CF8B8DFE01E80FF0
:1011E000F11DE35AFF4FF0829FB7F8940B8FEA8905
:1011F000FB89808180620AC09FB7F894EE89FF89DD
:101200006083E889F98980818370806480839FBFCF
:1012100081E090E0DF91CF911F910F91FF90EF90CF
:101220000895CF93DF93EC01888D8823C1F0EA897C
:10123000FB89808185FD05C0A889B9898C9186FDCF
:101240000EC00FB607FCF5CF808185FFF2CFA889CD
:10125000B9898C9185FFEDCFCE011ED9E8CFDF9102
:10126000CF9108951F920F920FB60F9211240BB6D3
:101270000F922F933F934F935F936F937F938F932F
:101280009F93AF93BF93EF93FF938AE196E004D9C6
:10129000FF91EF91BF91AF919F918F917F916F914E
:1012A0005F914F913F912F910F900BBE0F900FBE0A
:1012B0000F901F9018951F920F920FB60F92112446
:1012C0000BB60F922F938F939F93EF93FF93E09121
:1012D0002A06F0912B068081E0913006F0913106CC
:1012E00082FD12C09081809133068F5F8F732091B1
:1012F0003406821751F0E0913306F0E0E65EF94FD4
:10130000958F8093330601C08081FF91EF919F916B
:101310008F912F910F900BBE0F900FBE0F901F90CB
:1013200018951F920F920FB60F9211240BB60F92C1
:101330002F933F934F935F936F937F938F939F93DD
:10134000AF93BF93EF93FF9387EB96E0A5D8FF9100
:10135000EF91BF91AF919F918F917F916F915F912D
:101360004F913F912F910F900BBE0F900FBE0F909A
:101370001F9018951F920F920FB60F9211240BB663
:101380000F922F938F939F93EF93FF93E091C70654
:10139000F091C8068081E091CD06F091CE0682FDE5
:1013A00012C090818091D0068F5F8F732091D106FB
:1013B000821751F0E091D006F0E0E954F94F958F93
:1013C0008093D00601C08081FF91EF919F918F9112
:1013D0002F910F900BBE0F900FBE0F901F9018957E
:1013E000CF92DF92EF92FF92CF93DF936B017C015C
:1013F0006DE287EB96E0C9DEEC0166277727CB012B
:101400006C197D098E099F094AE0FED58C0F9D1F3E
:10141000DF91CF91FF90EF90DF90CF900895BC01C6
:10142000990F880B990B97FDDBCF4AE0EDC50E9421
:10143000591DCF93853018F087E693E046C0909110
:10144000AE072EEF290F233038F42091AF0721117A
:1014500003C088E793E039C08917C9F1813001F1F1
:10146000C82F913071F41092AC071092AD078091A3
:10147000AA07811104C08091AB07882311F00AD616
:1014800009D6C23081F028F4C1111DC01092AE07F8
:101490001EC0C33041F0C430B1F4C093AE0707C0E2
:1014A0008093AE0702C0C093AE071092AF078FEFD4
:1014B0009FEFDC018093A2079093A307A093A4075A
:1014C000B093A50704C086EC93E0CF9129C5CF91D6
:1014D00008958AED93E024D51092C40760E089E076
:1014E00025D864E670E080E090E0CED960E089E045
:1014F0001DC8CF93DF93BC01990F880B990B97FF01
:1015000002C06EDF02C04AE07FD5EC0161E273E009
:1015100087EB96E0F6D48C0F9D1FDF91CF91089555
:10152000CF92DF92EF92FF92CF93DF938DEE93E015
:10153000F7D48DEF93E0AAD5CAE9D7E06C8970E0C3
:1015400080E090E04AE060D58DE094E09FD528816E
:1015500039814A815B81A7E0B0E00E94D21A22EF74
:10156000C22E22E1D22EE12CF12CA70196010E947D
:10157000B61ACA01B9017727882799274AE044D5C6
:101580008CE194E083D52C813D814E815F81A7E081
:10159000B0E00E94D21AA70196010E94B61ACA01B1
:1015A000B9017727882799274AE02ED561E273E0B1
:1015B00087EB96E0A6D48BE294E068D58889082E64
:1015C000000C990B2CDF8EE394E060D58989082EFE
:1015D000000C990B8EDF81E594E058D58A89082E9E
:1015E000000C990B1CDF84E694E050D58B89082E03
:1015F000000C990BDF91CF91FF90EF90DF90CF908F
:1016000078CF4F925F926F927F928F929F92AF921C
:10161000BF92CF92DF92EF92FF92CF93DF9300D0F1
:1016200000D0CDB7DEB78091AE07823009F498C004
:1016300040F4882309F46DC1813009F069C12AD5CD
:1016400068C1833021F0843009F444C061C18091C5
:10165000A2079091A307A091A407B091A5078F3F7F
:101660009F4FAF4FBF4F59F447D96093A207709374
:10167000A3078093A4079093A5071092AF073CD9C6
:10168000C090A207D090A307E090A407F090A50710
:10169000DC01CB018C199D09AE09BF098C3D954039
:1016A000A105B10508F442C027D9C090A207D09087
:1016B000A307E090A407F090A507DC01CB018C19EB
:1016C0009D09AE09BF09883B9B40A105B10508F003
:1016D00045C042C08091A2079091A307A091A407A2
:1016E000B091A5078F3F9F4FAF4FBF4F59F404D91B
:1016F0006093A2077093A3078093A4079093A50714
:101700001092AF07F9D8C090A207D090A307E0903D
:10171000A407F090A507DC01CB018C199D09AE0947
:10172000BF098C329140A105B10510F4FFD9EAC080
:10173000E3D8C090A207D090A307E090A407F09050
:10174000A507DC01CB018C199D09AE09BF098835BD
:101750009240A105B10510F4D9D9D4C0F7D9CFC0B2
:101760008091A2079091A307A091A407B091A5072B
:101770008F3F9F4FAF4FBF4F59F4BED86093A20722
:101780007093A3078093A4079093A5071092AF07C7
:10179000B3D8C090A207D090A307E090A407F09020
:1017A000A5072B013C014C185D086E087F0880904E
:1017B0009A0790909B07A0909C07B0909D0754E6D5
:1017C000850E911CA11CB11C81E08E834814590424
:1017D0006A047B0408F01E828FD8C090A207D090C4
:1017E000A307E090A407F090A5079B01AC012C197A
:1017F0003D094E095F0969017A0180919E07909128
:101800009F07A091A007B091A1079C01AD012C59A1
:101810003F4F4F4F5F4F29833A834B835C8331E0C7
:101820003D8389819A81AB81BC81C816D906EA06BD
:10183000FB0608F01D8287E794E028D460919A07A0
:1018400070919B0780919C0790919D074AE0DCD3A3
:1018500061E273E087EB96E054D38BE894E016D412
:1018600060919E0770919F078091A0079091A107BA
:101870004AE0CAD361E273E087EB96E042D38FE996
:1018800094E004D4AE818A2F90E033DE88EB94E0BC
:10189000FDD3BD818B2F90E02CDE481459046A04DF
:1018A0007B0410F47DD901C08AD929813A814B810A
:1018B0005C81C216D306E406F50610F454D901C0C3
:1018C00062D9481459046A047B04E0F089819A8142
:1018D000AB81BC81C816D906EA06FB0698F01092C7
:1018E0009A0710929B0710929C0710929D071092E6
:1018F0009E0710929F071092A0071092A10781E007
:101900008093AF0781E09091AF07911103C001C0B0
:1019100001C080E026960FB6F894DEBF0FBECDBFA3
:10192000DF91CF91FF90EF90DF90CF90BF90AF907D
:101930009F908F907F906F905F904F9008951F932E
:10194000CF93DF93C82F162F60E08091B6070E94D7
:101950009602CEBD00000DB407FEFDCFCEB5D0E09F
:10196000DC2FCC271EBD00000DB407FEFDCF8EB5C9
:10197000C82B61E08091B6070E949602CE01DF91EC
:10198000CF911F9108950F931F93CF9300EC17E011
:10199000C0E0CF5FF80162918F018C2FD0DFC8309B
:1019A000C1F7CF911F910F910895CF93DF93EC0171
:1019B00061ED74E08BD5882349F08FEF9FEF909312
:1019C00019068093180684ED94E063C067EE74E016
:1019D000CE017CD5882329F01092190610921806A2
:1019E0005BC06AEE74E0CE0171D5882349F08FEFB9
:1019F0009FEF90931706809316068DEE94E049C0F2
:101A00006DEF74E0CE0162D5882329F0109217069D
:101A10001092160641C060E075E0CE0157D58823CC
:101A200049F081E090E0909319068093180683E0D6
:101A300095E02FC067E175E0CE0148D58111CCCF8C
:101A40006AE175E0CE0142D5882349F081E090E05B
:101A500090931706809316068DE195E01AC06CE20C
:101A600075E0CE0133D58111D1CF6FE275E0CE01A3
:101A70002DD5882331F081E08093FA0582E395E04B
:101A800008C06BE375E0CE0121D5882329F08EE3F1
:101A900095E0DF91CF9144C2DF91CF910895FC0191
:101AA00011821082138212821582148240E050E06B
:101AB00063E273E065C50F931F930E947C046093FB
:101AC00022067093230680932406909325068AE1CC
:101AD00096E00E94700197FF1FC00E947C04009155
:101AE0002206109123062091240630912506DC0160
:101AF000CB01801B910BA20BB30B00911E06109122
:101B00001F06209120063091210680179107A20719
:101B1000B307E8F28FEF9FEF1F910F910895EF92B7
:101B2000FF920F931F93CF93DF93CDB7DEB7289724
:101B30000FB6F894DEBF0FBECDBF7C01CB014AE0EB
:101B40008E010F5F1F4FB8010E94E819F801019044
:101B50000020E9F73197AF01401B510BB801C701D5
:101B6000D4D428960FB6F894DEBF0FBECDBFDF9158
:101B7000CF911F910F91FF90EF900895CF93809197
:101B80000402863121F08F3F09F0B9C104C0E4EBB3
:101B9000F1E0C491E6C086E180930402E4EBF1E059
:101BA000E491EF3F09F4ABC1E23009F46FC040F5B6
:101BB000EE2309F44FC0E13009F0D2C0109280004A
:101BC00010928100809181008860809381008091D3
:101BD0008100816080938100EBE2F2E0E491F0E02B
:101BE000EE0FFF1FE656FE4F85919491E5EEF1E072
:101BF000E491E093FE0561E086E10E942203BFC00C
:101C0000E43009F48BC008F467C0E53009F0A8C0DF
:101C1000109220011092210180912101886080930F
:101C2000210180912101816080932101EBE2F2E0AA
:101C3000E491F0E0EE0FFF1FE656FE4F8591949180
:101C4000E5EEF1E0E491E093FB0561E086E10E94BE
:101C50002203C7C014BC15BC84B5826084BD85B5A1
:101C6000816085BDEBE2F2E0E491F0E0EE0FFF1F52
:101C7000E656FE4F85919491E5EEF1E0E491E09314
:101C8000FF0561E086E10E94220322C11092B000AC
:101C90001092B1008091B00082608093B00080917A
:101CA000B10081608093B100EBE2F2E0E491F0E0FA
:101CB000EE0FFF1FE656FE4F859194919093F50528
:101CC0008093F405E5EEF1E0E491E093F30561E043
:101CD00086E10E9422039AC0109290001092910017
:101CE0008091910088608093910080919100816043
:101CF00080939100EBE2F2E0E491F0E0EE0FFF1F41
:101D0000E656FE4F85919491E5EEF1E0E491E09383
:101D1000FD0561E086E10E94220351C01092A000FF
:101D20001092A1008091A10088608093A100809111
:101D3000A10081608093A100EBE2F2E0E491F0E089
:101D4000EE0FFF1FE656FE4F85919491E5EEF1E010
:101D5000E491E093FC0561E086E10E94220338C033
:101D6000CE2FC7FDCCC061E086E10E942203CC23C8
:101D700009F4AEC0C23009F449C0C130F1F4809119
:101D80008100887F83608093810081E49FE090934D
:101D900089008093880080E290E0A0E0B0E080932A
:101DA0000C0690930D06A0930E06B0930F0680913B
:101DB0006F00826080936F00A2C0C33039F48091BD
:101DC0009100887F8360809391003AC0C43039F4D9
:101DD0008091A100887F83608093A10049C0C530B5
:101DE00039F480912101887F83608093210158C05C
:101DF000C33031F12CF4C23009F081C081E40CC051
:101E0000C430B1F1C53009F44BC079C08091B10044
:101E100087608093B10083EF8093B30080E290E00D
:101E2000A0E0B0E08093F6059093F705A093F80545
:101E3000B093F905809170008260809370005FC05C
:101E400081E49FE0909399008093980080E290E075
:101E5000A0E0B0E08093080690930906A0930A06DC
:101E6000B0930B068091710082608093710047C02F
:101E700081E49FE09093A9008093A80080E290E025
:101E8000A0E0B0E08093040690930506A0930606B8
:101E9000B0930706809172008260809372002FC019
:101EA00081E49FE0909329018093280180E290E0F3
:101EB000A0E0B0E08093000690930106A093020694
:101EC000B09303068091730082608093730017C003
:101ED00085B5887F856085BD83EF87BD80E290E012
:101EE000A0E0B0E08093100690931106A093120634
:101EF000B093130680916E00826080936E00CF9144
:101F000008956115710549F0FB0101900020E9F782
:101F10003197AF01461B570B88C280E090E00895CF
:101F2000CF93DF93BC0187EB96E0EBDFEC0161E23E
:101F300073E087EB96E0E5DF8C0F9D1FDF91CF917B
:101F40000895CF92DF92EF92FF92CF93DF93EC014F
:101F50006A017B01E889F98982E080834115514E4D
:101F600061057105B1F060E079E08DE390E0A701D3
:101F700096010E94941ADA01C9010197A109B109D9
:101F8000B695A795979587959C01211580E138070F
:101F9000A8F0E889F989108260E874E88EE190E0A1
:101FA000A70196010E94941ADA01C9010197A109BB
:101FB000B109B695A795979587959C01EC85FD8508
:101FC0003083EE85FF852083188EEC89FD8986E0BD
:101FD0008083EA89FB89808180618083EA89FB892B
:101FE000808188608083EA89FB8980818068808322
:101FF000EA89FB8980818F7D8083DF91CF91FF907B
:10200000EF90DF90CF9008958F929F92AF92BF9202
:102010000F931F93CF93DF93CDB7DEB7A1970FB682
:10202000F894DEBF0FBECDBF19A2423008F44AE0DB
:102030008E010F5D1F4F842E912CA12CB12CA50178
:1020400094010E94941AE62FB901CA0101501109A6
:10205000EA3014F4E05D01C0E95CD801EC93232B75
:10206000242B252B61F7B80187EB96E04ADFA19678
:102070000FB6F894DEBF0FBECDBFDF91CF911F9199
:102080000F91BF90AF909F908F900895BC0187EB08
:1020900096E037CFCF92DF92EF92FF920F931F938C
:1020A0008091AC078093AA078091AD078093AB071E
:1020B0008091180690911906009749F48091B00715
:1020C0000E9425048F3F910509F024F48FEF80933F
:1020D000AC0707C08130934014F081E0F8CF109234
:1020E000AC078091160690911706009771F48091C5
:1020F000B1070E9425048F3F910509F014F48FEF7A
:1021000004C08130934024F081E08093AD0702C089
:102110001092AD078091A2079091A307A091A40708
:10212000B091A5078F3F9F4FAF4FBF4F51F40E9413
:102130007C046093A2077093A3078093A4079093F5
:10214000A5078091AA071816CCF50E947C04C090C0
:102150009A07D0909B07E0909C07F0909D07009114
:10216000A6071091A7072091A8073091A907C01AC8
:10217000D10AE20AF30ADC01CB018C0D9D1DAE1DD4
:10218000BF1D80939A0790939B07A0939C07B093E1
:102190009D07823F9241A105B10508F451C01092FC
:1021A000AC0782EF92E1A0E0B0E080939A079093B1
:1021B0009B07A0939C07B0939D0742C0882309F416
:1021C0003FC0C0909A07D0909B07E0909C07F0908A
:1021D0009D070E947C040091A6071091A7072091FB
:1021E000A8073091A907AB01BC01401B510B620B42
:1021F000730B80919A0790919B07A0919C07B091D7
:102200009D07841B950BA60BB70B80939A079093A1
:102210009B07A0939C07B0939D07C816D906EA06B2
:10222000FB0620F0892B8A2B8B2B51F41092AC07E4
:1022300010929A0710929B0710929C0710929D078C
:102240008091AB071816CCF50E947C04C0909E07C5
:10225000D0909F07E090A007F090A1070091A607FB
:102260001091A7072091A8073091A907C01AD10A99
:10227000E20AF30ADC01CB018C0D9D1DAE1DBF1DD2
:1022800080939E0790939F07A093A007B093A10708
:10229000833F9241A105B10508F44CC01092AD07EF
:1022A00082EF92E1A0E0B0E080939E0790939F07B9
:1022B000A093A007B093A1073DC08823D9F1C09097
:1022C0009E07D0909F07E090A007F090A1070E9482
:1022D0007C040091A6071091A7072091A8073091D0
:1022E000A907AB01BC01401B510B620B730B809122
:1022F0009E0790919F07A091A007B091A107841B12
:10230000950BA60BB70B80939E0790939F07A09306
:10231000A007B093A107C816D906EA06FB0650F439
:102320001092AD0710929E0710929F071092A0077F
:102330001092A1078091AC0787FF0FC080919A0788
:1023400090919B07A0919C07B0919D07892B8A2BA8
:102350008B2B19F10E94D00522C08823F1F08091C7
:102360009A0790919B07A0919C07B0919D07823F8F
:102370009241A105B10589F080911506813079F06F
:1023800060E084E00E9496026FEF70E085E00E94BA
:102390005E0381E08093150602C00E94DF058091F4
:1023A000AD0787FF0FC080919E0790919F07A09176
:1023B000A007B091A107892B8A2B8B2B19F10E94C2
:1023C000B30522C08823F1F080919E0790919F076A
:1023D000A091A007B091A107823F9241A105B1054C
:1023E00089F080911406813079F060E082E00E94EB
:1023F00096026FEF70E083E00E945E0381E08093BD
:10240000140602C00E94C3050E947C046093A607C4
:102410007093A7078093A8079093A9071F910F9126
:10242000FF90EF90DF90CF900895CF92DF92EF92E0
:10243000FF920F931F93CF93DF936C017A018B016F
:10244000C0E0D0E0CE15DF0581F0D8016D918D019F
:10245000D601ED91FC910190F081E02DC601199516
:10246000892B11F02196EECF7E01C701DF91CF912C
:102470001F910F91FF90EF90DF90CF9008950F93F1
:102480001F93CF93DF93EC0188819981009729F006
:102490002A813B812617370788F48B016F5F7F4FB6
:1024A0000E94791C009761F0998388831B830A83BB
:1024B0002C813D81232B11F4FC01108281E001C0AD
:1024C00080E0DF91CF911F910F910895FC0124814D
:1024D0003581232B31F421E061157105A1F0FB0159
:1024E00008C0FC01808191816115710531F421E002
:1024F000FC018081882339F005C00E94661D21E01F
:10250000892B09F020E0822F0895EF92FF920F931C
:102510001F93CF93DF936115710511F480E01BC009
:1025200041155105B9F07B01EC018C819D818A0137
:10253000080F191FB801CE01A2DF882379F3288183
:1025400039818C819D81B701820F931F0E946F1D7D
:102550001D830C8381E0DF91CF911F910F91FF903C
:10256000EF9008956115710549F0FB01019000207D
:10257000E9F73197AF01461B570BC7CF80E00895AD
:10258000EF92FF920F931F93CF93DF93EC017B01A8
:102590008A01BA0174DF2881398181110DC02115AA
:1025A000310519F0C9010E94F01B198218821D82A1
:1025B0001C821B821A8206C01D830C83B701C901CD
:1025C0000E946F1DCE01DF91CF911F910F91FF905F
:1025D000EF900895CF93DF93EC01FB0186179707E7
:1025E000A9F0608171816115710521F044815581E7
:1025F000C7DF0CC088819981009711F00E94F01B01
:10260000198218821D821C821B821A82CE01DF91E0
:10261000CF910895FC01808191810C94F01B1F9251
:102620000F920FB60F9211240BB60F922F933F9378
:102630004F935F936F937F938F939F93AF93BF93CA
:10264000EF93FF938091F6059091F705A091F8051F
:10265000B091F905892B8A2B8B2B59F19091F305B9
:10266000E091F405F091F5058081892780838091C0
:10267000F6059091F705A091F805B091F9051816A7
:1026800019061A061B060CF056C08091F6059091AB
:10269000F705A091F805B091F9050197A109B109D5
:1026A0008093F6059093F705A093F805B093F9058C
:1026B00042C080910402E4EBF1E0E4919FEF90933B
:1026C0000402E230C9F050F4EE2399F0E13081F5D4
:1026D00090916F009D7F90936F002AC0E43019F1B4
:1026E000E0F0E53029F5909173009D7F90937300A1
:1026F0001FC010926E001CC0909170009D7F90933F
:10270000700091E09093B0009091B100987F946038
:102710009093B1001092B3000BC0909171009D7F17
:102720009093710005C0909172009D7F909372000C
:1027300060E00E949602FF91EF91BF91AF919F914F
:102740008F917F916F915F914F913F912F910F905A
:102750000BBE0F900FBE0F901F901895CF92DF9277
:10276000EF92FF920F931F93E82FF92F05C00150AE
:1027700011092109310961F1908196239417B9F368
:1027800005C0015011092109310911F190819623E9
:102790009413F7CFC12CD12CE12CF12C0AC08FEF70
:1027A000C81AD80AE80AF80A0C151D052E053F05B7
:1027B00079F080818623841791F36C2D7D2D8E2DE9
:1027C0009F2D1F910F91FF90EF90DF90CF90089574
:1027D00060E070E080E090E01F910F91FF90EF903B
:1027E000DF90CF900895CF93DF93CDB7DEB7C45776
:1027F000D1090FB6F894DEBF0FBECDBF789484B573
:10280000826084BD84B5816084BD85B5826085BDEC
:1028100085B5816085BD80916E00816080936E007A
:10282000109281008091810082608093810080916C
:10283000810081608093810080918000816080931D
:1028400080008091B10084608093B1008091B000DD
:1028500081608093B00080919100826080939100AC
:1028600080919100816080939100809190008160BF
:10287000809390008091A10082608093A10080915C
:10288000A10081608093A1008091A000816080936D
:10289000A00080912101826080932101809121011B
:1028A00081608093210180912001816080932001CB
:1028B00080917A00846080937A0080917A008260AF
:1028C00080937A0080917A00816080937A00809171
:1028D0007A00806880937A001092C1001092960767
:1028E0001092970710929807109299071092560726
:1028F0001092570710925807109259070E947C04B3
:102900006B017C014B015C0128EB820E2BE0921ED7
:10291000A11CB11C0E947C046C157D058E059F05D1
:1029200028F086169706A806B906A0F760ED77E0AE
:1029300080E090E00E94440440E855E260E070E0EE
:1029400087EB96E0FEDA0E947C0460935607709352
:102950005707809358079093590782E193E096DBDD
:102960000E947C046B017C014B015C013AE0830E08
:10297000911CA11CB11C0E947C046C157D058E0568
:102980009F0528F086169706A806B906A0F781E0ED
:1029900080936A0740E855E260E070E087EB96E0DC
:1029A000D0DA84E293E0BCDA40E056E960E070E01F
:1029B0008AE196E0C6DA60E080E20E94220360E0ED
:1029C00081E20E94220360E082E20E94220362E030
:1029D00087E10E94220362E088E10E9422038E01C7
:1029E0000F5F1F4F7E0141E6E40EF11C0E947C0444
:1029F000672B682B692B41F40E947C0462307105BF
:102A00008105910508F4D9C00E947C048090EF05EF
:102A10009090F005A090F105B090F2056815790549
:102A20008A059B0540F46093EF057093F005809351
:102A3000F1059093F2058090EF059090F005A0903D
:102A4000F105B090F2059B01AC01281939094A093A
:102A50005B0949015A013AEF83169104A104B104BC
:102A600008F4ABC06093EF057093F0058093F10517
:102A70009093F20584EF91E0A0E0B0E080936207CC
:102A800090936307A0936407B0936507109266075D
:102A900010926707109268071092690780915A0791
:102AA00090915B07A0915C07B0915D0780935E07F2
:102AB00090935F07A0936007B09361070E947C0426
:102AC00060935A0770935B0780935C0790935D0750
:102AD0000E947C04609356077093570780935807B1
:102AE000909359070E947C044B015C0189E293E0BA
:102AF000CDDA4AE061E070E080E090E085DA80E3E2
:102B000093E0C4DA4AE0C501B4017EDA82E393E0DF
:102B1000BDDA80915A0790915B07A0915C07B09154
:102B20005D07A5019401281B390B4A0B5B0BCA01F9
:102B3000B9014AE069DA82E393E0A8DA80915A07A2
:102B400090915B07A0915C07B0915D0780905E0754
:102B500090905F07A0906007B0906107BC01CD0125
:102B6000681979098A099B094AE04EDA84E393E0FF
:102B70008DDA0E947C044AE047DA86E393E0D0D9FC
:102B80000E947C044B015C012B013C0135E0430EAB
:102B9000511C611C711C0E947C04681579058A0512
:102BA0009B0508F031C20E947C0460935A07709321
:102BB0005B0780935C0790935D078091EE05882307
:102BC00021F0813009F4FFC01CC280900002909077
:102BD0000102A0900202B090030220E030E040E841
:102BE0005FE3C501B40127D487FFAAC080E20E9439
:102BF0006E02892B89F520E030E040E85FE3C501F3
:102C0000B401EAD46093000270930102809302023F
:102C1000909303028091E8059091E90501969093C5
:102C2000E9058093E80561E070E0C8010E94EC05C9
:102C300069817A818AE196E064D9C801EBDC61E0C0
:102C400070E0C8010E94EC0589819A8169D9C801A8
:102C5000E1DC8DE393E035C082E20E946E02892BB5
:102C6000C1F520E030E040E85EE3C501B401B4D432
:102C7000609300027093010280930202909303021A
:102C80008091E4059091E50501969093E505809388
:102C9000E40563E070E0C8010E94EC0569817A8177
:102CA0008AE196E02ED9C801B5DC63E070E0C80186
:102CB0000E94EC0589819A8133D9C801ABDC84E498
:102CC00093E02ED968EC70E080E090E00E9444042C
:102CD00077C081E20E946E02892B09F071C020E06A
:102CE00030E040E05FE3C501B40176D460930002B8
:102CF0007093010280930202909303028091E60593
:102D00009091E70501969093E7058093E60562E0D0
:102D100070E0C8010E94EC0569817A818AE196E041
:102D2000F0D8C80177DC62E070E0C8010E94EC05D1
:102D300089819A81F5D8C8016DDC8BE493E0C1CF1D
:102D400081E08093EE051092000210920102109231
:102D50000202109203021092E9051092E805109207
:102D6000E7051092E6051092E5051092E40582E56C
:102D700093E0D6D86DE573E08AE196E0C2D864E6C8
:102D800070E080E090E00E9444048091C6078111C9
:102D900017C081E00E94190A82E08093C60788E08C
:102DA000E8EBF7E0DF011D928A95E9F70E94BE0D7E
:102DB00064E670E080E090E00E9444040E94BE0D52
:102DC0000E9427061EC18091ED058093EC0580913D
:102DD000EB058093EA0587E10E946E0221E0892BD2
:102DE00009F020E02093ED0588E10E946E0221E0C9
:102DF000892B09F020E02093EB058AE196E00E9400
:102E0000920118161906E4F6CE0183599F4F0E94CD
:102E10004F0D0E945B0D97FD0AC089831A8241E025
:102E200050E0B801CE0183599F4F6FDBF2CFE3969C
:102E30008EAD9FADE397029789F41A8219821C82A6
:102E40001B821E821D82BE0163597F4FC801C2DBF7
:102E5000C8010E94D50CC801DDDBCEC0A9961FAE0B
:102E60001EAEA997AB961FAE1EAEAB97AD961FAE2A
:102E70001EAEAD97BE0163597F4FCE0189599F4F5A
:102E8000A9DBC8010E944F0DCE0107960E944F0D8D
:102E9000CE010D960E944F0DCE0143960E944F0D1C
:102EA000CE0149960E944F0DCE014F960E944F0DC4
:102EB000CE0185960E944F0DCE018B960E944F0D3C
:102EC000CE01C1960E944F0DCE01C7960E944F0DB4
:102ED000CE01CD960E944F0DCE018D5B9F4F0E947B
:102EE0004F0DCE01875B9F4F0E944F0DCE01815B3E
:102EF0009F4F0E944F0DCE018B5A9F4F0E944F0D46
:102F0000CE01855A9F4F0E944F0DC7010E944F0D61
:102F1000C12CD12C912CA12CB12C96E0892EAD96F0
:102F20008EAD9FADAD97C816D906A8F5A9968EAD02
:102F30009FADA997009729F0FC01EC0DFD1D808144
:102F400001C080E0E4968FAFE497E5961FAEE59769
:102F500041E050E0BE016D587F4FC701D6DAAA9418
:102F6000AB2891F494013203C0011124B701800F02
:102F7000911F30DB40E050E063E273E0C70100DB0B
:102F80009394A12CB12C03C0AA24A394B12C4FEF8D
:102F9000C41AD40AC4CFC7013DDBCE0189599F4F63
:102FA00039DB6801CE14DF04F1F063E273E0C6019F
:102FB0008DDA811114C0D70111961C921E921396BE
:102FC0001C921E92129715961C921E921497B6018F
:102FD000C70100DBC7010E94D50CC7011BDBB6E0AF
:102FE000CB0ED11CDFCF6701E6E0CE1AD108C601B7
:102FF00011DB0C151D05C1F7CE0183599F4F0ADB6C
:10300000DFCE0E949E01F2CC46165706680679066E
:1030100008F0C1CDC8CDCF9310921D0610921C06AA
:1030200048EE53E060E070E040931E0650931F06A8
:10303000609320067093210680E192E090931B0636
:1030400080931A0625ED30E030932706209326065C
:1030500024ED30E0309329062093280620ED30E05F
:1030600030932B0620932A0621ED30E030932D0675
:1030700020932C0622ED30E030932F0620932E066D
:1030800026ED30E03093310620933006109233065F
:103090001092340610923506109236061092BA0637
:1030A0001092B9064093BB065093BC066093BD06D0
:1030B0007093BE069093B8068093B70685EC90E0B7
:1030C0009093C4068093C30684EC90E09093C60668
:1030D0008093C50680EC90E09093C8068093C70665
:1030E00081EC90E09093CA068093C90682EC90E050
:1030F0009093CC068093CB0686EC90E09093CE061E
:103100008093CD061092D0061092D1061092D2066E
:103110001092D30610925A0710925B0710925C0728
:1031200010925D0710925E0710925F071092600781
:103130001092610710926207109263071092640761
:103140001092650710926607109267071092680741
:103150001092690710929A0710929B0710929C0791
:1031600010929D0710929E0710929F071092A00741
:103170001092A1071092A2071092A3071092A40721
:103180001092A5071092A6071092A7071092A80701
:103190001092A9071092AA071092AB071092AC07E1
:1031A0001092AD071092AE071092AF0787E380939D
:1031B000B00786E38093B1078BE18093B20761E0AB
:1031C00084E00E94220360E084E00E94960261E0B5
:1031D00085E00E94220360E085E00E94960261E0A3
:1031E00082E00E94220360E082E00E94960261E099
:1031F00083E00E94220360E083E00E94960261E087
:1032000087E00E94220360E087E00E94960261E06E
:1032100086E00E94220360E086E00E9496020E94FF
:103220007C046093A2077093A3078093A4079093F4
:10323000A50760E08091B2070E9422031092B407B4
:103240001092B3071092B50785E390E09093B7070B
:103250008093B60761E00E94220361E083E30E944D
:10326000220361E084E30E94220361E08091B607BB
:103270000E949602CFB7F8948091D307811127C09E
:10328000EAE4F2E08491E4E0F2E09491E82FF0E0E7
:10329000EE0FFF1FEB54FE4FA591B491EC91E92383
:1032A00021F461E085E30E94960261E085E30E94DB
:1032B00022038CB580618CBD8CB580648CBD61E0CF
:1032C00084E30E94220361E083E30E942203809151
:1032D000D3078F5F8093D307CFBF80E58CBD81E09C
:1032E0008DBD60E08CE00E949F0C67E08AE00E9448
:1032F0009F0C67E08BE00E949F0C60E089E00E94D9
:103300009F0C60E08FE00E949F0C61E08CE00E94C7
:103310009F0CC1E060E08C2F0E949F0CCF5FC930F2
:10332000C9F7C8E0E8EBF7E0DF018C2F1D928A9522
:10333000E9F78AE18093C00789E18093C10761E0E2
:103340008AE10E94220360E089E10E942203109238
:10335000C2071092C3071092C407C093C50761E06B
:1033600088E00E94220360E088E00E94960261E00B
:1033700089E00E94220360E089E00E94960264E6F0
:1033800070E080E090E00E94440460E089E00E94E8
:1033900096021092C6071092C7071092C8071092A3
:1033A000C9071092CA071092CB071092CC0710924F
:1033B000CD071092CE071092CF071092D00710922F
:1033C000D1071092D20761E086E1CF910C942203DD
:1033D000BB274A3031F4992322F4BDE290958195C0
:1033E0009F4F01C0BB27FB015527AA27880F991FB4
:1033F000AA1FA41710F0A41B83955051B9F7A05D24
:10340000AA3308F0A95DA193009779F7B111B193A0
:103410001192CB0100C0DC01FC01672F7191772371
:10342000E1F7329704C07C916D9370836291AE177F
:10343000BF07C8F3089503D008F481E00895990FF9
:103440000008550FAA0BE0E8FEEF16161706E8076E
:10345000F907C0F012161306E407F50798F0621B8F
:10346000730B840B950B39F40A2661F0232B242B64
:10347000252B21F408950A2609F4A140A6958FEF83
:10348000811D811D089597F99F6780E870E060E0D5
:1034900008959FEF80EC089500240A9416161706ED
:1034A00018060906089500240A9412161306140635
:1034B00005060895092E0394000C11F4882352F098
:1034C000BB0F40F4BF2B11F460FF04C06F5F7F4F50
:1034D0008F4F9F4F089557FD9058440F551F59F037
:1034E0005F3F71F04795880F97FB991F61F09F3FF1
:1034F00079F087950895121613061406551FF2CF1A
:103500004695F1DF08C0161617061806991FF1CF69
:1035100086957105610508940895E894BB27662790
:103520007727CB0197F90895A1E21A2EAA1BBB1B9E
:10353000FD010DC0AA1FBB1FEE1FFF1FA217B3077F
:10354000E407F50720F0A21BB30BE40BF50B661F95
:10355000771F881F991F1A9469F760957095809559
:1035600090959B01AC01BD01CF010895052E97FBFD
:1035700016F400940FD057FD05D0D6DF07FC02D01B
:1035800046F408C050954095309521953F4F4F4FD8
:103590005F4F089590958095709561957F4F8F4FFF
:1035A0009F4F089509D0A59F900DB49F900DA49FA3
:1035B000800D911D11240895A29FB001B39FC001F9
:1035C000A39F700D811D1124911DB29F700D811D4F
:1035D0001124911D08955058BB27AA270ED06ACFF9
:1035E0005BDF30F060DF20F031F49F3F11F41EF418
:1035F00050CF0EF4E095E7FB46CFE92F6CDF80F368
:10360000BA17620773078407950718F071F49EF5DF
:1036100084CF0EF4E0950B2EBA2FA02D0B01B9012B
:1036200090010C01CA01A0011124FF27591B99F038
:10363000593F50F4503E68F11A16F040A22F232F44
:10364000342F4427585FF3CF469537952795A79594
:10365000F0405395C9F77EF41F16BA0B620B730B3B
:10366000840BBAF09150A1F0FF0FBB1F661F771FAC
:10367000881FC2F70EC0BA0F621F731F841F48F461
:10368000879577956795B795F7959E3F08F0B3CFE7
:103690009395880F08F09927EE0F979587950895D1
:1036A000EE0FFF1F881F8BBF0790F691E02D199436
:1036B0000F931F93CF93DF938230910510F482E034
:1036C00090E0E091D607F091D70720E030E0A0E04D
:1036D000B0E0309719F14081518102811381481780
:1036E0005907C8F08417950769F4109731F01296BE
:1036F0000C93129713961C9327C00093D607109330
:10370000D70722C02115310519F04217530718F4C5
:103710009A01BD01EF01DF01F801DBCF2115310571
:10372000F9F0281B390B2430310580F48A819B8104
:103730006115710521F0FB019383828304C090938E
:10374000D7078093D607FE01329644C0FE01E20FF0
:10375000F31F8193919322503109398328833AC012
:103760002091D4073091D507232B41F420910702F3
:10377000309108023093D5072093D4072091050299
:10378000309106022115310541F42DB73EB7409125
:10379000090250910A02241B350BE091D407F091E5
:1037A000D507E217F307A0F42E1B3F0B28173907A4
:1037B00078F0AC014E5F5F4F2417350748F04E0F8D
:1037C0005F1F5093D5074093D4078193919302C014
:1037D000E0E0F0E0CF01DF91CF911F910F910895CC
:1037E000CF93DF93009709F481C0FC0132971382D5
:1037F0001282A091D607B091D707109781F420814B
:103800003181820F931F2091D4073091D50728175B
:10381000390751F5F093D507E093D40767C0ED0160
:1038200020E030E0CE17DF0740F44A815B819E0143
:1038300041155105F1F0EA01F5CFD383C2834081F0
:103840005181840F951FC817D90759F48881998130
:10385000840F951F0296918380838A819B81938335
:1038600082832115310529F4F093D707E093D60719
:103870003DC0E901FB83EA8349915991C40FD51FEB
:10388000EC17FD0761F480819181840F951F0296EA
:10389000E90199838883828193819B838A83E0E015
:1038A000F0E012968D919C911397009719F0FD010D
:1038B000DC01F7CF8D919C9111979D012E5F3F4FB9
:1038C000820F931F2091D4073091D507281739070D
:1038D00069F4309729F41092D7071092D60702C0E6
:1038E00013821282B093D507A093D407DF91CF91B2
:1038F00008956F927F928F929F92AF92BF92CF92D4
:10390000DF92EF92FF920F931F93CF93DF93009775
:1039100081F4CB01DF91CF911F910F91FF90EF9038
:10392000DF90CF90BF90AF909F908F907F906F90DF
:10393000BFCEFC01E60FF71F9C0122503109E217B0
:10394000F30708F4A5C0EC01D9010D911C91119762
:1039500006171707A8F00530110508F497C0C8012D
:1039600004978617970708F491C002501109061BA7
:10397000170B019311936D937C93CF0131DF86C0B8
:103980005B01A01AB10A4C01800E911EA091D607CE
:10399000B091D707612C712CE12CF12C109709F410
:1039A00046C08D919C911197A815B905B1F56C0190
:1039B00042E0C40ED11CCA14DB0478F14C018A1811
:1039C0009B08640142E0C40ED11C1296BC90129771
:1039D0001396AC91B5E0CB16D10440F0B282A3832C
:1039E00091828082D9016D937C9309C00E5F1F4F35
:1039F000800F911FF90191838083EB2DFA2FE11441
:103A0000F10431F0D7011396FC93EE9312973EC068
:103A1000F093D707E093D60739C06816790608F403
:103A20003C017D0112960D90BC91A02DB7CF8091E5
:103A3000D4079091D50788169906E1F466167706A3
:103A4000C8F48091050290910602009741F48DB769
:103A50009EB74091090250910A02841B950BE8170A
:103A6000F907B0F4F093D507E093D407F901718317
:103A700060830CC0CB011CDE7C01009749F0A801DB
:103A8000BE011BD0CE01ACDEC70104C0CE0102C016
:103A900080E090E0DF91CF911F910F91FF90EF9028
:103AA000DF90CF90BF90AF909F908F907F906F905E
:103AB000089581E090E0F89419C0FB01DC0102C098
:103AC00001900D9241505040D8F70895FB01DC0160
:103AD0008D91019080190110D9F3990B0895FB0184
:103AE000DC0101900D920020E1F70895F894FFCFDA
:103AF0000000803FFF0000D8078000FF00000000AA
:103B0000C5081512610111099201700184012C315F
:103B1000002C32002C33002C230067616D6520736C
:103B2000746174653A200047414D455F4F564552D8
:103B300000504C4159494E470020202020637261BB
:103B40006E652073746174653A20004341544348A4
:103B5000494E47205052495A45002A2A2A2A2A2AE1
:103B60002A2A2A2A2A2A484153205052495A453A99
:103B70002000504C4159494E475F574954485F50C7
:103B800052494345004C4F5345525F5245545249A8
:103B90004556494E470057494E4E45525F5245548F
:103BA00052494556494E470044524F50494E4700EE
:103BB000574149545F464F525F5052495A453A2047
:103BC000006E6F6E6500706C6179696E6700776F6B
:103BD0006E0030303023004C6F737400313131236C
:103BE000004F70656E696E6720736C696465005381
:103BF0004520414252494F204C4120505545525496
:103C00004100564D4450565F317C315F564D445013
:103C1000560D0A00484F4C4100564D4450455F0038
:103C20003A323A007C005F564D44504500512E31E7
:103C30002E303000512E302E323500512E302E35A0
:103C4000300053746172742067616D6500373737D7
:103C50003737373737230045737461646F206E6FD1
:103C60002076616C69646F004E6F207365207075FB
:103C70006564652064652063616D626961722064BA
:103C8000652065737461646F206D69656E7472611F
:103C900073206573746120636F727269656E646FFF
:103CA00020756E2065737461646F206175746F6D2B
:103CB000617469636F002121212073746174652030
:103CC0006E6F2076616C69646F00534520434552E6
:103CD000524F204C41205055455254410020202045
:103CE000204372616E6520646174613A0020202077
:103CF000202020202073746174653A200020202049
:103D0000202020202078706F733A2000202020206F
:103D10002020202079706F733A200020202020205E
:103D2000202020784C61737456656C3A2000202066
:103D3000202020202020794C61737456656C3A2035
:103D400000202020202020202078437572725665A4
:103D50006C3A2000202020202020202079437572FA
:103D60007256656C3A200020202020202020202040
:103D70002020207854696D653A20002020202020E2
:103D8000202020202020207954696D653A200020D1
:103D90002020202020202073686F756C6452657489
:103DA00072697665583A20002020202020202020AB
:103DB00073686F756C6452657472697665593A20E0
:103DC000006131004D6F76696E6720746F207468F2
:103DD00065206C656674006130007331004D6F764C
:103DE000696E67206261636B776172640073300093
:103DF0006431004D6F76696E6720746F207468655A
:103E0000207269677468006430007731004D6F7606
:103E1000696E6720666F7277617264007730006345
:103E200061004361746368696E6700647200447284
:063E30006F70696E67006F
:020000023000CC
:10E000000D9489F10D94B2F10D94B2F10D94B2F129
:10E010000D94B2F10D94B2F10D94B2F10D94B2F1F0
:10E020000D94B2F10D94B2F10D94B2F10D94B2F1E0
:10E030000D94B2F10D94B2F10D94B2F10D94B2F1D0
:10E040000D94B2F10D94B2F10D94B2F10D94B2F1C0
:10E050000D94B2F10D94B2F10D94B2F10D94B2F1B0
:10E060000D94B2F10D94B2F10D94B2F10D94B2F1A0
:10E070000D94B2F10D94B2F10D94B2F10D94B2F190
:10E080000D94B2F10D94B2F10D94B2F10D94B2F180
:10E090000D94B2F10D94B2F10D94B2F10D94B2F170
:10E0A0000D94B2F10D94B2F10D94B2F10D94B2F160
:10E0B0000D94B2F10D94B2F10D94B2F10D94B2F150
:10E0C0000D94B2F10D94B2F10D94B2F10D94B2F140
:10E0D0000D94B2F10D94B2F10D94B2F10D94B2F130
:10E0E0000D94B2F141546D656761323536300041AF
:10E0F000726475696E6F206578706C6F72657220DE
:10E1000073746B3530305632206279204D4C530099
:10E11000426F6F746C6F616465723E004875683F52
:10E1200000436F6D70696C6564206F6E203D200048
:10E130004350552054797065202020203D20005FF9
:10E140005F4156525F415243485F5F3D2000415658
:10E1500052204C696243205665723D20004743437C
:10E160002056657273696F6E203D20004350552024
:10E1700049442020202020203D20004C6F7720663D
:10E18000757365202020203D20004869676820665F
:10E190007573652020203D200045787420667573D6
:10E1A00065202020203D20004C6F636B2066757336
:10E1B000652020203D20004D617220203720323024
:10E1C000313300312E362E3800342E332E350056A2
:10E1D00023202020414444522020206F7020636F70
:10E1E00064652020202020696E73747275637469E1
:10E1F0006F6E2061646472202020496E74657272B3
:10E20000757074006E6F20766563746F7200726A49
:10E210006D702020006A6D70200057686174207056
:10E220006F72743A00506F7274206E6F7420737541
:10E2300070706F72746564004D7573742062652030
:10E2400061206C6574746572002000577269747483
:10E25000696E672045450052656164696E672045B7
:10E26000450045452065727220636E743D00504F35
:10E27000525400303D5A65726F2061646472003FF1
:10E280003D43505520737461747300403D454550C3
:10E29000524F4D207465737400423D426C696E6B41
:10E2A000204C454400453D44756D70204545505215
:10E2B0004F4D00463D44756D7020464C415348001B
:10E2C000483D48656C70004C3D4C69737420492F83
:10E2D0004F20506F72747300513D51756974005234
:10E2E0003D44756D702052414D00563D73686F7707
:10E2F00020696E7465727275707420566563746FF0
:10E30000727300593D506F727420626C696E6B00BD
:10E310002A0011241FBECFEFD1E2DEBFCDBF01E046
:10E320000CBF12E0A0E0B2E0EEE1FDEF03E00BBFB6
:10E3300002C007900D92A030B107D9F712E0A0E01B
:10E34000B2E001C01D92AE30B107E1F70F9460F367
:10E350000D948DFE01E20EBF0FEF0DBF11241FBE05
:10E360000D9460F30D9400F020E030E040ED57E0B4
:10E3700005C0FA013197F1F72F5F3F4F2817390792
:10E38000C0F308959C01260F311DC901A0E0B0E043
:10E390002F5F3F4FABBFFC018791882361F08093D3
:10E3A000C6008091C00086FFFCCF8091C0008064D1
:10E3B0008093C000EACF08958DE08093C6008091DD
:10E3C000C00086FFFCCF8091C00080648093C000B5
:10E3D0008AE08093C6008091C00086FFFCCF8091C8
:10E3E000C00080648093C00008950F94C2F10F9420
:10E3F000DCF10895FC019081992359F09093C600B7
:10E400008091C00086FFFCCF8091C0008064809323
:10E41000C0003196992379F70895282F982F929567
:10E420009F70892F805D8A3308F0895F8093C600D2
:10E430008091C00086FFFCCF8091C00080648093F3
:10E44000C000822F8F70982F905D9A3308F0995FEB
:10E450009093C6008091C00086FFFCCF8091C000E1
:10E4600080648093C00008959C01FB01853691056E
:10E470001CF46330710594F0C90164E670E00F94F8
:10E480002EFE605D7F4F6093C6008091C00086FFC6
:10E49000FCCF8091C00080648093C0002B30310598
:10E4A00014F43297B4F0C90164E670E00F942EFEC4
:10E4B0006AE070E00F942EFE605D7F4F6093C600AF
:10E4C0008091C00086FFFCCF8091C0008064809363
:10E4D000C000C9016AE070E00F942EFEC0968093E0
:10E4E000C6008091C00086FFFCCF8091C000806490
:10E4F0008093C00008951F93182F8EE692EE60E07F
:10E500000F94C2F11093C6008091C00086FFFCCF2B
:10E510008091C00080648093C0000F94DCF11F9153
:10E5200008952F923F924F925F926F927F928F92B7
:10E530009F92AF92BF92CF92DF92EF92FF920F9392
:10E540001F93DF93CF93CDB7DEB762970FB6F894E2
:10E55000DEBF0FBECDBF382E622ECA01DB015C01CB
:10E560006D01772420E2222E2E010894411C511CBB
:10E570008BC081E0A81680E0B80681E0C80680E084
:10E58000D80628F0C601AA27BB270F940DF2BB2797
:10E59000AD2D9C2D8B2D0F940DF28A2D0F940DF225
:10E5A0002092C6008091C00086FFFCCF8091C00001
:10E5B00080648093C0009DE29093C6008091C0006B
:10E5C00086FFFCCF8091C00080648093C0002092C1
:10E5D000C6008091C00086FFFCCF8091C00080649F
:10E5E0008093C00019828601750188249924A1E0D6
:10E5F0003A1651F03A1620F0B2E03B1661F409C029
:10E600000BBFF701779007C0C7010F9477FE782EF4
:10E6100002C0F7017080872D0F940DF22092C60082
:10E620008091C00086FFFCCF8091C0008064809301
:10E63000C000872D8052F401EF70F0708F3520F408
:10E64000E40DF51D708204C0E40DF51D8EE280839B
:10E650000894E11CF11C011D111D0894811C911CE2
:10E6600090E18916910409F0C2CF80E190E0A0E02A
:10E67000B0E0A80EB91ECA1EDB1E198AC2010F9493
:10E68000FAF10F94DCF16A94662009F072CF629679
:10E690000FB6F894DEBF0FBECDBFCF91DF911F91B3
:10E6A0000F91FF90EF90DF90CF90BF90AF909F9031
:10E6B0008F907F906F905F904F903F902F90089534
:10E6C0002F923F924F925F926F927F928F929F9282
:10E6D000AF92BF92CF92DF92EF92FF920F931F9370
:10E6E000DF93CF93CDB7DEB7CD53D1400FB6F894BB
:10E6F000DEBF0FBECDBF01E20EBF0FEF0DBF94B75F
:10E70000F894A89514BE80916000886180936000A1
:10E7100010926000789493FF05C0E0910002F091A0
:10E7200001021995279A2F9A8091C00082608093E8
:10E73000C00080E18093C40088E18093C1000000A4
:10E74000EE24FF24870144E0A42EB12CCC24DD2448
:10E7500024C0C5010197F1F70894E11CF11C011DCB
:10E76000111D21E2E2162EE4F20620E0020720E06D
:10E77000120718F031E0C32ED12CC801B70127ECE5
:10E780003BE140E050E00F9441FE611571058105C9
:10E79000910519F485B1805885B98091C00087FD35
:10E7A00003C0C114D104A9F2A6014F5F5F4FC25E3E
:10E7B000DE4F59834883CE51D140C25EDE4F8881FF
:10E7C0009981CE51D140019711F00D9410FEC05D9A
:10E7D000DE4F19821882C053D14060E0C15DDE4F28
:10E7E0001882CF52D14088249924C35DDE4F19820C
:10E7F0001882CD52D140C05EDE4F188219821A8233
:10E800001B82C052D140CE5CDE4F188219821A8220
:10E810001B82C253D140EE24FF2487010BBFF701B6
:10E8200007911691C45CDE4F19830883CC53D14005
:10E830000D940BFEC25EDE4F28813981CE51D1404E
:10E840002130310509F52091C600C25EDE4F1982E4
:10E850001882CE51D14022C02F5F3F4F4F4F5F4FA4
:10E86000213082E138078AE7480780E0580780F0C6
:10E87000C45CDE4FE881F981CC53D140EF5FFF4F9C
:10E8800019F0EE27FF27099420E030E040E050E047
:10E890008091C00087FFE0CF2091C600C35DDE4FAE
:10E8A00048815981CD52D1404F5F5F4FC35DDE4FEC
:10E8B00059834883CD52D140213209F063C64A3092
:10E8C000510508F05FC60894811C911C53E0851621
:10E8D000910409F059C600E010E018C081E280936D
:10E8E000C6008091C00086FFFCCF8091C00080648C
:10E8F0008093C0002F5F3F4F2931310579F70F9486
:10E90000DCF10F5F1F4F0530110519F020E030E0FA
:10E91000E5CF10920A0210920B0210920C02109294
:10E920000D02109206021092070210920802109235
:10E930000902109202021092030210920402109235
:10E9400005028FEE90EE60E00F94F5F180E191EE1C
:10E9500060E00F94C2F18091C00087FFFCCF9091DE
:10E96000C600903608F09F759032B8F09093C600BC
:10E970008091C00086FFFCCF8091C00080648093AE
:10E98000C000A0E2A093C6008091C00086FFFCCF2B
:10E990008091C00080648093C000983409F4D7C18E
:10E9A0009934B8F4923409F459C1933458F490333B
:10E9B00019F1903308F4E3C59F33A1F1903409F0C5
:10E9C000DEC5BDC0953409F470C1963409F0D7C5D1
:10E9D00098C1923509F42BC2933538F49C3409F46C
:10E9E000F5C1913509F0CBC518C2963509F445C279
:10E9F000993509F0C4C567C483E792EE62E00F94CD
:10EA0000F5F110920602109207021092080210927D
:10EA1000090210920A0210920B0210920C0210923C
:10EA20000D0213C18FE792EE62E00F94F5F18FEEC5
:10EA300090EE60E00F94F5F181E291EE60E00F94CA
:10EA4000C2F187EB91EE60E00F94F5F180E391EE77
:10EA500060E00F94C2F184EE90EE60E00F94F5F167
:10EA60008FE391EE60E00F94C2F186E090E061E008
:10EA700070E00F9434F20F94DCF18DE591EE60E0DC
:10EA80000F94C2F189EC91EE60E00F94F5F18EE401
:10EA900091EE60E00F94C2F183EC91EE60E00F9490
:10EAA000F5F18CE691EE60E00F94C2F18EE10F94E7
:10EAB0000DF288E90F940DF281E00F940DF20F949E
:10EAC000DCF18BE791EE60E00F94C2F119E0E0E039
:10EAD000F0E010935700E4918E2F0F940DF20F94F5
:10EAE000DCF18AE891EE60E00F94C2F1E3E0F0E03F
:10EAF00010935700E4918E2F0F940DF20F94DCF1D8
:10EB000089E991EE60E00F94C2F1E2E0F0E0109349
:10EB10005700E4918E2F0F940DF20F94DCF188EAE8
:10EB200091EE60E00F94C2F1E1E0F0E01093570045
:10EB30001491812F0F940DF20F94DCF107CF8BE825
:10EB400092EE62E00F94F5F18BE492EE60E00F94A8
:10EB5000F5F10F94DCF100E010E019C0C8016F2D51
:10EB60000F947FFEFF2031F489E492EE60E00F9471
:10EB7000C2F10BC0F092C6008091C00086FFFCCFAE
:10EB80008091C00080648093C0000F5F1F4FC80158
:10EB900081519F41A0E0B0E0ABBFFC01F790BAE229
:10EBA000FB1621F0E2E000301E07C1F60F94DCF105
:10EBB0000F94DCF187E592EE60E00F94F5F10F948D
:10EBC000DCF1CC24DD2400E010E01EC0C8010F946D
:10EBD00077FEF82E882331F489E492EE60E00F94FA
:10EBE000C2F10BC08093C6008091C00086FFFCCFAD
:10EBF0008091C00080648093C000FE1419F00894D6
:10EC0000C11CD11C0F5F1F4FC80181519F41A0E063
:10EC1000B0E0ABBFFC01E790FAE2EF1621F022E092
:10EC20000030120799F60F94DCF10F94DCF182E6C4
:10EC300092EE60E00F94C2F1C60161E070E00F94C3
:10EC400034F20F94DCF10F94DCF110920202109276
:10EC50000302109204021092050278CE89E992EE26
:10EC600062E00F94F5F1279A2F9A16C02F9880E052
:10EC700090E0E0EDF7E03197F1F7019684369105E9
:10EC8000C1F72F9A80E090E0E0EDF7E03197F1F7DF
:10EC9000019684369105C1F78091C00087FFE6CFC9
:10ECA0008091C00087FFFCCF64C485EA92EE62E0E9
:10ECB0000F94F5F140910202509103026091040219
:10ECC0007091050281E020E10F9491F2809102029F
:10ECD00090910302A0910402B091050280509F4FD1
:10ECE000AF4FBF4F8093020290930302A0930402A0
:10ECF000B093050280509041A040B04008F426CE69
:10ED0000A4CF83EB92EE62E00F94F5F140910602FE
:10ED100050910702609108027091090280E020E1A1
:10ED20000F9491F28091060290910702A09108023F
:10ED3000B091090280509F4FAF4FBF4F80930602A2
:10ED400090930702A0930802B0930902FFCD80ECD4
:10ED500092EE62E00F94F5F183E792EE60E00F949B
:10ED6000F5F18FE792EE60E00F94F5F18BE892EE0B
:10ED700060E00F94F5F189E992EE60E00F94F5F10F
:10ED800085EA92EE60E00F94F5F183EB92EE60E09D
:10ED90000F94F5F180EC92EE60E00F94F5F187ECC2
:10EDA00092EE60E00F94F5F188ED92EE60E00F9442
:10EDB000F5F18FED92EE60E00F94F5F18AEE92EEB0
:10EDC00060E00F94F5F183E093EEBDCD87EC92EE19
:10EDD00062E00F94F5F181E40F947BF282E40F94EA
:10EDE0007BF283E40F947BF284E40F947BF285E45E
:10EDF0000F947BF286E40F947BF287E40F947BF20E
:10EE000088E40F947BF28AE40F947BF28BE40F94F6
:10EE10007BF28CE40F947BF299CD88ED92EE62E068
:10EE20000F94F5F1772473948824992409C48FED05
:10EE300092EE62E00F94F5F140910A0250910B02BC
:10EE400060910C0270910D0282E020E10F9491F22A
:10EE500080910A0290910B02A0910C02B0910D02D8
:10EE600080509F4FAF4FBF4F80930A0290930B0289
:10EE7000A0930C02B0930D0269CD8AEE92EE62E08F
:10EE80000F94F5F184EE90EE60E00F94F5F18FECC5
:10EE900091EE60E00F94F5F1662477244301CC5D98
:10EEA000DE4F19821882C452D140D401C301B695F5
:10EEB000A79597958795CA5DDE4F88839983AA8326
:10EEC000BB83C652D140CC5DDE4FA881B981C4520C
:10EED000D1401196CC5DDE4FB983A883C452D14096
:10EEE000CD0162E070E00F9434F2B0E2B093C6005E
:10EEF0008091C00086FFFCCF8091C0008064809329
:10EF0000C000EDE2E093C6008091C00086FFFCCF18
:10EF10008091C00080648093C000F0E2F093C6004E
:10EF20008091C00086FFFCCF8091C00080648093F8
:10EF3000C000CA5DDE4FE880F9800A811B81C6529D
:10EF4000D140BB27A12F902F8F2D0F940DF2CA5DBA
:10EF5000DE4F8881C652D1400F940DF2B0E2FB2EF5
:10EF6000F092C6008091C00086FFFCCF8091C00067
:10EF700080648093C0000DE30093C6008091C000C0
:10EF800086FFFCCF8091C00080648093C00010E2B7
:10EF90001093C6008091C00086FFFCCF8091C00016
:10EFA00080648093C0008BBEF3012791C65DDE4F65
:10EFB0002883CA52D140A22EBB24CC24DD2408943D
:10EFC000611C711C811C911C8BBEF3018791282E42
:10EFD0003324442455240894611C711C811C911C09
:10EFE0008BBEF3013791C55DDE4F3883CB52D140E4
:10EFF0000894611C711C811C911C8BBEF30147910C
:10F00000C45DDE4F4883CC52D140ADEFEA2EAFEF66
:10F01000FA2EAFEF0A2FAFEF1A2F6E0C7F1C801E57
:10F02000911E142D032DF22CEE24EA0CFB1C0C1D5A
:10F030001D1D0F940DF220E22093C6008091C000A8
:10F0400086FFFCCF8091C00080648093C000C65DC5
:10F05000DE4F8881CA52D1400F940DF230E23093D6
:10F06000C6008091C00086FFFCCF8091C000806404
:10F070008093C000C45DDE4F8881CC52D1400F9494
:10F080000DF240E24093C6008091C00086FFFCCFA5
:10F090008091C00080648093C000C55DDE4F888190
:10F0A000CB52D1400F940DF250E25093C6008091A4
:10F0B000C00086FFFCCF8091C00080648093C000B8
:10F0C0008FEFE8168FEFF80680E0080780E018075A
:10F0D00031F484E092EE60E00F94C2F1DFC0D80119
:10F0E000C7018070907CA070B0708050904CA040A0
:10F0F000B040D1F52FEF3FE340E050E0E222F322B1
:10F1000004231523CA5DDE4FA880B980CA80DB8046
:10F11000C652D140AE0CBF1CC01ED11EAA0CBB1CD7
:10F12000CC1CDD1C8EE092EE60E00F94C2F1BB2798
:10F13000A12F902F8F2D0F940DF28E2D0F940DF285
:10F1400030E23093C6008091C00086FFFCCF8091F2
:10F15000C00080648093C0004EE34093C60080915D
:10F16000C00086FFFCCF87C08EE09EEFA0E0B0E03D
:10F17000E822F9220A231B239CE0E91694E9F90608
:10F1800090E0090790E0190709F088C0C45DDE4FE0
:10F19000A881CC52D140EA2EFF2400E010E0102FCD
:10F1A0000F2DFE2CEE24C55DDE4FB881CB52D14031
:10F1B000EB0EF11C011D111DD601C501817090706F
:10F1C000A070B070DC0199278827E80EF91E0A1F8D
:10F1D0001B1F20EF30E040E050E0A222B322C42207
:10F1E000D52241E1AA0CBB1CCC1CDD1C4A95D1F7F1
:10F1F000EA0CFB1C0C1D1D1D81E090E0A0E0B0E0BE
:10F20000282239224A225B2235E1220C331C441C7D
:10F21000551C3A95D1F7E20CF31C041D151D57013E
:10F220006801AA0CBB1CCC1CDD1C85E192EE60E0E1
:10F230000F94C2F1C801AA27BB270F940DF2BB2778
:10F24000A12F902F8F2D0F940DF28E2D0F940DF274
:10F2500090E29093C6008091C00086FFFCCF809121
:10F26000C00080648093C000AEE3A093C60080918C
:10F27000C00086FFFCCF8091C00080648093C000F6
:10F28000C601AA27BB270F940DF2BB27AD2D9C2DDD
:10F290008B2D0F940DF28A2D0F940DF20F94DCF14B
:10F2A000CC5DDE4FE881F981C452D140F99709F471
:10F2B0004DCBF4E0EF2EF12C012D112D6E0C7F1CA7
:10F2C000801E911EF2CD83E093EE62E00F94F5F183
:10F2D0008AE192EE60E00F94C2F18091C00087FF56
:10F2E000FCCF1091C6001F751093C6008091C0001E
:10F2F00086FFFCCF8091C00080648093C0000F9493
:10F30000DCF1812F81548A3108F036C1163409F4BA
:10F3100095C0173490F4133409F44EC0143430F40B
:10F320001134F1F0123409F01DC130C0143409F465
:10F3300059C0153409F016C16BC01A3409F4C4C0A1
:10F340001B3438F4173409F48FC0183409F00AC19B
:10F35000A1C01B3409F4D2C01C3409F003C1E8C0B9
:10F360008FEF81B90DC082B1809582B980E090E0C5
:10F37000E0EDF7E03197F1F70196883C9105C1F790
:10F380008091C00087FFEFCF12B8EFC08FEF84B934
:10F390000DC085B1809585B980E090E0E0EDF7E0A3
:10F3A0003197F1F70196883C9105C1F78091C00033
:10F3B00087FFEFCF15B8D9C08FEF87B90DC088B1DF
:10F3C000809588B980E090E0E0EDF7E03197F1F7C3
:10F3D0000196883C9105C1F78091C00087FFEFCF6F
:10F3E00018B8C3C08FEF8AB90DC08BB180958BB9A7
:10F3F00080E090E0E0EDF7E03197F1F70196883C8E
:10F400009105C1F78091C00087FFEFCF1BB8ADC059
:10F410008FEF8DB90DC08EB180958EB980E090E0F0
:10F42000E0EDF7E03197F1F70196883C9105C1F7DF
:10F430008091C00087FFEFCF1EB897C08FEF80BBD1
:10F440000DC081B3809581BB80E090E0E0EDF7E0F6
:10F450003197F1F70196883C9105C1F78091C00082
:10F4600087FFEFCF11BA81C08FEF83BB0DC084B38C
:10F47000809584BB80E090E0E0EDF7E03197F1F714
:10F480000196883C9105C1F78091C00087FFEFCFBE
:10F4900014BA6BC08FEF809301010FC080910201FD
:10F4A00080958093020180E090E0E0EDF7E03197F5
:10F4B000F1F70196883C9105C1F78091C00087FF64
:10F4C000EDCF1092020151C08FEF809304010FC065
:10F4D0008091050180958093050180E090E0E0ED4A
:10F4E000F7E03197F1F70196883C9105C1F78091DB
:10F4F000C00087FFEDCF1092050137C08FEF8093DA
:10F5000007010FC08091080180958093080180E079
:10F5100090E0E0EDF7E03197F1F70196883C910536
:10F52000C1F78091C00087FFEDCF109208011DC088
:10F530008FEF80930A010FC080910B01809580931B
:10F540000B0180E090E0E0EDF7E03197F1F70196F4
:10F55000883C9105C1F78091C00087FFEDCF1092E4
:10F560000B0103C085E292EEEEC98091C00087FFD7
:10F57000FCCF8091C600EAC988E392EEE4C98CE131
:10F5800091EEE1C988249924933011F1943028F444
:10F59000913089F09230B8F408C0953061F195301F
:10F5A000F0F0963009F048C043C02B3109F042C951
:10F5B00091E06BE13FC96227C15DDE4F2883CF52E6
:10F5C000D14092E037C9B22FA0E0622793E032C960
:10F5D000822F90E0A82BB92B622794E02BC92E3004
:10F5E00009F039C3622795E0C05DDE4F19821882A9
:10F5F000C053D1401FC9E1E0F0E0EC0FFD1FC05D3A
:10F60000DE4F08811981C053D140E00FF11F2083E4
:10F610000F5F1F4FC05DDE4F19830883C053D14079
:10F6200062270A171B0709F005C9D80196E002C92D
:10F63000261709F010C303C0973009F0FBC87724E0
:10F640009981933109F412C19431C8F4963009F4C8
:10F65000D8C0973050F4923009F406C1933009F4C1
:10F660006DC0913009F059C253C0913109F477C08F
:10F67000923108F0BBC0903109F04FC2F5C098310B
:10F6800009F487C0993150F4953109F4EFC09531F0
:10F6900008F4C6C1963109F040C2C2C19A3109F4DA
:10F6A0006CC09A3108F491C09B3109F45BC09D3164
:10F6B00009F033C29D81903359F48F81882311F46E
:10F6C0009EE11CC0813011F091E018C098E916C08D
:10F6D000892F807591F0903539F4E0E0F0E089E011
:10F6E0008093570094910AC0983539F4E3E0F0E034
:10F6F00089E080935700949101C090E01A821B82A8
:10F700008D818C831D829E831F8227E030E009C299
:10F710001A8288E08B8381E48C8386E58D8382E581
:10F720008E8389E48F8383E5888780E589878FE5E9
:10F730008A8782E38B872BE030E0F3C18A818139AD
:10F7400041F0823941F0803911F48FE005C080E04A
:10F7500003C082E001C08AE01A828B8344C0772410
:10F76000739482C08D81882311F48EE12CC0813086
:10F7700011F081E028C088E926C01A82E1E0F0E0BB
:10F7800089E08093570084918B831C8224E030E0D1
:10F79000C8C18B81803589F48C81883039F4E2E0EE
:10F7A000F0E089E08093570084910DC0E0E0F0E044
:10F7B00089E080935700849106C0E3E0F0E089E09F
:10F7C0008093570084911A82DFCF8D81836C99E0FA
:10F7D000E1E0F0E0082E90935700E89507B600FCB2
:10F7E000FDCF1A821B8223E030E09BC180EC8A832C
:10F7F000CE5CDE4F188219821A821B82C253D1401E
:10F800008EC18A8190E0A0E0B0E0582F44273327D2
:10F8100022278B8190E0A0E0B0E0DC0199278827C7
:10F82000282B392B4A2B5B2B8D8190E0A0E0B0E098
:10F83000282B392B4A2B5B2B8C8190E0A0E0B0E089
:10F84000BA2FA92F982F8827282B392B4A2B5B2BCF
:10F85000220F331F441F551FC05EDE4F288339839C
:10F860004A835B83C052D1401A8259C13A81C95C34
:10F87000DE4F3883C753D140CA5CDE4F1882C6536F
:10F88000D1408B81C82EDD24CA5CDE4F488159816E
:10F89000C653D140C42AD52A933109F082C0CE5C28
:10F8A000DE4F88819981AA81BB81C253D1408050AB
:10F8B000904CA340B04030F583E0CE5CDE4FE88052
:10F8C000F9800A811B81C253D140F70100935B008C
:10F8D00080935700E89507B600FCFDCFCE5CDE4F65
:10F8E000088119812A813B81C253D14000501F4FAA
:10F8F0002F4F3F4FCE5CDE4F088319832A833B8313
:10F90000C253D140C05EDE4F488159816A817B81FC
:10F91000C052D140DE011B9631E08C9111962C91A2
:10F9200011971296C75CDE4F2883C953D140C85C3B
:10F93000DE4F1882C853D14090E0C85CDE4FE881AA
:10F94000F981C853D1408E2B9F2B0C01FA01609393
:10F950005B0030935700E89511244E5F5F4F6F4F67
:10F960007F4F0EEFE02E0FEFF02ECE0CDF1CC114F8
:10F97000D10499F685E0C05EDE4F088119812A81A5
:10F980003B81C052D140F80120935B008093570027
:10F99000E89507B600FCFDCF81E180935700E8951C
:10F9A00035C0C05EDE4F88819981AA81BB81C0527B
:10F9B000D140B695A795979587957C018601ABE0D8
:10F9C000AA2EB12CAC0EBD1E0BC0D5016D915D01F0
:10F9D000C7010F947FFE0894E11CF11C01501040F8
:10F9E0000115110591F7A60160E070E0440F551F65
:10F9F000661F771FC05EDE4FE880F9800A811B8199
:10FA0000C052D1404E0D5F1D601F711F1A82C05E33
:10FA1000DE4F488359836A837B83C052D1407FC0C5
:10FA2000FA80C55CDE4FF882CB53D140C65CDE4F16
:10FA30001882CA53D1408B81C82EDD24C65CDE4FAC
:10FA400008811981CA53D140C02AD12A1A828981DA
:10FA5000BE016D5F7F4F843121F59601C05EDE4FA0
:10FA6000E880F9800A811B81C052D1400BBFF701A9
:10FA700087919691DB018C9311969C936E5F7F4FDB
:10FA8000D801C7010296A11DB11DC05EDE4F88835B
:10FA90009983AA83BB83C052D14022503040F1F6F3
:10FAA00036C0C05EDE4F288139814A815B81C052F9
:10FAB000D1400894C108D108760100E010E0089414
:10FAC000C11CD11C0894E11CF11C011D111DE20E8A
:10FAD000F31E041F151F21BDBB27A52F942F832FB5
:10FAE00082BD2F5F3F4F4F4F5F4FF89A80B5DB01CC
:10FAF0008D93BD012E153F054007510761F7C05E8C
:10FB0000DE4F288339834A835B83C052D1409601FC
:10FB10002D5F3F4FFB01108204C080EC8A8322E0FE
:10FB200030E08BE18093C6008091C00086FFFCCF5F
:10FB30008091C00080648093C000C15DDE4FF88179
:10FB4000CF52D140F093C6008091C00086FFFCCF19
:10FB50008091C00080648093C000432F3093C60022
:10FB60008091C00086FFFCCF8091C00080648093AC
:10FB7000C000922F2093C6008091C00086FFFCCF6A
:10FB80008091C00080648093C0008EE08093C600A6
:10FB90008091C00086FFFCCF8091C000806480937C
:10FBA000C00065E1C15DDE4FE880CF52D1406E25D7
:10FBB00069276427FE01319610C090819093C6009A
:10FBC0008091C00086FFFCCF31968091C000806498
:10FBD0008093C0006927215030402115310569F715
:10FBE0006093C6008091C00086FFFCCF8091C0006A
:10FBF00080648093C00085B1805885B9772081F4F6
:10FC0000C15DDE4F0881CF52D1400F5FC15DDE4F35
:10FC10000883CF52D14090E0A0E0B0E00D941AF4F8
:10FC200027982F9880E090E020ED37E0F901319798
:10FC3000F1F7019684369105C9F700008091C00064
:10FC40008D7F8093C00081E180935700E895EE2777
:10FC5000FF270994FFCF90E00D941AF497FB092E2B
:10FC600007260AD077FD04D02ED006D000201AF443
:10FC7000709561957F4F0895F6F7909581959F4F08
:10FC80000895A1E21A2EAA1BBB1BFD010DC0AA1FDD
:10FC9000BB1FEE1FFF1FA217B307E407F50720F0F5
