:100000002EC100005DC100005BC1000059C10000AD
:1000100057C1000055C1000053C1000051C100008C
:100020004FC100004DC100004BC1000049C100009C
:1000300047C100000C941D1043C1000041C10000E5
:100040003FC100000CC600003BC1000039C10000E8
:1000500037C1000035C1000033C100002FC50000CA
:100060002FC100000C9446110C941C1129C10000F2
:1000700027C1000025C1000023C1000021C10000EC
:10008000C1C500001DC100001BC1000019C1000056
:1000900017C1000015C1000013C1000011C100000C
:1000A0000FC100000DC1000080C5000009C10000A3
:1000B00007C1000005C1000003C1000049C50000E0
:1000C000FFC00000FDC00000FBC000000C94E61063
:1000D0000C94BC10F5C00000F3C00000F1C000009B
:1000E000EFC00000EE01F101E001E401EA012802A5
:1000F000F501F901FF01030207020D0211021502C9
:1001000028021B021F0223025B04600465046F04C3
:100110007904F20483048B0493049D04A704B104BE
:10012000C004CA04F204D404DE04E8042B075C080B
:100130008F073708CA08A90890080000200023008C
:10014000260029002C002F003200000100000301CE
:100150000601090100000A0B02090C0D0E08070335
:10016000040100000000000000000000000000008A
:10017000000000000000000000000000000000007F
:10018000121110000000000000000000000000003C
:100190000000000000000000000000002200250018
:1001A00028002B002E003100340002010000050160
:1001B00008010B010200002100240027002A002D65
:1001C000003000330001010000040107010A0101B1
:1001D0000210202008081020401020408002010258
:1001E0000108040201010204081020408080402020
:1001F000100804020180040201804020100804025B
:1002000001080402010102040810204080010204D8
:1002100008102040800505050507050808080802A4
:100220000202020A0A08080404040401010101018F
:100230000101010303030303030303040707070C7E
:100240000C0C0C0C0C0C0C02020202060606060634
:100250000606060B0B0B0B0B0B0B0B003F181124A8
:100260001FBECFEFD1E2DEBFCDBF00E00CBF15E077
:10027000A0E0B2E0EEE3FBE300E00BBF02C00790BA
:100280000D92A033B107D9F727E0A0E3B5E001C094
:100290001D92AC37B207E1F711E0CFE2D1E000E008
:1002A00006C021970109802FFE010E94771BCE32E4
:1002B000D10780E00807A9F70E9476140C949D1DD1
:1002C0009FCEFC01538D448D252F30E0842F90E08C
:1002D000821B930B541710F0CF9608950197089541
:1002E000FC01918D828D981761F0828DDF01A80F3E
:1002F000B11D5D968C91928D9F5F9F73928F90E060
:1003000008958FEF9FEF0895FC01918D828D9817CE
:1003100031F0828DE80FF11D858D90E008958FEF0B
:100320009FEF0895FC01918D228D892F90E0805CD4
:100330009F4F821B91098F739927089580E090E069
:10034000892B21F00E948E0F811121C080E090E066
:10035000892B41F080E090E0892B21F00E94000081
:10036000811118C080E090E0892B21F00E94840F59
:10037000811113C080E090E0892BA1F080E090E033
:10038000892B81F00E94000081110AC008950E940B
:100390000000DCCF0E940000E5CF0E940000EACF01
:1003A0000C940000089590E0FC013197E231F105D2
:1003B00008F04EC08827EE58FF4F8F4F0C94771BE4
:1003C000809180008F7703C0809180008F7D809323
:1003D0008000089580918000877FF9CF84B58F7762
:1003E00002C084B58F7D84BD08958091B0008F7761
:1003F00003C08091B0008F7D8093B00008958091FC
:1004000090008F7707C0809190008F7D03C080910E
:100410009000877F8093900008958091A0008F774F
:1004200007C08091A0008F7D03C08091A000877FCE
:100430008093A0000895809120018F7707C080915C
:1004400020018F7D03C080912001877F8093200150
:1004500008953FB7F89480913A0590913B05A0919B
:100460003C05B0913D0526B5A89B05C02F3F19F06E
:100470000196A11DB11D3FBFBA2FA92F982F882724
:10048000820F911DA11DB11DBC01CD0142E0660F7F
:10049000771F881F991F4A95D1F70895FC01848D15
:1004A000DF01A80FB11DA35ABF4F2C91848D90E09E
:1004B00001968F739927848FA689B7892C93A08979
:1004C000B1898C91837080648C93938D848D981303
:1004D00006C00288F389E02D80818F7D8083089596
:1004E000EF92FF920F931F93CF93DF93EC0181E084
:1004F000888F9B8D8C8D981305C0E889F989808140
:1005000085FD25C0F62E0B8D10E00F5F1F4F0F737A
:100510001127E02E8C8DE8120BC00FB607FCFACF26
:10052000E889F989808185FFF5CFCE01B7DFF2CF69
:100530008B8DFE01E80FF11DE35AFF4FF0829FB74C
:10054000F8940B8FEA89FB89808180620AC09FB78B
:10055000F894EE89FF896083E889F9898081837046
:10056000806480839FBF81E090E0DF91CF911F91F5
:100570000F91FF90EF900895CF93DF93EC01888D5A
:100580008823C1F0EA89FB89808185FD05C0A8899F
:10059000B9898C9186FD0EC00FB607FCF5CF80811E
:1005A00085FFF2CFA889B9898C9185FFEDCFCE0167
:1005B00075DFE8CFDF91CF910895CF93DF93282F98
:1005C00030E0F901EC5AFE4F8491F901E153FE4FFE
:1005D000D491F901EB5EFD4FC491CC2389F08111D8
:1005E000E2DEEC2FF0E0EE0FFF1FE65CFE4FA59180
:1005F000B491EC91ED2381E090E021F480E002C021
:1006000080E090E0DF91CF9108951F93CF93DF9327
:10061000282F30E0F901EC5AFE4F8491F901E153A3
:10062000FE4FD491F901EB5EFD4FC491CC23B9F09C
:10063000162F8111B8DEEC2FF0E0EE0FFF1FE6560B
:10064000FE4FA591B4919FB7F894111104C08C91FD
:10065000D095D82302C0EC91DE2BDC939FBFDF91B5
:10066000CF911F910895CF92DF92EF92FF920F9357
:100670001F93CF93DF936C018B017A01EC01CF5C68
:10068000DA4F888187FF04C0FB011182108224C0E9
:100690002CE02C9DC0012D9D900D11242881AC01D2
:1006A000420F511D27FD5A9520913A0730E042171D
:1006B000530794F42881AC01420F511D27FD5A9530
:1006C0009A01FA01EE0FFF1F2E0F3F1FF901E655A9
:1006D000F94F208126FD19C088818F5F88832CE027
:1006E0002C9DC0012D9D900D11242881AC01420F3D
:1006F000511D27FD5A9520913A0730E042175307C4
:10070000B4F428812C303CF112C02881820F911D55
:1007100027FD9A95FC01EE0FFF1F8E0F9F1FFC0116
:10072000E655F94F808160E08F736FDFD5CFF80118
:1007300080819181049680349C4918F480E49CE97E
:1007400004C0F801808191810496F7019183808330
:100750008FEF888344C0F801408151812881BC011A
:10076000620F711D27FD7A959B01FB01EE0FFF1FA4
:100770002E0F3F1FF901E655F94F21813281240FD9
:10078000351FF701318320832881AC01420F511DB1
:1007900027FD5A959A01FA01EE0FFF1F2E0F3F1FFA
:1007A000F901E655F94F208126FF19C02881820FF3
:1007B000911D27FD9A95FC01EE0FFF1F8E0F9F1FC5
:1007C000FC01E655F94F808161E08F73DF91CF9195
:1007D0001F910F91FF90EF90DF90CF9016CFDF9198
:1007E000CF911F910F91FF90EF90DF90CF900895E0
:1007F000CF93DF9390E0FC01E153FE4F2491FC0185
:10080000EB5EFD4F8491882361F190E0880F991F82
:10081000FC01EB54FE4FC591D491FC01E656FE4F0E
:10082000A591B491611109C09FB7F8948881209572
:1008300082238883EC912E230BC0623061F49FB732
:10084000F8948881322F309583238883EC912E2B66
:100850002C939FBF06C08FB7F894E8812E2B288376
:100860008FBFDF91CF9108951F93CF93DF93182F00
:10087000EB0161E0BDDF209711F460E004C0CF3FE1
:10088000D10531F461E0812FDF91CF911F91BDCE71
:10089000E12FF0E0EC5AFE4FE4918E2F90E0FC0146
:1008A0003197E231F10508F09DC08827EC57FF4FE2
:1008B0008F4F0C94771B84B5806884BDC7BD97C0EB
:1008C00084B5806284BDC8BD92C08091800080687C
:1008D00080938000D0938900C093880088C0809165
:1008E0008000806280938000D0938B00C0938A0048
:1008F0007EC080918000886080938000D0938D00BE
:10090000C0938C0074C08091B00080688093B00068
:10091000C093B3006CC08091B00080628093B0003F
:10092000C093B40064C08091900080688093900070
:10093000D0939900C09398005AC080919000806233
:1009400080939000D0939B00C0939A0050C08091F8
:100950009000886080939000D0939D00C0939C008D
:1009600046C08091A00080688093A0008091A00084
:100970008F7B8093A000D093A900C093A80037C0BC
:100980008091A00080628093A000D093AB00C093C0
:10099000AA002DC08091A00088608093A000D09311
:1009A000AD00C093AC0023C080912001806880938B
:1009B0002001D0932901C093280119C08091200102
:1009C000806280932001D0932B01C0932A010FC035
:1009D00080912001886080932001D0932D01C093E5
:1009E0002C0105C0C038D1050CF04CCF46CFDF91AB
:1009F000CF911F910895863308F0865390917B0024
:100A0000282F2870977F922B90937B0087708064AB
:100A100080937C0080917A00806480937A0080913A
:100A20007A0086FDFCCF809178002091790090E0DB
:100A3000922B08958F929F92AF92BF92CF92DF92A6
:100A4000EF92FF926B017C0104DD4B015C01C1144C
:100A5000D104E104F104E9F0FCDCDC01CB018819EC
:100A60009909AA09BB09883E9340A105B10578F30D
:100A700021E0C21AD108E108F10888EE880E83E06F
:100A8000981EA11CB11CC114D104E104F10421F78A
:100A9000DECFFF90EF90DF90CF90BF90AF909F9010
:100AA0008F9008952FB7F8946091360570913705AF
:100AB00080913805909139052FBF08951F920F92AC
:100AC0000FB60F9211242F933F938F939F93AF9361
:100AD000BF938091360590913705A0913805B0916C
:100AE00039053091350523E0230F2D3720F4019689
:100AF000A11DB11D05C026E8230F0296A11DB11D41
:100B0000209335058093360590933705A0933805DB
:100B1000B093390580913A0590913B05A0913C0531
:100B2000B0913D050196A11DB11D80933A059093AA
:100B30003B05A0933C05B0933D05BF91AF919F91BC
:100B40008F913F912F910F900FBE0F901F9018958E
:100B50001F920F920FB60F9211240BB60F922F9384
:100B60003F934F935F936F937F938F939F93AF9335
:100B7000BF93EF93FF9348E251E064E271E080E0BD
:100B800090E071DDFF91EF91BF91AF919F918F91B7
:100B90007F916F915F914F913F912F910F900BBE7D
:100BA0000F900FBE0F901F9018951F920F920FB6C7
:100BB0000F9211240BB60F922F933F934F935F9395
:100BC0006F937F938F939F93AF93BF93EF93FF9315
:100BD00048EA50E064EA70E083E090E044DDFF9191
:100BE000EF91BF91AF919F918F917F916F915F91A5
:100BF0004F913F912F910F900BBE0F900FBE0F9012
:100C00001F9018951F920F920FB60F9211240BB6DA
:100C10000F922F933F934F935F936F937F938F9395
:100C20009F93AF93BF93EF93FF9348E950E064E93C
:100C300070E082E090E017DDFF91EF91BF91AF91FE
:100C40009F918F917F916F915F914F913F912F91E4
:100C50000F900BBE0F900FBE0F901F9018951F9214
:100C60000F920FB60F9211240BB60F922F933F9352
:100C70004F935F936F937F938F939F93AF93BF93A4
:100C8000EF93FF9348E850E064E870E081E090E083
:100C9000EADCFF91EF91BF91AF919F918F917F918E
:100CA0006F915F914F913F912F910F900BBE0F90DD
:100CB0000FBE0F901F901895809130058F3F59F00F
:100CC00060910B0270E087E0CFDD60E086E09DDCA4
:100CD0008FEF80933005089580913005813059F071
:100CE00060E087E092DC60910B0270E086E0BCDDA2
:100CF00081E080933005089580913005882341F08C
:100D000060E087E082DC60E086E07FDC1092300506
:100D1000089580916A058F3F59F060910B0270E051
:100D200082E0A2DD60E083E070DC8FEF80936A05F3
:100D3000089580916A05882341F060E082E065DCD7
:100D400060E083E062DC10926A05089580916B0593
:100D50008F3F51F06FEF70E084E086DD60E085E06A
:100D600054DC8FEF80936B05089580916B05882389
:100D700041F060E084E049DC60E085E046DC109210
:100D80006B0508950F931F93CF93DF93EC018B01B5
:100D900098D560E872E0CE010E94C50FB801CE017F
:100DA000CED56EE172E0CE010E94C50F6091630561
:100DB00070916405CE01C3D561E272E0CE010E945C
:100DC000C50F6091610570916205CE01B8D564E2EE
:100DD00072E0CE010E94C50F60915F0570916005C1
:100DE000CE01ADD567E272E0CE010E94C50FCE0103
:100DF000DF91CF911F910F910895CF92DF92EF92E3
:100E0000FF920F931F93CF93DF938091650581111C
:100E100004C0D0916605D11102C0D09145058091E2
:100E20006705811104C0C0916805C11102C0C0915D
:100E300045058AE292E00E94621280916A0790E082
:100E40008730910508F03AC2FC018827EA56FF4F27
:100E50008F4F0C94771B87E392E00E948B11809157
:100E60007107823009F02AC28091720790916F0752
:100E70008823B9F0983070F520917007283050F52C
:100E800087E0E82FE91BF0E0E55CF84F821B282F94
:100E900081E090E001C0880F2A95EAF7968D892BB2
:100EA00017C09830B8F420917007283098F487E084
:100EB000E82FE91BF0E0E55CF84F821B282F81E06A
:100EC00090E001C0880F2A95EAF78095968D8923D6
:100ED000868FE5D4E7DDC0907307D0907407E0906B
:100EE0007507F0907607DC01CB018C199D09AE09DE
:100EF000BF09853F9140A105B10508F4DFC190917C
:100F0000720781E0892780937207CCDD60937307B5
:100F1000709374078093750790937607CFC181E42F
:100F200092E00E948B1189E492E00E94621280910B
:100F30004F07813021F0833009F473C0B9C081E4D8
:100F400092E00E948B11E9D220913B0730913C073F
:100F500040913D0750913E07A7E0B0E00E94C51ABE
:100F600032EFC32E32E1D32EE12CF12CA7019601F2
:100F70000E94A91AD22F283020F520913F073091E6
:100F800040074091410750914207A7E0B0E00E941E
:100F9000C51AA70196010E94A91A283090F487E08B
:100FA000E82FED1BF0E0E55CF84F821B282F81E075
:100FB00090E001C0880F2A95EAF7968D892B868FDD
:100FC0006ED4CC2309F474C083E0C9D120913B07CF
:100FD00030913C0740913D0750913E07A7E0B0E0BB
:100FE0000E94C51A22EFC22E22E1D22EE12CF12C52
:100FF000A70196010E94A91A20936F0720913F072D
:10100000309140074091410750914207A7E0B0E07E
:101010000E94C51AA70196010E94A91A2093700781
:1010200047C08BE592E00E948B1177D2882309F4A8
:101030003FC080915307C1DAEC018AE692E00E943A
:10104000621281E090E0CD2B11F080E090E0D9D1E8
:1010500080915307B2DA892B29F483E080936A07E1
:1010600081E025C081E080936A0782E020C082E8A9
:1010700092E00E948B1151D2809153079EDA892B06
:1010800081F084E080936A078FEF9FEFDC0180930B
:101090006B0790936C07A0936D07B0936E0780E089
:1010A0005ED1DD2329F086E080936A0784E057D182
:1010B000C0D186ED92E004C185E992E00E948B11D7
:1010C0002CD2882309F443C010926A0788E0E9E52E
:1010D000F7E0DF011D928A95E9F784E280935B07D0
:1010E00090E190935C0790935D0780935E07D7D360
:1010F00083E08093710787EE92E00E948B116CEE83
:1011000072E080E795E00E947C1110926905DF9102
:10111000CF911F910F91FF90EF90DF90CF900895A6
:1011200088EB92E00E948B11F8D1882381F084E053
:1011300080936A078FEF9FEFDC0180936B0790939A
:101140006C07A0936D07B0936E0780E008D171D152
:10115000B5C086EA92E00E948B11DFD1882309F4A2
:10116000ADC010926A0782E0809371078EED92E025
:101170000E948B111092690562EE72E080E795E0A3
:10118000DF91CF911F910F91FF90EF90DF90CF9063
:101190000C947C1180EC92E00E948B1180916B0783
:1011A00090916C07A0916D07B0916E078F3F9F4F94
:1011B000AF4FBF4F49F476DC60936B0770936C07B9
:1011C00080936D0790936E07809163078093640707
:1011D00061E08091610719DA83E290E00197F1F70D
:1011E00060E08091610711DA8091620790E0FC0174
:1011F000E153FE4F6491FC01EB5EFD4FE491F0E0A2
:10120000EE0FFF1FE65CFE4F8591949100E117E21F
:1012100020E030E0462F0E943114611571058105F0
:10122000910539F0DC01CB010196A11DB11DBF7004
:1012300003C080E090E0DC01BC01892B11F46FEF6A
:101240007FEF81E0643F91E0790708F080E08093D0
:10125000630780916407811103C0643F7140D0F13E
:10126000809164078823B1F080916307811112C0D7
:1012700080916507882371F082E193E00E948B11D1
:101280001092650780E090E00E949C1182E067D098
:1012900085E037C007DCC0906B07D0906C07E0900A
:1012A0006D07F0906E07DC01CB018C199D09AE092A
:1012B000BF09813D9740A105B105E0F481ED92E0C1
:1012C000DF91CF911F910F91FF90EF90DF90CF9022
:1012D0000C948B1181EF92E00E948B118FEF92E0C2
:1012E0000E948B1181E08093650787E890E00E945F
:1012F0009C11B6CF809165078111E0CF82E02FD09D
:1013000081E080936A07DACFCF92DF92EF92FF926B
:10131000CF93DF936B017C016DE28DE096E0E0D826
:10132000EC0166277727CB016C197D098E099F098F
:101330004AE00E9420128C0F9D1FDF91CF91FF90F9
:10134000EF90DF90CF900895BC01990F880B990B17
:1013500097FDDACF4AE00C9420120E94801DCF93B3
:10136000853018F085E293E048C090914F072EEF4A
:10137000290F233038F420915007211103C086E350
:1013800093E03BC08917D9F1813011F1C82F91301A
:1013900081F410924D0710924E0780914B078111F6
:1013A00004C080914C07882321F00E9466120E949D
:1013B0006612C23081F028F4C1111DC010924F078F
:1013C0001EC0C33041F0C430B1F4C0934F0707C012
:1013D00080934F0702C0C0934F07109250078FEFC2
:1013E0009FEFDC018093430790934407A093450748
:1013F000B093460704C084E893E0CF918CC7CF91A7
:101400000895CF93DF93BC01990F880B990B97FF39
:1014100002C07ADF03C04AE00E942012EC0168E9B2
:1014200073E08DE096E068D78C0F9D1FDF91CF9120
:101430000895CF92DF92EF92FF92CF93DF938BE9E3
:1014400093E069D78BEA93E00E946212CBE3D7E086
:101450006C8970E080E090E04AE0F2D78BEB93E09B
:101460000E946212288139814A815B81A7E0B0E045
:101470000E94C51A22EFC22E22E1D22EE12CF12CBD
:10148000A70196010E94A91ACA01B90177278827E6
:1014900099274AE0D5D78AEC93E00E9462122C810A
:1014A0003D814E815F81A7E0B0E00E94C51AA7018F
:1014B00096010E94A91ACA01B9017727882799279E
:1014C0004AE0BED768E973E08DE096E015D789ED74
:1014D00093E0F8D78889082E000C990B35DF8CEE45
:1014E00093E0F0D78989082E000C990B8ADF8FEFE3
:1014F00093E0E8D78A89082E000C990B25DF82E15A
:1015000094E0E0D78B89082E000C990BDF91CF91E6
:10151000FF90EF90DF90CF9074CF4F925F926F92D9
:101520007F928F929F92AF92BF92CF92DF92EF9273
:10153000FF92CF93DF9300D000D0CDB7DEB780917C
:101540004F07823009F498C040F4882309F46DC134
:10155000813009F069C1BAD768C1833021F0843085
:1015600009F444C061C18091430790914407A09160
:101570004507B09146078F3F9F4FAF4FBF4F59F47C
:1015800091DA6093430770934407809345079093E3
:1015900046071092500786DAC0904307D090440760
:1015A000E0904507F0904607DC01CB018C199D09BE
:1015B000AE09BF098C3D9540A105B10508F442C0B4
:1015C00071DAC0904307D0904407E0904507F0904F
:1015D0004607DC01CB018C199D09AE09BF09883B88
:1015E0009B40A105B10508F045C042C0809143076A
:1015F00090914407A0914507B09146078F3F9F4FB8
:10160000AF4FBF4F59F44EDA6093430770934407CE
:1016100080934507909346071092500743DAC09095
:101620004307D0904407E0904507F0904607DC015F
:10163000CB018C199D09AE09BF0988359240A105DF
:10164000B10510F449DBEAC02DDAC0904307D09011
:101650004407E0904507F0904607DC01CB018C1968
:101660009D09AE09BF09803B9440A105B10510F466
:1016700023DBD4C041DBCFC0809143079091440766
:10168000A0914507B09146078F3F9F4FAF4FBF4F87
:1016900059F408DA60934307709344078093450731
:1016A0009093460710925007FDD9C0904307D09001
:1016B0004407E0904507F09046072B013C014C1889
:1016C0005D086E087F0880903B0790903C07A090D3
:1016D0003D07B0903E0754E6850E911CA11CB11C3D
:1016E00081E08E83481459046A047B0408F01E824A
:1016F000D9D9C0904307D0904407E0904507F090B7
:1017000046079B01AC012C193D094E095F0969018F
:101710007A0180913F0790914007A0914107B091D5
:1017200042079C01AD012C593F4F4F4F5F4F29831A
:101730003A834B835C8331E03D8389819A81AB811D
:10174000BC81C816D906EA06FB0608F01D8285E2B0
:1017500094E0B8D660913B0770913C0780913D07BB
:1017600090913E074AE06CD668E973E08DE096E020
:10177000C3D589E394E0A6D660913F0770914007F6
:1017800080914107909142074AE05AD668E973E098
:101790008DE096E0B1D58DE494E094D6AE818A2FA9
:1017A00090E02FDE86E694E08DD6BD818B2F90E011
:1017B00028DE481459046A047B0410F4C7DA01C017
:1017C000D4DA29813A814B815C81C216D306E406C2
:1017D000F50610F49EDA01C0ACDA481459046A0424
:1017E0007B04E0F089819A81AB81BC81C816D9065F
:1017F000EA06FB0698F010923B0710923C07109205
:101800003D0710923E0710923F071092400710923A
:1018100041071092420781E08093500781E0909148
:101820005007911103C001C001C080E026960FB699
:10183000F894DEBF0FBECDBFDF91CF91FF90EF9048
:10184000DF90CF90BF90AF909F908F907F906F90E0
:101850005F904F9008951F93CF93DF93C82F162F5B
:1018600060E0809157070E940503CEBD00000DB4D3
:1018700007FEFDCFCEB5D0E0DC2FCC271EBD00008B
:101880000DB407FEFDCF8EB5C82B61E080915707E0
:101890000E940503CE01DF91CF911F9108950F9310
:1018A0001F93CF9301E617E0C0E0CF5FF80162918C
:1018B0008F018C2FD0DFC830C1F7CF911F910F91CE
:1018C0000895FC0111821082138212821582148203
:1018D00040E050E06AE973E066C30F931F93E2D8DB
:1018E000609378057093790580937A0590937B05D2
:1018F00080E795E00E94700197FF1EC0D3D8009149
:1019000078051091790520917A0530917B05DC01ED
:10191000CB01801B910BA20BB30B009174051091AE
:101920007505209176053091770580179107A207FC
:10193000B307F0F28FEF9FEF1F910F910895EF9291
:10194000FF920F931F93CF93DF93CDB7DEB7289706
:101950000FB6F894DEBF0FBECDBF7C01CB014AE0CD
:101960008E010F5F1F4FB8010E94FD19F801019011
:101970000020E9F73197AF01401B510BB801C701B7
:10198000D7D228960FB6F894DEBF0FBECDBFDF9139
:10199000CF911F910F91FF90EF900895CF93809179
:1019A0000002863121F08F3F09F0B9C104C0E4EB99
:1019B000F1E0C491E6C086E180930002E4EBF1E03F
:1019C000E491EF3F09F4ABC1E23009F46FC040F598
:1019D000EE2309F44FC0E13009F0D2C0109280002C
:1019E00010928100809181008860809381008091B5
:1019F0008100816080938100EBE2F2E0E491F0E00D
:101A0000EE0FFF1FE656FE4F85919491E5EEF1E053
:101A1000E491E093490561E086E10E94F803BFC0CC
:101A2000E43009F48BC008F467C0E53009F0A8C0C1
:101A300010922001109221018091210188608093F1
:101A4000210180912101816080932101EBE2F2E08C
:101A5000E491F0E0EE0FFF1FE656FE4F8591949162
:101A6000E5EEF1E0E491E093460561E086E10E9455
:101A7000F803C7C014BC15BC84B5826084BD85B5AD
:101A8000816085BDEBE2F2E0E491F0E0EE0FFF1F34
:101A9000E656FE4F85919491E5EEF1E0E491E093F6
:101AA0004A0561E086E10E94F80322C11092B0006D
:101AB0001092B1008091B00082608093B00080915C
:101AC000B10081608093B100EBE2F2E0E491F0E0DC
:101AD000EE0FFF1FE656FE4F8591949190934005BF
:101AE00080933F05E5EEF1E0E491E0933E0561E08F
:101AF00086E10E94F8039AC0109290001092910023
:101B00008091910088608093910080919100816024
:101B100080939100EBE2F2E0E491F0E0EE0FFF1F22
:101B2000E656FE4F85919491E5EEF1E0E491E09365
:101B3000480561E086E10E94F80351C01092A000C0
:101B40001092A1008091A10088608093A1008091F3
:101B5000A10081608093A100EBE2F2E0E491F0E06B
:101B6000EE0FFF1FE656FE4F85919491E5EEF1E0F2
:101B7000E491E093470561E086E10E94F80338C0F4
:101B8000CE2FC7FDCCC061E086E10E94F803CC23D4
:101B900009F4AEC0C23009F449C0C130F1F48091FB
:101BA0008100887F83608093810081E49FE090932F
:101BB00089008093880080E290E0A0E0B0E080930C
:101BC000570590935805A0935905B0935A058091F5
:101BD0006F00826080936F00A2C0C33039F480919F
:101BE0009100887F8360809391003AC0C43039F4BB
:101BF0008091A100887F83608093A10049C0C53097
:101C000039F480912101887F83608093210158C03D
:101C1000C33031F12CF4C23009F081C081E40CC032
:101C2000C430B1F1C53009F44BC079C08091B10026
:101C300087608093B10083EF8093B30080E290E0EF
:101C4000A0E0B0E08093410590934205A093430546
:101C5000B0934405809170008260809370005FC0F3
:101C600081E49FE0909399008093980080E290E057
:101C7000A0E0B0E08093530590935405A0935505E0
:101C8000B09356058091710082608093710047C0C7
:101C900081E49FE09093A9008093A80080E290E007
:101CA000A0E0B0E080934F0590935005A0935105BC
:101CB000B0935205809172008260809372002FC0B1
:101CC00081E49FE0909329018093280180E290E0D5
:101CD000A0E0B0E080934B0590934C05A0934D0598
:101CE000B0934E058091730082608093730017C09B
:101CF00085B5887F856085BD83EF87BD80E290E0F4
:101D0000A0E0B0E080935B0590935C05A0935D0537
:101D1000B0935E0580916E00826080936E00CF91DB
:101D20000895FC0124813581232B31F421E06115D4
:101D30007105A1F0FB0108C0FC0180819181611552
:101D4000710531F421E0FC018081882339F005C060
:101D50000E948D1D21E0892B09F020E0822F08953B
:101D6000CF93DF93EC016FE774E0DBDF882349F06A
:101D70008FEF9FEF90936F0580936E0582E894E05C
:101D800063C065E974E0CE01CCDF882329F01092AE
:101D90006F0510926E055BC068E974E0CE01C1DF8B
:101DA000882349F08FEF9FEF90936D0580936C052A
:101DB0008BE994E049C06BEA74E0CE01B2DF88237E
:101DC00029F010926D0510926C0541C06EEA74E026
:101DD000CE01A7DF882349F081E090E090936F0562
:101DE00080936E0581EB94E02FC065EC74E0CE012A
:101DF00098DF8111CCCF68EC74E0CE0192DF8823AC
:101E000049F081E090E090936D0580936C058BEC38
:101E100094E01AC06AED74E0CE0183DF8111D1CF66
:101E20006DED74E0CE017DDF882331F081E0809399
:101E3000450580EE94E008C069EE74E0CE0171DFE4
:101E4000882329F08CEE94E0DF91CF9164C2DF917A
:101E5000CF910895CF92DF92EF92FF920F931F934D
:101E6000CF93DF936C017A018B01C0E0D0E0CE15F7
:101E7000DF0581F0D8016D918D01D601ED91FC91C6
:101E80000190F081E02DC6011995892B11F0219662
:101E9000EECF7E01C701DF91CF911F910F91FF908F
:101EA000EF90DF90CF900895089580E090E008953E
:101EB000FC01808191810C94171C0F931F93CF9389
:101EC000DF93EC0188819981009729F02A813B8179
:101ED0002617370788F48B016F5F7F4F0E94A01C85
:101EE000009761F0998388831B830A832C813D814D
:101EF000232B11F4FC01108281E001C080E0DF910E
:101F0000CF911F910F91089580E795E00E94920173
:101F100021E0892B09F420E0822F08958DE096E0DE
:101F20000E94920121E0892B09F420E0822F08957C
:101F3000EF92FF920F931F93CF93DF93611571057B
:101F400011F480E01BC041155105B9F07B01EC0193
:101F50008C819D818A01080F191FB801CE01ADDF68
:101F6000882379F3288139818C819D81B701820F83
:101F7000931F0E94961D1D830C8381E0DF91CF91FA
:101F80001F910F91FF90EF9008956115710549F031
:101F9000FB0101900020E9F73197AF01461B570B79
:101FA000C7CF80E00895EF92FF920F931F93CF93D6
:101FB000DF93EC017B018A01BA017FDF288139813F
:101FC00081110DC02115310519F0C9010E94171C9E
:101FD000198218821D821C821B821A8206C01D83F0
:101FE0000C83B701C9010E94961DCE01DF91CF91EC
:101FF0001F910F91FF90EF900895CF93DF93EC0125
:10200000FB0186179707A9F0608171816115710541
:1020100021F044815581C7DF0CC0888199810097E8
:1020200011F00E94171C198218821D821C821B82CB
:102030001A82CE01DF91CF9108951F920F920FB6B1
:102040000F9211240BB60F922F933F934F935F93F0
:102050006F937F938F939F93AF93BF93EF93FF9370
:102060008091410590914205A0914305B0914405AE
:10207000892B8A2B8B2B59F190913E05E0913F05DE
:10208000F09140058081892780838091410590915E
:102090004205A0914305B0914405181619061A0689
:1020A0001B060CF056C08091410590914205A0910D
:1020B0004305B09144050197A109B10980934105F9
:1020C00090934205A0934305B093440542C080918C
:1020D0000002E4EBF1E0E4919FEF90930002E23024
:1020E000C9F050F4EE2399F0E13081F590916F0042
:1020F0009D7F90936F002AC0E43019F1E0F0E53045
:1021000029F5909173009D7F909373001FC01092EA
:102110006E001CC0909170009D7F9093700091E0C4
:102120009093B0009091B100987F94609093B1002B
:102130001092B3000BC0909171009D7F909371003D
:1021400005C0909172009D7F9093720060E00E94A4
:102150000503FF91EF91BF91AF919F918F917F9177
:102160006F915F914F913F912F910F900BBE0F9008
:102170000FBE0F901F9018951F920F920FB60F92DF
:1021800011240BB60F922F933F934F935F936F934E
:102190007F938F939F93AF93BF93EF93FF9380E7CA
:1021A00095E00E944E02FF91EF91BF91AF919F91F8
:1021B0008F917F916F915F914F913F912F910F90F0
:1021C0000BBE0F900FBE0F901F9018951F920F928D
:1021D0000FB60F9211240BB60F922F938F939F93EC
:1021E000EF93FF93E0918005F09181058081E0916C
:1021F0008605F091870582FD12C090818091890546
:102200008F5F8F7320918A05821751F0E0918905C5
:10221000F0E0E059FA4F958F8093890501C08081E5
:10222000FF91EF919F918F912F910F900BBE0F9087
:102230000FBE0F901F9018951F920F920FB60F921E
:1022400011240BB60F922F933F934F935F936F938D
:102250007F938F939F93AF93BF93EF93FF938DE003
:1022600096E00E944E02FF91EF91BF91AF919F9136
:102270008F917F916F915F914F913F912F910F902F
:102280000BBE0F900FBE0F901F9018951F920F92CC
:102290000FB60F9211240BB60F922F938F939F932B
:1022A000EF93FF93E0911D06F0911E068081E0916F
:1022B0002306F091240682FD12C0908180912606AB
:1022C0008F5F8F7320912706821751F0E0912606C9
:1022D000F0E0E35FF94F958F8093260601C080817F
:1022E000FF91EF919F918F912F910F900BBE0F90C7
:1022F0000FBE0F901F9018956115710549F0FB01F5
:1023000001900020E9F73197AF01461B570BA2CD92
:1023100080E090E00895CF93DF93BC018DE096E0DC
:10232000EBDFEC0168E973E08DE096E0E5DF8C0F10
:102330009D1FDF91CF910895CF92DF92EF92FF9290
:10234000DC01A03282E0B8070CF03EC0B7FD06C049
:10235000A53BB1052CF0A4EBB0E002C0A0E0B0E0DA
:102360008091680728E830E06901C81AD10887FD24
:10237000D394CC0CDD1CCC0CDD1C0D2C000CEE0819
:10238000FF088091690728E532E0281B310987FDA5
:102390003395220F331F220F331FA901330F660B12
:1023A000770B9A01AB012C193D094E095F090E9478
:1023B000CF1A24EB30E040E050E00E94A91AC20E90
:1023C000D31EE41EF51ED60190916707903398F551
:1023D0008091680748E850E0481B510987FD5395F4
:1023E000440F551F440F551FA417B5078CF080915B
:1023F000690728E532E0281B310987FD3395220F54
:10240000331F220F331FAD012A173B070CF4A9011C
:1024100042505109440F551F2FB7F894892F90E06F
:10242000FC01EE0FFF1F8E0F9F1FFC01E655F94FB9
:10243000528341832FBFFF90EF90DF90CF9008959C
:102440008F929F92AF92BF920F931F93CF93DF9380
:10245000CDB7DEB7A1970FB6F894DEBF0FBECDBFE4
:1024600019A2423008F44AE08E010F5D1F4F842EFE
:10247000912CA12CB12CA50194010E94D51AE62F14
:10248000B901CA0101501109EA3014F4E05D01C03C
:10249000E95CD801EC93232B242B252B61F7B801A1
:1024A0008DE096E029DFA1960FB6F894DEBF0FBE4F
:1024B000CDBFDF91CF911F910F91BF90AF909F90B3
:1024C0008F900895BC018DE096E016CFCF92DF92F9
:1024D000EF92FF920F931F9380914D0780934B07CC
:1024E00080914E0780934C0780916E0590916F0507
:1024F000009749F4809151070E94FB048F3F91059A
:1025000009F024F48FEF80934D0707C0813093408A
:1025100014F081E0F8CF10924D0780916C059091F6
:102520006D05009771F4809152070E94FB048F3F64
:10253000910509F014F48FEF04C08130934024F02A
:1025400081E080934E0702C010924E0780914307AE
:1025500090914407A0914507B09146078F3F9F4F48
:10256000AF4FBF4F51F40E945205609343077093E1
:102570004407809345079093460780914B071816B0
:10258000CCF50E945205C0903B07D0903C07E090EC
:102590003D07F0903E0700914707109148072091B2
:1025A000490730914A07C01AD10AE20AF30ADC014E
:1025B000CB018C0D9D1DAE1DBF1D80933B079093DD
:1025C0003C07A0933D07B0933E07823F9241A1058F
:1025D000B10508F451C010924D0782EF92E1A0E0DE
:1025E000B0E080933B0790933C07A0933D07B093E6
:1025F0003E0742C0882309F43FC0C0903B07D090FB
:102600003C07E0903D07F0903E070E945205009184
:102610004707109148072091490730914A07AB01BD
:10262000BC01401B510B620B730B80913B079091D7
:102630003C07A0913D07B0913E07841B950BA60B6C
:10264000B70B80933B0790933C07A0933D07B09353
:102650003E07C816D906EA06FB0620F0892B8A2B0E
:102660008B2B51F410924D0710923B0710923C07B0
:1026700010923D0710923E0780914C071816CCF53A
:102680000E945205C0903F07D0904007E09041075C
:10269000F0904207009147071091480720914907A1
:1026A00030914A07C01AD10AE20AF30ADC01CB01D1
:1026B0008C0D9D1DAE1DBF1D80933F07909340075D
:1026C000A0934107B0934207833F9241A105B10512
:1026D00008F44CC010924E0782EF92E1A0E0B0E007
:1026E00080933F0790934007A0934107B093420720
:1026F0003DC08823D9F1C0903F07D0904007E090BB
:102700004107F09042070E9452050091470710913F
:1027100048072091490730914A07AB01BC01401B93
:10272000510B620B730B80913F0790914007A09172
:102730004107B0914207841B950BA60BB70B809302
:102740003F0790934007A0934107B0934207C816F4
:10275000D906EA06FB0650F410924E0710923F0786
:1027600010924007109241071092420780914D0746
:1027700087FF0FC080913B0790913C07A0913D07D8
:10278000B0913E07892B8A2B8B2B19F10E94A6064C
:1027900022C08823F1F080913B0790913C07A091E3
:1027A0003D07B0913E07823F9241A105B10589F0F6
:1027B00080916B05813079F060E084E00E94050330
:1027C0006FEF70E085E00E94340481E080936B0538
:1027D00002C00E94B50680914E0787FF0FC080910E
:1027E0003F0790914007A0914107B0914207892B84
:1027F0008A2B8B2B19F10E94890622C08823F1F0C5
:1028000080913F0790914007A0914107B091420706
:10281000823F9241A105B10589F080916A0581301E
:1028200079F060E082E00E9405036FEF70E083E0E2
:102830000E94340481E080936A0502C00E949906D8
:102840000E94520560934707709348078093490799
:1028500090934A071F910F91FF90EF90DF90CF90D8
:102860000895CF92DF92EF92FF920F931F93E82F7C
:10287000F92F05C0015011092109310961F1908139
:1028800096239417B9F305C00150110921093109A4
:1028900011F1908196239413F7CFC12CD12CE12C08
:1028A000F12C0AC08FEFC81AD80AE80AF80A0C15EA
:1028B0001D052E053F0579F080818623841791F34D
:1028C0006C2D7D2D8E2D9F2D1F910F91FF90EF90E0
:1028D000DF90CF90089560E070E080E090E01F917D
:1028E0000F91FF90EF90DF90CF900895CF93DF93FB
:1028F000CDB7DEB7C457D1090FB6F894DEBF0FBE0F
:10290000CDBF789484B5826084BD84B5816084BD78
:1029100085B5826085BD85B5816085BD80916E007D
:10292000816080936E0010928100809181008260AE
:1029300080938100809181008160809381008091EB
:1029400080008160809380008091B10084608093DA
:10295000B1008091B00081608093B00080919100BF
:1029600082608093910080919100816080939100BA
:10297000809190008160809390008091A10082609E
:102980008093A1008091A10081608093A10080913B
:10299000A00081608093A0008091210182608093DB
:1029A000210180912101816080932101809120018A
:1029B00081608093200180917A00846080937A0006
:1029C00080917A00826080937A0080917A008160A1
:1029D00080937A0080917A00806880937A001092C8
:1029E000C100E0911D06F0911E0622E02083E091D7
:1029F0001906F0911A061082E0911B06F0911C0650
:102A00008FEC808310922506E0912106F09122063A
:102A100096E09083E0911F06F0912006808180610E
:102A20008083E0911F06F09120068081886080837A
:102A3000E0911F06F0912006808180688083E091FC
:102A40001F06F091200680818F7D8083E0918005B4
:102A5000F09181052083E0917C05F0917D05108245
:102A6000E0917E05F0917F0583E3808310928805D5
:102A7000E0918405F09185059083E0918205F091C5
:102A80008305808180618083E0918205F0918305D8
:102A9000808188608083E0918205F0918305808148
:102AA00080688083E0918205F091830580818F7D2D
:102AB000808360E080E20E94F80360E081E20E948F
:102AC000F80360E082E20E94F80362E087E10E947E
:102AD000F80362E088E10E94F80384EF94E01BDCD5
:102AE00089EF94E0EFDC6091660770E080E090E0B1
:102AF0004AE0A6DC68E973E08DE096E0FDDB10912A
:102B0000660780916707803308F052C061E0812F2B
:102B10000E94F803E0916707AE2FB0E0CD01880F67
:102B2000991FA80FB91FA655B94F1F738C91807CB0
:102B3000182B1C9310926807109269078E2F6CE077
:102B4000CAD52CE0829FB001112440E050E09B01E7
:102B5000240F351FD901AA0FBB1F2A0F3B1FD90114
:102B6000A655B94F9C9196FD17C04F5F5F4F4C30F3
:102B7000510569F7813009F056C21092800082E059
:102B8000809381001092850010928400B19A809108
:102B90006F00826080936F008E2F90E0FC01EE0F3B
:102BA000FF1FE80FF91FE655F94F8081806480838D
:102BB00082E193E0B0DB1092650780E090E0BCDB3F
:102BC0008E010F5F1F4F7E0131E6E30EF11C8091F5
:102BD0006905882321F0813009F4FDC021C280906D
:102BE000010290900202A0900302B090040220E043
:102BF00030E040E85FE3C501B40132D487FFAAC0EA
:102C000080E20E94DD02892B89F520E030E040E877
:102C10005FE3C501B401FBD460930102709302022B
:102C20008093030290930402809163059091640560
:102C30000196909364058093630561E070E0C8019C
:102C40000E94C20669817A8180E795E055DBC80160
:102C50002FD961E070E0C8010E94C20689819A8183
:102C60005ADBC80125D985E095E035C082E20E9493
:102C7000DD02892BC1F520E030E040E85EE3C501CC
:102C8000B401C5D4609301027093020280930302E1
:102C90009093040280915F05909160050196909356
:102CA000600580935F0563E070E0C8010E94C20682
:102CB00069817A8180E795E01FDBC801F9D863E07C
:102CC00070E0C8010E94C20689819A8124DBC80194
:102CD000EFD88CE095E01FDB68EC70E080E090E0DE
:102CE0000E941A0575C081E20E94DD02892B09F05D
:102CF0006FC020E030E040E05FE3C501B40187D45D
:102D00006093010270930202809303029093040285
:102D10008091610590916205019690936205809380
:102D2000610562E070E0C8010E94C20669817A8193
:102D300080E795E0E1DAC801BBD862E070E0C80145
:102D40000E94C20689819A81E6DAC801B1D883E17E
:102D500095E0C1CF81E08093690510920102109245
:102D60000202109203021092040210926405109263
:102D70006305109262051092610510926005109231
:102D80005F058AE195E0C7DA65E275E080E795E0E6
:102D9000B3DA64E670E080E090E00E941A0580916A
:102DA0006A07811115C081E00E94AF0982E080931B
:102DB0006A0788E0E9E5F7E0DF011D928A95E9F707
:102DC0000E94CE0C8BE891E00197F1F70E94CE0CA7
:102DD0000E94FD0625C1809168058093670580915A
:102DE00066058093650587E10E94DD0221E0892B5D
:102DF00009F020E02093680588E10E94DD0221E0CF
:102E0000892B09F020E02093660580E795E00E9479
:102E1000920118161906E4F6CE0183599F4F0E94BD
:102E2000610C0E946D0C97FD0AC089831A8241E0F3
:102E300050E0B801CE0183599F4F7AD8F2CFE39684
:102E40008EAD9FADE397029789F41A8219821C8296
:102E50001B821E821D82BE0163597F4FC801CDD8DF
:102E6000C8010E94B00EC80123D8D4C0A9961FAED5
:102E70001EAEA997AB961FAE1EAEAB97AD961FAE1A
:102E80001EAEAD97BE0163597F4FCE0189599F4F4A
:102E9000B4D8C8010E94610CCE0107960E94610C53
:102EA000CE010D960E94610CCE0143960E94610CEA
:102EB000CE0149960E94610CCE014F960E94610C92
:102EC000CE0185960E94610CCE018B960E94610C0A
:102ED000CE01C1960E94610CCE01C7960E94610C82
:102EE000CE01CD960E94610CCE018D5B9F4F0E945A
:102EF000610CCE01875B9F4F0E94610CCE01815B0C
:102F00009F4F0E94610CCE018B5A9F4F0E94610C13
:102F1000CE01855A9F4F0E94610CC7010E94610C2F
:102F2000C12CD12C912CA12CB12C96E0892EAD96E0
:102F30008EAD9FADAD97C816D906B0F5A9968EADEA
:102F40009FADA997009729F0FC01EC0DFD1D808134
:102F500001C080E0E4968FAFE497E5961FAEE59759
:102F600041E050E0BE016D587F4FC7010E94980FAD
:102F7000AA94AB2891F494013203C0011124B70143
:102F8000800F911F3AD840E050E06AE973E0C70132
:102F90000AD89394A12CB12C03C0AA24A394B12CD9
:102FA0008FEFC81AD80AC3CFC7010E94580FCE01AD
:102FB00089599F4F0E94580F6801CE14DF0401F118
:102FC0006AE973E0C6010E94910E811115C0D70114
:102FD00011961C921E9213961C921E921297159691
:102FE0001C921E921497B601C70107D8C7010E9410
:102FF000B00EC7010E94580FB6E0CB0ED11CDDCF3A
:103000006701E6E0CE1AD108C6010E94580F0C15E0
:103010001D05B9F7CE0183599F4F0E94580FD8CE96
:103020000E949E01D4CD823061F410929000809372
:103030009100109295001092940088BB80937100CB
:10304000ABCD833069F41092A00082E08093A100A0
:103050001092A5001092A40089BB809372009CCDB1
:1030600081119ACD1092200182E08093210110926B
:103070002501109224018ABB809373008DCDCF93DC
:10308000109273051092720548EE53E060E070E014
:10309000409374055093750560937605709377059A
:1030A00080E192E0909371058093700525ED30E00A
:1030B00030937D0520937C0524ED30E030937F052F
:1030C00020937E0520ED30E030938105209380052C
:1030D00021ED30E0309383052093820522ED30E02E
:1030E000309385052093840526ED30E030938705E5
:1030F000209386051092890510928A0510928B05FF
:1031000010928C051092100610920F064093110633
:1031100050931206609313067093140690930E0654
:1031200080930D0685EC90E090931A068093190623
:1031300084EC90E090931C0680931B0680EC90E05A
:1031400090931E0680931D0681EC90E090932006DC
:1031500080931F0682EC90E09093220680932106D4
:1031600086EC90E090932406809323061092260626
:1031700010922706109228061092290610923B07FB
:1031800010923C0710923D0710923E0710923F07A5
:103190001092400710924107109242071092430785
:1031A0001092440710924507109246071092470765
:1031B000109248071092490710924A0710924B0745
:1031C00010924C0710924D0710924E0710924F0725
:1031D0001092500787E38093510786E3809352074C
:1031E0008BE18093530761E084E00E94F80360E084
:1031F00084E00E94050361E085E00E94F80360E03E
:1032000085E00E94050361E082E00E94F80360E02F
:1032100082E00E94050361E083E00E94F80360E021
:1032200083E00E94050361E087E00E94F80360E00C
:1032300087E00E94050361E086E00E94F80360E0F9
:1032400086E00E9405030E94520560934307709335
:103250004407809345079093460760E080915307A9
:103260000E94F803109255071092540710925607C7
:1032700085E390E0909358078093570761E00E94A0
:10328000F80361E083E30E94F80361E084E30E94B5
:10329000F80361E0809157070E940503CFB7F894C7
:1032A00080917707811127C0EAE4F2E08491E4E09D
:1032B000F2E09491E82FF0E0EE0FFF1FEB54FE4F89
:1032C000A591B491EC91E92321F461E085E30E949A
:1032D000050361E085E30E94F8038CB580618CBD35
:1032E0008CB580648CBD61E084E30E94F80361E0EA
:1032F00083E30E94F803809177078F5F80937707BD
:10330000CFBF80E58CBD81E08DBD60E08CE00E9488
:103310002B0C67E08AE00E942B0C67E08BE00E9498
:103320002B0C60E089E00E942B0C60E08FE00E9493
:103330002B0C61E08CE00E942B0CC1E060E08C2F34
:103340000E942B0CCF5FC930C9F788E0E9E5F7E0B0
:10335000DF011D928A95E9F78AE18093610789E18F
:103360008093620761E08AE10E94F80360E089E1EE
:103370000E94F80310926307109264071092650789
:1033800080913A078033A0F491E0980F90933A0728
:103390008093670790E0FC01EE0FFF1F8E0F9F1FC9
:1033A000FC01E655F94F88EB9BE09283818303C0D3
:1033B0008FEF8093670788E08093660710926A0713
:1033C00010926B0710926C0710926D0710926E07A7
:1033D00010926F0710927007109271071092720787
:1033E0001092730710927407109275071092760767
:1033F00061E086E1CF910C94F803BB274A3031F4A9
:10340000992322F4BDE2909581959F4F01C0BB277F
:10341000FB015527AA27880F991FAA1FA41710F090
:10342000A41B83955051B9F7A05DAA3308F0A95D9C
:10343000A193009779F7B111B1931192CB0100C01C
:10344000DC01FC01672F71917723E1F7329704C00B
:103450007C916D9370836291AE17BF07C8F3089596
:1034600003D008F481E00895990F0008550FAA0BC6
:10347000E0E8FEEF16161706E807F907C0F0121687
:103480001306E407F50798F0621B730B840B950B8A
:1034900039F40A2661F0232B242B252B21F40895DF
:1034A0000A2609F4A140A6958FEF811D811D08957C
:1034B00097F99F6780E870E060E008959FEF80ECE7
:1034C000089500240A94161617061806090608958A
:1034D00000240A9412161306140605060895092EF0
:1034E0000394000C11F4882352F0BB0F40F4BF2B5F
:1034F00011F460FF04C06F5F7F4F8F4F9F4F08959F
:1035000057FD9058440F551F59F05F3F71F0479594
:10351000880F97FB991F61F09F3F79F08795089579
:10352000121613061406551FF2CF4695F1DF08C098
:10353000161617061806991FF1CF869571056105B5
:1035400008940895E894BB2766277727CB0197F95D
:103550000895052E97FB16F400940FD057FD05D063
:1035600024D007FC02D046F408C050954095309511
:1035700021953F4F4F4F5F4F0895909580957095DF
:1035800061957F4F8F4F9F4F089531D0A59F900D2C
:10359000B49F900DA49F800D911D11240895B7FF35
:1035A000F4CFF3DF821B930B0895A1E21A2EAA1B1E
:1035B000BB1BFD010DC0AA1FBB1FEE1FFF1FA217E3
:1035C000B307E407F50720F0A21BB30BE40BF50BE0
:1035D000661F771F881F991F1A9469F76095709569
:1035E000809590959B01AC01BD01CF010895A29FEC
:1035F000B001B39FC001A39F700D811D1124911DC7
:10360000B29F700D811D1124911D08955058BB2744
:10361000AA270ED064CF55DF30F05ADF20F031F406
:103620009F3F11F41EF44ACF0EF4E095E7FB40CF24
:10363000E92F66DF80F3BA176207730784079507DF
:1036400018F071F49EF57ECF0EF4E0950B2EBA2F94
:10365000A02D0B01B90190010C01CA01A001112498
:10366000FF27591B99F0593F50F4503E68F11A1644
:10367000F040A22F232F342F4427585FF3CF4695D5
:1036800037952795A795F0405395C9F77EF41F16F7
:10369000BA0B620B730B840BBAF09150A1F0FF0FC1
:1036A000BB1F661F771F881FC2F70EC0BA0F621FAD
:1036B000731F841F48F4879577956795B795F7959D
:1036C0009E3F08F0B3CF9395880F08F09927EE0F2F
:1036D000979587950895991B79E004C0991F9617CF
:1036E00008F0961B881F7A95C9F780950895EE0F0C
:1036F000FF1F881F8BBF0790F691E02D19940F9341
:103700001F93CF93DF938230910510F482E090E015
:10371000E0917A07F0917B0720E030E0A0E0B0E094
:10372000309719F14081518102811381481759075F
:10373000C8F08417950769F4109731F012960C932E
:10374000129713961C9327C000937A0710937B0758
:1037500022C02115310519F04217530718F49A01B8
:10376000BD01EF01DF01F801DBCF21153105F9F0D3
:10377000281B390B2430310580F48A819B81611527
:10378000710521F0FB019383828304C090937B0732
:1037900080937A07FE01329644C0FE01E20FF31FC8
:1037A0008193919322503109398328833AC0209123
:1037B000780730917907232B41F42091070230914B
:1037C0000802309379072093780720910502309101
:1037D00006022115310541F42DB73EB7409109028B
:1037E00050910A02241B350BE0917807F09179077C
:1037F000E217F307A0F42E1B3F0B2817390778F0C8
:10380000AC014E5F5F4F2417350748F04E0F5F1F26
:1038100050937907409378078193919302C0E0E039
:10382000F0E0CF01DF91CF911F910F910895CF93D9
:10383000DF93009709F481C0FC0132971382128252
:10384000A0917A07B0917B07109781F42081318194
:10385000820F931F20917807309179072817390735
:1038600051F5F0937907E093780767C0ED0120E008
:1038700030E0CE17DF0740F44A815B819E0141159D
:103880005105F1F0EA01F5CFD383C2834081518124
:10389000840F951FC817D90759F488819981840F1F
:1038A000951F0296918380838A819B819383828373
:1038B0002115310529F4F0937B07E0937A073DC089
:1038C000E901FB83EA8349915991C40FD51FEC1795
:1038D000FD0761F480819181840F951F0296E901B3
:1038E00099838883828193819B838A83E0E0F0E0DF
:1038F00012968D919C911397009719F0FD01DC01B0
:10390000F7CF8D919C9111979D012E5F3F4F820FB4
:10391000931F20917807309179072817390769F4A8
:10392000309729F410927B0710927A0702C0138215
:103930001282B0937907A0937807DF91CF91089511
:103940006F927F928F929F92AF92BF92CF92DF92AF
:10395000EF92FF920F931F93CF93DF93009781F421
:10396000CB01DF91CF911F910F91FF90EF90DF90EE
:10397000CF90BF90AF909F908F907F906F90BFCE71
:10398000FC01E60FF71F9C0122503109E217F307F3
:1039900008F4A5C0EC01D9010D911C9111970617EF
:1039A0001707A8F00530110508F497C0C80104975F
:1039B0008617970708F491C002501109061B170BD0
:1039C000019311936D937C93CF0131DF86C05B012E
:1039D000A01AB10A4C01800E911EA0917A07B091F5
:1039E0007B07612C712CE12CF12C109709F446C057
:1039F0008D919C911197A815B905B1F56C0142E024
:103A0000C40ED11CCA14DB0478F14C018A189B083F
:103A1000640142E0C40ED11C1296BC90129713961A
:103A2000AC91B5E0CB16D10440F0B282A383918271
:103A30008082D9016D937C9309C00E5F1F4F800F68
:103A4000911FF90191838083EB2DFA2FE114F1048A
:103A500031F0D7011396FC93EE9312973EC0F0938A
:103A60007B07E0937A0739C06816790608F43C01B1
:103A70007D0112960D90BC91A02DB7CF8091780753
:103A80009091790788169906E1F466167706C8F4CE
:103A90008091050290910602009741F48DB79EB780
:103AA0004091090250910A02841B950BE817F9070F
:103AB000B0F4F0937907E0937807F901718360839C
:103AC0000CC0CB011CDE7C01009749F0A801BE01AF
:103AD0001BD0CE01ACDEC70104C0CE0102C080E025
:103AE00090E0DF91CF911F910F91FF90EF90DF90C9
:103AF000CF90BF90AF909F908F907F906F900895E0
:103B000081E090E0F89419C0FB01DC0102C0019053
:103B10000D9241505040D8F70895FB01DC018D9182
:103B2000019080190110D9F3990B0895FB01DC0174
:0E3B300001900D920020E1F70895F894FFCF68
:103B3E00FF0000803F00007C078000FF00000000B7
:103B4E0070022A0F6101BC029201700184012C31B6
:103B5E00002C32002C33002C230067616D6520731E
:103B6E00746174653A200047414D455F4F5645528A
:103B7E0000504C4159494E4700202020206372616D
:103B8E006E652073746174653A2000434154434856
:103B9E00494E47205052495A45002A2A2A2A2A2A93
:103BAE002A2A2A2A2A2A484153205052495A453A4B
:103BBE002000504C4159494E475F574954485F5079
:103BCE0052494345004C4F5345525F52455452495A
:103BDE004556494E470057494E4E45525F52455441
:103BEE0052494556494E470044524F50494E4700A0
:103BFE00574149545F464F525F5052495A453A20F9
:103C0E00006E6F6E6500706C6179696E6700776F1C
:103C1E006E0030303023004C6F737400313131231D
:103C2E00004F70656E696E6720736C696465005332
:103C3E004520414252494F204C4120505545525447
:103C4E004100534520434552524F204C4120505580
:103C5E00455254410045737461646F206E6F207637
:103C6E00616C69646F004E6F2073652070756564BA
:103C7E00652064652063616D6269617220646520F0
:103C8E0065737461646F206D69656E747261732003
:103C9E006573746120636F727269656E646F2075EF
:103CAE006E2065737461646F206175746F6D6174DD
:103CBE0069636F00212121207374617465206E6F1A
:103CCE002076616C69646F000D0A0020202020436D
:103CDE0072616E6520646174613A0020202020209C
:103CEE0020202073746174653A200020202020204B
:103CFE0020202078706F733A200020202020202072
:103D0E00202079706F733A20002020202020202060
:103D1E0020784C61737456656C3A20002020202068
:103D2E0020202020794C61737456656C3A20002057
:103D3E0020202020202020784375727256656C3A20
:103D4E0020002020202020202020794375727256DA
:103D5E00656C3A20002020202020202020202020CA
:103D6E00207854696D653A200020202020202020E4
:103D7E0020202020207954696D653A2000202020D3
:103D8E00202020202073686F756C645265747269F0
:103D9E007665583A200020202020202020207368AD
:103DAE006F756C6452657472697665593A2000615C
:103DBE0031004D6F76696E6720746F2074686520D0
:103DCE006C656674006130007331004D6F76696EFC
:103DDE0067206261636B77617264007330006431D7
:103DEE00004D6F76696E6720746F2074686520725F
:103DFE0069677468006430007731004D6F76696EC4
:103E0E006720666F727761726400773000636100BD
:103E1E004361746368696E670064720044726F7008
:103E2E00696E6700484F4C4100534552564F205023
:103E3E00494E3A2000512E312E303000512E302E68
:103E4E00323500512E302E3530005374617274208D
:103E5E0067616D65003737373737373737230000DF
:020000023000CC
:10E000000D9489F10D94B2F10D94B2F10D94B2F129
:10E010000D94B2F10D94B2F10D94B2F10D94B2F1F0
:10E020000D94B2F10D94B2F10D94B2F10D94B2F1E0
:10E030000D94B2F10D94B2F10D94B2F10D94B2F1D0
:10E040000D94B2F10D94B2F10D94B2F10D94B2F1C0
:10E050000D94B2F10D94B2F10D94B2F10D94B2F1B0
:10E060000D94B2F10D94B2F10D94B2F10D94B2F1A0
:10E070000D94B2F10D94B2F10D94B2F10D94B2F190
:10E080000D94B2F10D94B2F10D94B2F10D94B2F180
:10E090000D94B2F10D94B2F10D94B2F10D94B2F170
:10E0A0000D94B2F10D94B2F10D94B2F10D94B2F160
:10E0B0000D94B2F10D94B2F10D94B2F10D94B2F150
:10E0C0000D94B2F10D94B2F10D94B2F10D94B2F140
:10E0D0000D94B2F10D94B2F10D94B2F10D94B2F130
:10E0E0000D94B2F141546D656761323536300041AF
:10E0F000726475696E6F206578706C6F72657220DE
:10E1000073746B3530305632206279204D4C530099
:10E11000426F6F746C6F616465723E004875683F52
:10E1200000436F6D70696C6564206F6E203D200048
:10E130004350552054797065202020203D20005FF9
:10E140005F4156525F415243485F5F3D2000415658
:10E1500052204C696243205665723D20004743437C
:10E160002056657273696F6E203D20004350552024
:10E1700049442020202020203D20004C6F7720663D
:10E18000757365202020203D20004869676820665F
:10E190007573652020203D200045787420667573D6
:10E1A00065202020203D20004C6F636B2066757336
:10E1B000652020203D20004D617220203720323024
:10E1C000313300312E362E3800342E332E350056A2
:10E1D00023202020414444522020206F7020636F70
:10E1E00064652020202020696E73747275637469E1
:10E1F0006F6E2061646472202020496E74657272B3
:10E20000757074006E6F20766563746F7200726A49
:10E210006D702020006A6D70200057686174207056
:10E220006F72743A00506F7274206E6F7420737541
:10E2300070706F72746564004D7573742062652030
:10E2400061206C6574746572002000577269747483
:10E25000696E672045450052656164696E672045B7
:10E26000450045452065727220636E743D00504F35
:10E27000525400303D5A65726F2061646472003FF1
:10E280003D43505520737461747300403D454550C3
:10E29000524F4D207465737400423D426C696E6B41
:10E2A000204C454400453D44756D70204545505215
:10E2B0004F4D00463D44756D7020464C415348001B
:10E2C000483D48656C70004C3D4C69737420492F83
:10E2D0004F20506F72747300513D51756974005234
:10E2E0003D44756D702052414D00563D73686F7707
:10E2F00020696E7465727275707420566563746FF0
:10E30000727300593D506F727420626C696E6B00BD
:10E310002A0011241FBECFEFD1E2DEBFCDBF01E046
:10E320000CBF12E0A0E0B2E0EEE1FDEF03E00BBFB6
:10E3300002C007900D92A030B107D9F712E0A0E01B
:10E34000B2E001C01D92AE30B107E1F70F9460F367
:10E350000D948DFE01E20EBF0FEF0DBF11241FBE05
:10E360000D9460F30D9400F020E030E040ED57E0B4
:10E3700005C0FA013197F1F72F5F3F4F2817390792
:10E38000C0F308959C01260F311DC901A0E0B0E043
:10E390002F5F3F4FABBFFC018791882361F08093D3
:10E3A000C6008091C00086FFFCCF8091C0008064D1
:10E3B0008093C000EACF08958DE08093C6008091DD
:10E3C000C00086FFFCCF8091C00080648093C000B5
:10E3D0008AE08093C6008091C00086FFFCCF8091C8
:10E3E000C00080648093C00008950F94C2F10F9420
:10E3F000DCF10895FC019081992359F09093C600B7
:10E400008091C00086FFFCCF8091C0008064809323
:10E41000C0003196992379F70895282F982F929567
:10E420009F70892F805D8A3308F0895F8093C600D2
:10E430008091C00086FFFCCF8091C00080648093F3
:10E44000C000822F8F70982F905D9A3308F0995FEB
:10E450009093C6008091C00086FFFCCF8091C000E1
:10E4600080648093C00008959C01FB01853691056E
:10E470001CF46330710594F0C90164E670E00F94F8
:10E480002EFE605D7F4F6093C6008091C00086FFC6
:10E49000FCCF8091C00080648093C0002B30310598
:10E4A00014F43297B4F0C90164E670E00F942EFEC4
:10E4B0006AE070E00F942EFE605D7F4F6093C600AF
:10E4C0008091C00086FFFCCF8091C0008064809363
:10E4D000C000C9016AE070E00F942EFEC0968093E0
:10E4E000C6008091C00086FFFCCF8091C000806490
:10E4F0008093C00008951F93182F8EE692EE60E07F
:10E500000F94C2F11093C6008091C00086FFFCCF2B
:10E510008091C00080648093C0000F94DCF11F9153
:10E5200008952F923F924F925F926F927F928F92B7
:10E530009F92AF92BF92CF92DF92EF92FF920F9392
:10E540001F93DF93CF93CDB7DEB762970FB6F894E2
:10E55000DEBF0FBECDBF382E622ECA01DB015C01CB
:10E560006D01772420E2222E2E010894411C511CBB
:10E570008BC081E0A81680E0B80681E0C80680E084
:10E58000D80628F0C601AA27BB270F940DF2BB2797
:10E59000AD2D9C2D8B2D0F940DF28A2D0F940DF225
:10E5A0002092C6008091C00086FFFCCF8091C00001
:10E5B00080648093C0009DE29093C6008091C0006B
:10E5C00086FFFCCF8091C00080648093C0002092C1
:10E5D000C6008091C00086FFFCCF8091C00080649F
:10E5E0008093C00019828601750188249924A1E0D6
:10E5F0003A1651F03A1620F0B2E03B1661F409C029
:10E600000BBFF701779007C0C7010F9477FE782EF4
:10E6100002C0F7017080872D0F940DF22092C60082
:10E620008091C00086FFFCCF8091C0008064809301
:10E63000C000872D8052F401EF70F0708F3520F408
:10E64000E40DF51D708204C0E40DF51D8EE280839B
:10E650000894E11CF11C011D111D0894811C911CE2
:10E6600090E18916910409F0C2CF80E190E0A0E02A
:10E67000B0E0A80EB91ECA1EDB1E198AC2010F9493
:10E68000FAF10F94DCF16A94662009F072CF629679
:10E690000FB6F894DEBF0FBECDBFCF91DF911F91B3
:10E6A0000F91FF90EF90DF90CF90BF90AF909F9031
:10E6B0008F907F906F905F904F903F902F90089534
:10E6C0002F923F924F925F926F927F928F929F9282
:10E6D000AF92BF92CF92DF92EF92FF920F931F9370
:10E6E000DF93CF93CDB7DEB7CD53D1400FB6F894BB
:10E6F000DEBF0FBECDBF01E20EBF0FEF0DBF94B75F
:10E70000F894A89514BE80916000886180936000A1
:10E7100010926000789493FF05C0E0910002F091A0
:10E7200001021995279A2F9A8091C00082608093E8
:10E73000C00080E18093C40088E18093C1000000A4
:10E74000EE24FF24870144E0A42EB12CCC24DD2448
:10E7500024C0C5010197F1F70894E11CF11C011DCB
:10E76000111D21E2E2162EE4F20620E0020720E06D
:10E77000120718F031E0C32ED12CC801B70127ECE5
:10E780003BE140E050E00F9441FE611571058105C9
:10E79000910519F485B1805885B98091C00087FD35
:10E7A00003C0C114D104A9F2A6014F5F5F4FC25E3E
:10E7B000DE4F59834883CE51D140C25EDE4F8881FF
:10E7C0009981CE51D140019711F00D9410FEC05D9A
:10E7D000DE4F19821882C053D14060E0C15DDE4F28
:10E7E0001882CF52D14088249924C35DDE4F19820C
:10E7F0001882CD52D140C05EDE4F188219821A8233
:10E800001B82C052D140CE5CDE4F188219821A8220
:10E810001B82C253D140EE24FF2487010BBFF701B6
:10E8200007911691C45CDE4F19830883CC53D14005
:10E830000D940BFEC25EDE4F28813981CE51D1404E
:10E840002130310509F52091C600C25EDE4F1982E4
:10E850001882CE51D14022C02F5F3F4F4F4F5F4FA4
:10E86000213082E138078AE7480780E0580780F0C6
:10E87000C45CDE4FE881F981CC53D140EF5FFF4F9C
:10E8800019F0EE27FF27099420E030E040E050E047
:10E890008091C00087FFE0CF2091C600C35DDE4FAE
:10E8A00048815981CD52D1404F5F5F4FC35DDE4FEC
:10E8B00059834883CD52D140213209F063C64A3092
:10E8C000510508F05FC60894811C911C53E0851621
:10E8D000910409F059C600E010E018C081E280936D
:10E8E000C6008091C00086FFFCCF8091C00080648C
:10E8F0008093C0002F5F3F4F2931310579F70F9486
:10E90000DCF10F5F1F4F0530110519F020E030E0FA
:10E91000E5CF10920A0210920B0210920C02109294
:10E920000D02109206021092070210920802109235
:10E930000902109202021092030210920402109235
:10E9400005028FEE90EE60E00F94F5F180E191EE1C
:10E9500060E00F94C2F18091C00087FFFCCF9091DE
:10E96000C600903608F09F759032B8F09093C600BC
:10E970008091C00086FFFCCF8091C00080648093AE
:10E98000C000A0E2A093C6008091C00086FFFCCF2B
:10E990008091C00080648093C000983409F4D7C18E
:10E9A0009934B8F4923409F459C1933458F490333B
:10E9B00019F1903308F4E3C59F33A1F1903409F0C5
:10E9C000DEC5BDC0953409F470C1963409F0D7C5D1
:10E9D00098C1923509F42BC2933538F49C3409F46C
:10E9E000F5C1913509F0CBC518C2963509F445C279
:10E9F000993509F0C4C567C483E792EE62E00F94CD
:10EA0000F5F110920602109207021092080210927D
:10EA1000090210920A0210920B0210920C0210923C
:10EA20000D0213C18FE792EE62E00F94F5F18FEEC5
:10EA300090EE60E00F94F5F181E291EE60E00F94CA
:10EA4000C2F187EB91EE60E00F94F5F180E391EE77
:10EA500060E00F94C2F184EE90EE60E00F94F5F167
:10EA60008FE391EE60E00F94C2F186E090E061E008
:10EA700070E00F9434F20F94DCF18DE591EE60E0DC
:10EA80000F94C2F189EC91EE60E00F94F5F18EE401
:10EA900091EE60E00F94C2F183EC91EE60E00F9490
:10EAA000F5F18CE691EE60E00F94C2F18EE10F94E7
:10EAB0000DF288E90F940DF281E00F940DF20F949E
:10EAC000DCF18BE791EE60E00F94C2F119E0E0E039
:10EAD000F0E010935700E4918E2F0F940DF20F94F5
:10EAE000DCF18AE891EE60E00F94C2F1E3E0F0E03F
:10EAF00010935700E4918E2F0F940DF20F94DCF1D8
:10EB000089E991EE60E00F94C2F1E2E0F0E0109349
:10EB10005700E4918E2F0F940DF20F94DCF188EAE8
:10EB200091EE60E00F94C2F1E1E0F0E01093570045
:10EB30001491812F0F940DF20F94DCF107CF8BE825
:10EB400092EE62E00F94F5F18BE492EE60E00F94A8
:10EB5000F5F10F94DCF100E010E019C0C8016F2D51
:10EB60000F947FFEFF2031F489E492EE60E00F9471
:10EB7000C2F10BC0F092C6008091C00086FFFCCFAE
:10EB80008091C00080648093C0000F5F1F4FC80158
:10EB900081519F41A0E0B0E0ABBFFC01F790BAE229
:10EBA000FB1621F0E2E000301E07C1F60F94DCF105
:10EBB0000F94DCF187E592EE60E00F94F5F10F948D
:10EBC000DCF1CC24DD2400E010E01EC0C8010F946D
:10EBD00077FEF82E882331F489E492EE60E00F94FA
:10EBE000C2F10BC08093C6008091C00086FFFCCFAD
:10EBF0008091C00080648093C000FE1419F00894D6
:10EC0000C11CD11C0F5F1F4FC80181519F41A0E063
:10EC1000B0E0ABBFFC01E790FAE2EF1621F022E092
:10EC20000030120799F60F94DCF10F94DCF182E6C4
:10EC300092EE60E00F94C2F1C60161E070E00F94C3
:10EC400034F20F94DCF10F94DCF110920202109276
:10EC50000302109204021092050278CE89E992EE26
:10EC600062E00F94F5F1279A2F9A16C02F9880E052
:10EC700090E0E0EDF7E03197F1F7019684369105E9
:10EC8000C1F72F9A80E090E0E0EDF7E03197F1F7DF
:10EC9000019684369105C1F78091C00087FFE6CFC9
:10ECA0008091C00087FFFCCF64C485EA92EE62E0E9
:10ECB0000F94F5F140910202509103026091040219
:10ECC0007091050281E020E10F9491F2809102029F
:10ECD00090910302A0910402B091050280509F4FD1
:10ECE000AF4FBF4F8093020290930302A0930402A0
:10ECF000B093050280509041A040B04008F426CE69
:10ED0000A4CF83EB92EE62E00F94F5F140910602FE
:10ED100050910702609108027091090280E020E1A1
:10ED20000F9491F28091060290910702A09108023F
:10ED3000B091090280509F4FAF4FBF4F80930602A2
:10ED400090930702A0930802B0930902FFCD80ECD4
:10ED500092EE62E00F94F5F183E792EE60E00F949B
:10ED6000F5F18FE792EE60E00F94F5F18BE892EE0B
:10ED700060E00F94F5F189E992EE60E00F94F5F10F
:10ED800085EA92EE60E00F94F5F183EB92EE60E09D
:10ED90000F94F5F180EC92EE60E00F94F5F187ECC2
:10EDA00092EE60E00F94F5F188ED92EE60E00F9442
:10EDB000F5F18FED92EE60E00F94F5F18AEE92EEB0
:10EDC00060E00F94F5F183E093EEBDCD87EC92EE19
:10EDD00062E00F94F5F181E40F947BF282E40F94EA
:10EDE0007BF283E40F947BF284E40F947BF285E45E
:10EDF0000F947BF286E40F947BF287E40F947BF20E
:10EE000088E40F947BF28AE40F947BF28BE40F94F6
:10EE10007BF28CE40F947BF299CD88ED92EE62E068
:10EE20000F94F5F1772473948824992409C48FED05
:10EE300092EE62E00F94F5F140910A0250910B02BC
:10EE400060910C0270910D0282E020E10F9491F22A
:10EE500080910A0290910B02A0910C02B0910D02D8
:10EE600080509F4FAF4FBF4F80930A0290930B0289
:10EE7000A0930C02B0930D0269CD8AEE92EE62E08F
:10EE80000F94F5F184EE90EE60E00F94F5F18FECC5
:10EE900091EE60E00F94F5F1662477244301CC5D98
:10EEA000DE4F19821882C452D140D401C301B695F5
:10EEB000A79597958795CA5DDE4F88839983AA8326
:10EEC000BB83C652D140CC5DDE4FA881B981C4520C
:10EED000D1401196CC5DDE4FB983A883C452D14096
:10EEE000CD0162E070E00F9434F2B0E2B093C6005E
:10EEF0008091C00086FFFCCF8091C0008064809329
:10EF0000C000EDE2E093C6008091C00086FFFCCF18
:10EF10008091C00080648093C000F0E2F093C6004E
:10EF20008091C00086FFFCCF8091C00080648093F8
:10EF3000C000CA5DDE4FE880F9800A811B81C6529D
:10EF4000D140BB27A12F902F8F2D0F940DF2CA5DBA
:10EF5000DE4F8881C652D1400F940DF2B0E2FB2EF5
:10EF6000F092C6008091C00086FFFCCF8091C00067
:10EF700080648093C0000DE30093C6008091C000C0
:10EF800086FFFCCF8091C00080648093C00010E2B7
:10EF90001093C6008091C00086FFFCCF8091C00016
:10EFA00080648093C0008BBEF3012791C65DDE4F65
:10EFB0002883CA52D140A22EBB24CC24DD2408943D
:10EFC000611C711C811C911C8BBEF3018791282E42
:10EFD0003324442455240894611C711C811C911C09
:10EFE0008BBEF3013791C55DDE4F3883CB52D140E4
:10EFF0000894611C711C811C911C8BBEF30147910C
:10F00000C45DDE4F4883CC52D140ADEFEA2EAFEF66
:10F01000FA2EAFEF0A2FAFEF1A2F6E0C7F1C801E57
:10F02000911E142D032DF22CEE24EA0CFB1C0C1D5A
:10F030001D1D0F940DF220E22093C6008091C000A8
:10F0400086FFFCCF8091C00080648093C000C65DC5
:10F05000DE4F8881CA52D1400F940DF230E23093D6
:10F06000C6008091C00086FFFCCF8091C000806404
:10F070008093C000C45DDE4F8881CC52D1400F9494
:10F080000DF240E24093C6008091C00086FFFCCFA5
:10F090008091C00080648093C000C55DDE4F888190
:10F0A000CB52D1400F940DF250E25093C6008091A4
:10F0B000C00086FFFCCF8091C00080648093C000B8
:10F0C0008FEFE8168FEFF80680E0080780E018075A
:10F0D00031F484E092EE60E00F94C2F1DFC0D80119
:10F0E000C7018070907CA070B0708050904CA040A0
:10F0F000B040D1F52FEF3FE340E050E0E222F322B1
:10F1000004231523CA5DDE4FA880B980CA80DB8046
:10F11000C652D140AE0CBF1CC01ED11EAA0CBB1CD7
:10F12000CC1CDD1C8EE092EE60E00F94C2F1BB2798
:10F13000A12F902F8F2D0F940DF28E2D0F940DF285
:10F1400030E23093C6008091C00086FFFCCF8091F2
:10F15000C00080648093C0004EE34093C60080915D
:10F16000C00086FFFCCF87C08EE09EEFA0E0B0E03D
:10F17000E822F9220A231B239CE0E91694E9F90608
:10F1800090E0090790E0190709F088C0C45DDE4FE0
:10F19000A881CC52D140EA2EFF2400E010E0102FCD
:10F1A0000F2DFE2CEE24C55DDE4FB881CB52D14031
:10F1B000EB0EF11C011D111DD601C501817090706F
:10F1C000A070B070DC0199278827E80EF91E0A1F8D
:10F1D0001B1F20EF30E040E050E0A222B322C42207
:10F1E000D52241E1AA0CBB1CCC1CDD1C4A95D1F7F1
:10F1F000EA0CFB1C0C1D1D1D81E090E0A0E0B0E0BE
:10F20000282239224A225B2235E1220C331C441C7D
:10F21000551C3A95D1F7E20CF31C041D151D57013E
:10F220006801AA0CBB1CCC1CDD1C85E192EE60E0E1
:10F230000F94C2F1C801AA27BB270F940DF2BB2778
:10F24000A12F902F8F2D0F940DF28E2D0F940DF274
:10F2500090E29093C6008091C00086FFFCCF809121
:10F26000C00080648093C000AEE3A093C60080918C
:10F27000C00086FFFCCF8091C00080648093C000F6
:10F28000C601AA27BB270F940DF2BB27AD2D9C2DDD
:10F290008B2D0F940DF28A2D0F940DF20F94DCF14B
:10F2A000CC5DDE4FE881F981C452D140F99709F471
:10F2B0004DCBF4E0EF2EF12C012D112D6E0C7F1CA7
:10F2C000801E911EF2CD83E093EE62E00F94F5F183
:10F2D0008AE192EE60E00F94C2F18091C00087FF56
:10F2E000FCCF1091C6001F751093C6008091C0001E
:10F2F00086FFFCCF8091C00080648093C0000F9493
:10F30000DCF1812F81548A3108F036C1163409F4BA
:10F3100095C0173490F4133409F44EC0143430F40B
:10F320001134F1F0123409F01DC130C0143409F465
:10F3300059C0153409F016C16BC01A3409F4C4C0A1
:10F340001B3438F4173409F48FC0183409F00AC19B
:10F35000A1C01B3409F4D2C01C3409F003C1E8C0B9
:10F360008FEF81B90DC082B1809582B980E090E0C5
:10F37000E0EDF7E03197F1F70196883C9105C1F790
:10F380008091C00087FFEFCF12B8EFC08FEF84B934
:10F390000DC085B1809585B980E090E0E0EDF7E0A3
:10F3A0003197F1F70196883C9105C1F78091C00033
:10F3B00087FFEFCF15B8D9C08FEF87B90DC088B1DF
:10F3C000809588B980E090E0E0EDF7E03197F1F7C3
:10F3D0000196883C9105C1F78091C00087FFEFCF6F
:10F3E00018B8C3C08FEF8AB90DC08BB180958BB9A7
:10F3F00080E090E0E0EDF7E03197F1F70196883C8E
:10F400009105C1F78091C00087FFEFCF1BB8ADC059
:10F410008FEF8DB90DC08EB180958EB980E090E0F0
:10F42000E0EDF7E03197F1F70196883C9105C1F7DF
:10F430008091C00087FFEFCF1EB897C08FEF80BBD1
:10F440000DC081B3809581BB80E090E0E0EDF7E0F6
:10F450003197F1F70196883C9105C1F78091C00082
:10F4600087FFEFCF11BA81C08FEF83BB0DC084B38C
:10F47000809584BB80E090E0E0EDF7E03197F1F714
:10F480000196883C9105C1F78091C00087FFEFCFBE
:10F4900014BA6BC08FEF809301010FC080910201FD
:10F4A00080958093020180E090E0E0EDF7E03197F5
:10F4B000F1F70196883C9105C1F78091C00087FF64
:10F4C000EDCF1092020151C08FEF809304010FC065
:10F4D0008091050180958093050180E090E0E0ED4A
:10F4E000F7E03197F1F70196883C9105C1F78091DB
:10F4F000C00087FFEDCF1092050137C08FEF8093DA
:10F5000007010FC08091080180958093080180E079
:10F5100090E0E0EDF7E03197F1F70196883C910536
:10F52000C1F78091C00087FFEDCF109208011DC088
:10F530008FEF80930A010FC080910B01809580931B
:10F540000B0180E090E0E0EDF7E03197F1F70196F4
:10F55000883C9105C1F78091C00087FFEDCF1092E4
:10F560000B0103C085E292EEEEC98091C00087FFD7
:10F57000FCCF8091C600EAC988E392EEE4C98CE131
:10F5800091EEE1C988249924933011F1943028F444
:10F59000913089F09230B8F408C0953061F195301F
:10F5A000F0F0963009F048C043C02B3109F042C951
:10F5B00091E06BE13FC96227C15DDE4F2883CF52E6
:10F5C000D14092E037C9B22FA0E0622793E032C960
:10F5D000822F90E0A82BB92B622794E02BC92E3004
:10F5E00009F039C3622795E0C05DDE4F19821882A9
:10F5F000C053D1401FC9E1E0F0E0EC0FFD1FC05D3A
:10F60000DE4F08811981C053D140E00FF11F2083E4
:10F610000F5F1F4FC05DDE4F19830883C053D14079
:10F6200062270A171B0709F005C9D80196E002C92D
:10F63000261709F010C303C0973009F0FBC87724E0
:10F640009981933109F412C19431C8F4963009F4C8
:10F65000D8C0973050F4923009F406C1933009F4C1
:10F660006DC0913009F059C253C0913109F477C08F
:10F67000923108F0BBC0903109F04FC2F5C098310B
:10F6800009F487C0993150F4953109F4EFC09531F0
:10F6900008F4C6C1963109F040C2C2C19A3109F4DA
:10F6A0006CC09A3108F491C09B3109F45BC09D3164
:10F6B00009F033C29D81903359F48F81882311F46E
:10F6C0009EE11CC0813011F091E018C098E916C08D
:10F6D000892F807591F0903539F4E0E0F0E089E011
:10F6E0008093570094910AC0983539F4E3E0F0E034
:10F6F00089E080935700949101C090E01A821B82A8
:10F700008D818C831D829E831F8227E030E009C299
:10F710001A8288E08B8381E48C8386E58D8382E581
:10F720008E8389E48F8383E5888780E589878FE5E9
:10F730008A8782E38B872BE030E0F3C18A818139AD
:10F7400041F0823941F0803911F48FE005C080E04A
:10F7500003C082E001C08AE01A828B8344C0772410
:10F76000739482C08D81882311F48EE12CC0813086
:10F7700011F081E028C088E926C01A82E1E0F0E0BB
:10F7800089E08093570084918B831C8224E030E0D1
:10F79000C8C18B81803589F48C81883039F4E2E0EE
:10F7A000F0E089E08093570084910DC0E0E0F0E044
:10F7B00089E080935700849106C0E3E0F0E089E09F
:10F7C0008093570084911A82DFCF8D81836C99E0FA
:10F7D000E1E0F0E0082E90935700E89507B600FCB2
:10F7E000FDCF1A821B8223E030E09BC180EC8A832C
:10F7F000CE5CDE4F188219821A821B82C253D1401E
:10F800008EC18A8190E0A0E0B0E0582F44273327D2
:10F8100022278B8190E0A0E0B0E0DC0199278827C7
:10F82000282B392B4A2B5B2B8D8190E0A0E0B0E098
:10F83000282B392B4A2B5B2B8C8190E0A0E0B0E089
:10F84000BA2FA92F982F8827282B392B4A2B5B2BCF
:10F85000220F331F441F551FC05EDE4F288339839C
:10F860004A835B83C052D1401A8259C13A81C95C34
:10F87000DE4F3883C753D140CA5CDE4F1882C6536F
:10F88000D1408B81C82EDD24CA5CDE4F488159816E
:10F89000C653D140C42AD52A933109F082C0CE5C28
:10F8A000DE4F88819981AA81BB81C253D1408050AB
:10F8B000904CA340B04030F583E0CE5CDE4FE88052
:10F8C000F9800A811B81C253D140F70100935B008C
:10F8D00080935700E89507B600FCFDCFCE5CDE4F65
:10F8E000088119812A813B81C253D14000501F4FAA
:10F8F0002F4F3F4FCE5CDE4F088319832A833B8313
:10F90000C253D140C05EDE4F488159816A817B81FC
:10F91000C052D140DE011B9631E08C9111962C91A2
:10F9200011971296C75CDE4F2883C953D140C85C3B
:10F93000DE4F1882C853D14090E0C85CDE4FE881AA
:10F94000F981C853D1408E2B9F2B0C01FA01609393
:10F950005B0030935700E89511244E5F5F4F6F4F67
:10F960007F4F0EEFE02E0FEFF02ECE0CDF1CC114F8
:10F97000D10499F685E0C05EDE4F088119812A81A5
:10F980003B81C052D140F80120935B008093570027
:10F99000E89507B600FCFDCF81E180935700E8951C
:10F9A00035C0C05EDE4F88819981AA81BB81C0527B
:10F9B000D140B695A795979587957C018601ABE0D8
:10F9C000AA2EB12CAC0EBD1E0BC0D5016D915D01F0
:10F9D000C7010F947FFE0894E11CF11C01501040F8
:10F9E0000115110591F7A60160E070E0440F551F65
:10F9F000661F771FC05EDE4FE880F9800A811B8199
:10FA0000C052D1404E0D5F1D601F711F1A82C05E33
:10FA1000DE4F488359836A837B83C052D1407FC0C5
:10FA2000FA80C55CDE4FF882CB53D140C65CDE4F16
:10FA30001882CA53D1408B81C82EDD24C65CDE4FAC
:10FA400008811981CA53D140C02AD12A1A828981DA
:10FA5000BE016D5F7F4F843121F59601C05EDE4FA0
:10FA6000E880F9800A811B81C052D1400BBFF701A9
:10FA700087919691DB018C9311969C936E5F7F4FDB
:10FA8000D801C7010296A11DB11DC05EDE4F88835B
:10FA90009983AA83BB83C052D14022503040F1F6F3
:10FAA00036C0C05EDE4F288139814A815B81C052F9
:10FAB000D1400894C108D108760100E010E0089414
:10FAC000C11CD11C0894E11CF11C011D111DE20E8A
:10FAD000F31E041F151F21BDBB27A52F942F832FB5
:10FAE00082BD2F5F3F4F4F4F5F4FF89A80B5DB01CC
:10FAF0008D93BD012E153F054007510761F7C05E8C
:10FB0000DE4F288339834A835B83C052D1409601FC
:10FB10002D5F3F4FFB01108204C080EC8A8322E0FE
:10FB200030E08BE18093C6008091C00086FFFCCF5F
:10FB30008091C00080648093C000C15DDE4FF88179
:10FB4000CF52D140F093C6008091C00086FFFCCF19
:10FB50008091C00080648093C000432F3093C60022
:10FB60008091C00086FFFCCF8091C00080648093AC
:10FB7000C000922F2093C6008091C00086FFFCCF6A
:10FB80008091C00080648093C0008EE08093C600A6
:10FB90008091C00086FFFCCF8091C000806480937C
:10FBA000C00065E1C15DDE4FE880CF52D1406E25D7
:10FBB00069276427FE01319610C090819093C6009A
:10FBC0008091C00086FFFCCF31968091C000806498
:10FBD0008093C0006927215030402115310569F715
:10FBE0006093C6008091C00086FFFCCF8091C0006A
:10FBF00080648093C00085B1805885B9772081F4F6
:10FC0000C15DDE4F0881CF52D1400F5FC15DDE4F35
:10FC10000883CF52D14090E0A0E0B0E00D941AF4F8
:10FC200027982F9880E090E020ED37E0F901319798
:10FC3000F1F7019684369105C9F700008091C00064
:10FC40008D7F8093C00081E180935700E895EE2777
:10FC5000FF270994FFCF90E00D941AF497FB092E2B
:10FC600007260AD077FD04D02ED006D000201AF443
