:100000002EC100005DC100005BC1000059C10000AD
:1000100057C1000055C1000053C1000051C100008C
:100020004FC100004DC100004BC1000049C100009C
:1000300047C100000C94AC0E43C1000041C1000058
:100040003FC1000043C600003BC1000039C10000B1
:1000500037C1000035C1000033C1000066C5000093
:100060002FC100000BC30000E0C2000029C1000046
:1000700027C1000025C1000023C1000021C10000EC
:10008000F8C500001DC100001BC1000019C100001F
:1000900017C1000015C1000013C1000011C100000C
:1000A0000FC100000DC10000B7C5000009C100006C
:1000B00007C1000005C1000003C1000080C50000A9
:1000C000FFC00000FDC00000FBC00000F9C0000040
:1000D000F7C00000F5C00000F3C00000F1C0000050
:1000E000EFC000008D0290027F0283028902C702E6
:1000F000940298029E02A202A602AC02B002B402CE
:10010000C702BA02BE02C202CA04CF04D404DE048B
:10011000E8046105F204FA0402050C051605200541
:100120002F053905610543054D05570584106A11F2
:10013000E5105C11B41191119F1100002100240001
:1001400027002A002D0030003300010100000401C7
:1001500007010A01000020002300260029002C00CE
:100160002F00320000010000030106010901000018
:100170000A0B02090C0D0E08070304010000000021
:10018000000000000000000000000000000000006F
:10019000000000000000000000001211100000002C
:1001A000000000000000000000000000000000004F
:1001B000000000000102102020080810204010203C
:1001C000408002010201080402010102040810201B
:1001D0004080804020100804020180040201804019
:1001E0002010080402010804020101020408102082
:1001F00040800102040810204080000022002500F9
:1002000028002B002E0031003400020100000501FF
:1002100008010B0105050505070508080808020285
:1002200002020A0A08080404040401010101010190
:1002300001010303030303030303040707070C0C73
:100240000C0C0C0C0C0C020202020606060606063A
:1002500006060B0B0B0B0B0B0B0B02003C121124B5
:100260001FBECFEFD1E2DEBFCDBF00E00CBF14E078
:10027000A0E0B2E0EEEEF8E200E00BBF02C00790B3
:100280000D92A434B107D9F725E0A4E4B4E001C08D
:100290001D92AE3EB207E1F711E0CFE2D1E000E0FF
:1002A00006C021970109802FFE010E946914CE32F9
:1002B000D10780E00807A9F70E944B0F0C94751432
:1002C0009FCE089580E090E00895FC01538D448D09
:1002D000252F30E0842F90E0821B930B541710F0F1
:1002E000CF96089501970895FC01918D828D9817FE
:1002F00061F0828DDF01A80FB11D5D968C91928D0A
:100300009F5F9F73928F90E008958FEF9FEF089506
:10031000FC01918D828D981731F0828DE80FF11DCF
:10032000858D90E008958FEF9FEF0895FC01918DEA
:10033000228D892F90E0805C9F4F821B91098F73E3
:100340009927089580E694E0F1DF21E0892B09F4F4
:1003500020E0822F0895FC01848DDF01A80FB11DDC
:10036000A35ABF4F2C91848D90E001968F739927EB
:10037000848FA689B7892C93A089B1898C918370C9
:1003800080648C93938D848D981306C00288F389C2
:10039000E02D80818F7D80830895EF92FF920F93EF
:1003A0001F93CF93DF93EC0181E0888F9B8D8C8D21
:1003B000981305C0E889F989808185FD25C0F62E4E
:1003C0000B8D10E00F5F1F4F0F731127E02E8C8DE8
:1003D000E8120BC00FB607FCFACFE889F9898081D3
:1003E00085FFF5CFCE01B7DFF2CF8B8DFE01E80F91
:1003F000F11DE35AFF4FF0829FB7F8940B8FEA8903
:10040000FB89808180620AC09FB7F894EE89FF89DA
:100410006083E889F98980818370806480839FBFCD
:1004200081E090E0DF91CF911F910F91FF90EF90CD
:100430000895CF93DF93EC01888D8823C1F0EA897A
:10044000FB89808185FD05C0A889B9898C9186FDCD
:100450000EC00FB607FCF5CF808185FFF2CFA889CB
:10046000B9898C9185FFEDCFCE0175DFE8CFDF91A3
:10047000CF91089580E090E0892B19F063DF81111E
:1004800025C080E090E0892B41F080E090E0892B4E
:1004900021F00E94000081111CC080E090E0892BB7
:1004A00041F080E090E0892B21F00E940000811152
:1004B00013C080E090E0892BA1F080E090E0892BD0
:1004C00081F00E94000081110AC008950E9400007E
:1004D000D8CF0E940000E1CF0E940000EACF0C9428
:1004E0000000089590E0FC013197E231F10508F039
:1004F0004EC08827EE58FF4F8F4F0C94691480919F
:1005000080008F7703C0809180008F7D8093800072
:10051000089580918000877FF9CF84B58F7702C0DE
:1005200084B58F7D84BD08958091B0008F7703C01E
:100530008091B0008F7D8093B000089580919000ED
:100540008F7707C0809190008F7D03C080919000CD
:10055000877F8093900008958091A0008F7707C0D7
:100560008091A0008F7D03C08091A000877F809341
:10057000A0000895809120018F7707C0809120010D
:100580008F7D03C080912001877F80932001089593
:10059000CF93DF93282F30E0F901E259FE4F849189
:1005A000F901EC54FE4FD491F901EC5EFD4FC4917A
:1005B000CC2389F0811196DFEC2FF0E0EE0FFF1FC6
:1005C000EC5AFE4FA591B491EC91ED2381E090E0BF
:1005D00021F480E002C080E090E0DF91CF910895A7
:1005E0003FB7F89480914F0490915004A09151042A
:1005F000B091520426B5A89B05C02F3F19F0019673
:10060000A11DB11D3FBFBA2FA92F982F8827820F98
:10061000911DA11DB11DBC01CD0142E0660F771FE8
:10062000881F991F4A95D1F708951F920F920FB610
:100630000F9211240BB60F922F933F934F935F931A
:100640006F937F938F939F93AF93BF93EF93FF939A
:1006500080E694E080DEFF91EF91BF91AF919F9192
:100660008F917F916F915F914F913F912F910F905B
:100670000BBE0F900FBE0F901F9018951F920F92F8
:100680000FB60F9211240BB60F922F938F939F9357
:10069000EF93FF93E0917004F09171048081E091F9
:1006A0007604F091770482FD12C0908180917904E4
:1006B0008F5F8F7320917A04821751F0E091790453
:1006C000F0E0E05AFB4F958F8093790401C0808160
:1006D000FF91EF919F918F912F910F900BBE0F90F3
:1006E0000FBE0F901F9018951F93CF93DF93282F65
:1006F00030E0F901E259FE4F8491F901EC54FE4FCC
:10070000D491F901EC5EFD4FC491CC23B9F0162FC2
:100710008111E8DEEC2FF0E0EE0FFF1FE650FE4FF8
:10072000A591B4919FB7F894111104C08C91D09504
:10073000D82302C0EC91DE2BDC939FBFDF91CF91D9
:100740001F910895CF92DF92EF92FF920F931F9324
:10075000CF93DF936C018B017A01EC01CA5BDB4F15
:10076000888187FF04C0FB011182108224C02CE025
:100770002C9DC0012D9D900D11242881AC01420FAC
:10078000511D27FD5A9520918D0530E042175307E2
:1007900094F42881AC01420F511D27FD5A959A010E
:1007A000FA01EE0FFF1F2E0F3F1FF901E350FB4F21
:1007B000208126FD19C088818F5F88832CE02C9DC5
:1007C000C0012D9D900D11242881AC01420F511DB7
:1007D00027FD5A9520918D0530E042175307B4F458
:1007E00028812C303CF112C02881820F911D27FDF9
:1007F0009A95FC01EE0FFF1F8E0F9F1FFC01E35027
:10080000FB4F808160E08F736FDFD5CFF80180816F
:100810009181049680349C4918F480E49CE904C0DA
:10082000F801808191810496F701918380838FEF95
:10083000888344C0F801408151812881BC01620F46
:10084000711D27FD7A959B01FB01EE0FFF1F2E0FF7
:100850003F1FF901E350FB4F21813281240F351FE7
:10086000F701318320832881AC01420F511D27FD00
:100870005A959A01FA01EE0FFF1F2E0F3F1FF90143
:10088000E350FB4F208126FF19C02881820F911D64
:1008900027FD9A95FC01EE0FFF1F8E0F9F1FFC0195
:1008A000E350FB4F808161E08F73DF91CF911F9107
:1008B0000F91FF90EF90DF90CF9016CFDF91CF9107
:1008C0001F910F91FF90EF90DF90CF900895CF93FD
:1008D000DF9390E0FC01EC54FE4F2491FC01EC5EB0
:1008E000FD4F8491882361F190E0880F991FFC01EE
:1008F000E65CFE4FC591D491FC01E650FE4FA591F8
:10090000B491611109C09FB7F89488812095822322
:100910008883EC912E230BC0623061F49FB7F8946A
:100920008881322F309583238883EC912E2B2C9352
:100930009FBF06C08FB7F894E8812E2B28838FBF06
:10094000DF91CF9108951F93CF93DF93182FEB0181
:1009500061E0BDDF209711F460E004C0CF3FD10516
:1009600031F461E0812FDF91CF911F91BDCEE12F56
:10097000F0E0E259FE4FE4918E2F90E0FC013197B8
:10098000E231F10508F09DC08827EC57FF4F8F4FEB
:100990000C94691484B5806884BDC7BD97C084B5C4
:1009A000806284BDC8BD92C08091800080688093C1
:1009B0008000D0938900C093880088C08091800017
:1009C000806280938000D0938B00C0938A007EC0A9
:1009D00080918000886080938000D0938D00C093C8
:1009E0008C0074C08091B00080688093B000C09388
:1009F000B3006CC08091B00080628093B000C0935F
:100A0000B40064C080919000806880939000D0937F
:100A10009900C09398005AC08091900080628093A2
:100A20009000D0939B00C0939A0050C0809190009A
:100A3000886080939000D0939D00C0939C0046C036
:100A40008091A00080688093A0008091A0008F7B9F
:100A50008093A000D093A900C093A80037C08091D4
:100A6000A00080628093A000D093AB00C093AA0046
:100A70002DC08091A00088608093A000D093AD002D
:100A8000C093AC0023C08091200180688093200136
:100A9000D0932901C093280119C080912001806260
:100AA00080932001D0932B01C0932A010FC0809125
:100AB0002001886080932001D0932D01C0932C01E8
:100AC00005C0C038D1050CF04CCF46CFDF91CF9197
:100AD0001F910895863308F0865390917B00282F4C
:100AE0002870977F922B90937B008770806480930F
:100AF0007C0080917A00806480937A0080917A00F3
:100B000086FDFCCF809178002091790090E0922BB7
:100B100008952FB7F89460914B0470914C04809124
:100B20004D0490914E042FBF08951F920F920FB65F
:100B30000F9211242F933F938F939F93AF93BF9363
:100B400080914B0490914C04A0914D04B0914E04BF
:100B500030914A0423E0230F2D3720F40196A11D84
:100B6000B11D05C026E8230F0296A11DB11D2093DB
:100B70004A0480934B0490934C04A0934D04B0938B
:100B80004E0480914F0490915004A0915104B09173
:100B900052040196A11DB11D80934F0490935004FF
:100BA000A0935104B0935204BF91AF919F918F9144
:100BB0003F912F910F900FBE0F901F9018951F928D
:100BC0000F920FB60F9211240BB60F922F933F93F3
:100BD0004F935F936F937F938F939F93AF93BF9345
:100BE000EF93FF9348E251E064E271E080E090E02F
:100BF000A9DDFF91EF91BF91AF919F918F917F916F
:100C00006F915F914F913F912F910F900BBE0F907D
:100C10000FBE0F901F9018951F920F920FB60F9254
:100C200011240BB60F922F933F934F935F936F93C3
:100C30007F938F939F93AF93BF93EF93FF9348EA74
:100C400050E064EA70E083E090E07CDDFF91EF919A
:100C5000BF91AF919F918F917F916F915F914F91D4
:100C60003F912F910F900BBE0F900FBE0F901F90D2
:100C700018951F920F920FB60F9211240BB60F9278
:100C80002F933F934F935F936F937F938F939F9394
:100C9000AF93BF93EF93FF9348E950E064E970E0AE
:100CA00082E090E04FDDFF91EF91BF91AF919F9176
:100CB0008F917F916F915F914F913F912F910F9005
:100CC0000BBE0F900FBE0F901F9018951F920F92A2
:100CD0000FB60F9211240BB60F922F933F934F93A1
:100CE0005F936F937F938F939F93AF93BF93EF9394
:100CF000FF9348E850E064E870E081E090E022DD96
:100D0000FF91EF91BF91AF919F918F917F916F91E3
:100D10005F914F913F912F910F900BBE0F900FBE9F
:100D20000F901F901895809145048F3F59F0609166
:100D3000010270E086E007DE60E087E0D5DC8FEF3F
:100D400080934504089580914504813059F060E016
:100D500086E0CADC6091010270E087E0F4DD81E0AA
:100D600080934504089580914504882341F060E014
:100D700086E0BADC60E087E0B7DC109245040895B5
:100D800080915E048F3F59F06091010270E082E033
:100D9000DADD60E083E0A8DC8FEF80935E040895E5
:100DA00080915E04882341F060E082E09DDC60E099
:100DB00083E09ADC10925E04089580915F048F3F77
:100DC00051F06FEF70E084E0BEDD60E085E08CDC28
:100DD0008FEF80935F04089580915F04882341F032
:100DE00060E084E081DC60E085E07EDC10925F04FE
:100DF0000895FF920F931F93CF93DF938C01C62F1B
:100E0000F42E60E0FC0180816FDCCEBD00000DB4EB
:100E100007FEFDCFCEB5D0E0DC2FCC27FEBC000016
:100E20000DB407FEFDCF8EB5C82B61E0F8018081BF
:100E30005BDCCE01DF91CF911F910F91FF90089560
:100E40001F93CF93DF93EC0161E0888140DD61E087
:100E500083E33DDD61E084E33ADD61E0888144DCE9
:100E60001FB7F89480914404811123C0E9E4F2E0B3
:100E70008491E9EEF1E09491E82FF0E0EE0FFF1F8E
:100E8000E65CFE4FA591B491EC91E92319F461E081
:100E900085E32ADC61E085E31ADD8CB580618CBDD9
:100EA0008CB580648CBD61E084E311DD61E083E397
:100EB0000EDD809144048F5F809344041FBF80E562
:100EC0008CBD81E08DBD40E06CE0CE0192DF47E05B
:100ED0006AE0CE018EDF47E06BE0CE018ADF40E0C2
:100EE00069E0CE0186DF40E06FE0CE0182DF41E0C5
:100EF0006CE0CE017EDF11E040E0612FCE0179DFB2
:100F00001F5F1930C9F7DF91CF911F9108950097A6
:100F100061F0FC0101900020E9F73197AF01481B17
:100F2000590BBC0180E694E0CFC480E090E00895C6
:100F30008F929F92AF92BF920F931F93CF93DF93A5
:100F4000CDB7DEB7A1970FB6F894DEBF0FBECDBF09
:100F500019A2423008F44AE08E010F5D1F4F842E23
:100F6000912CA12CB12CA50194010E942C14E62FE8
:100F7000B901CA0101501109EA3014F4E05D01C061
:100F8000E95CD801EC93232B242B252B61F7C801B6
:100F9000BEDFA1960FB6F894DEBF0FBECDBFDF91C6
:100FA000CF911F910F91BF90AF909F908F90089518
:100FB000CF92DF92EF92FF92CF93DF936B017C0190
:100FC0006DE280E694E0E9D9EC0166277727CB0152
:100FD0006C197D098E099F094AE0AADF8C0F9D1FBD
:100FE000DF91CF91FF90EF90DF90CF900895BC01FB
:100FF000990F880B990B97FDDBCF4AE099CFCF93E0
:10100000DF93BC01990F880B990B97FF02C0D0DFCB
:1010100002C04AE08DDFEC018AEE92E078DF8C0FAF
:101020009D1FDF91CF910895CF93DF9370DFEC0187
:101030008AEE92E06CDF8C0F9D1FDF91CF910895B7
:10104000CF92DF92EF92FF920F931F938091A005B2
:1010500080939E058091A10580939F058091A405B2
:1010600039DD7C018091A50535DD2FEFE216F10415
:1010700009F014F42FEF06C021E0E21623E0F20697
:1010800024F021E02093A00502C01092A005813039
:1010900023E0920714F08FEF05C08F3F910509F010
:1010A00024F481E08093A10502C01092A1058091F3
:1010B000960590919705A0919805B09199058F3F5D
:1010C0009F4FAF4FBF4F49F424DD60939605709357
:1010D0009705809398059093990580919E05181621
:1010E000C4F517DDC0908E05D0908F05E090900577
:1010F000F090910500919A0510919B0520919C0517
:1011000030919D05C01AD10AE20AF30ADC01CB0135
:101110008C0D9D1DAE1DBF1D80938E0590938F0578
:10112000A0939005B0939105803D9740A105B1052E
:1011300008F450C01092A00580ED97E0A0E0B0E068
:1011400080938E0590938F05A0939005B0939105A1
:1011500041C0882309F43EC0C0908E05D0908F0511
:10116000E0909005F0909105D4DC00919A051091E3
:101170009B0520919C0530919D05AB01BC01401B56
:10118000510B620B730B80918E0590918F05A0918E
:101190009005B0919105841B950BA60BB70B80931E
:1011A0008E0590938F05A0939005B0939105C81676
:1011B000D906EA06FB0620F0892B8A2B8B2B51F4EB
:1011C0001092A00510928E0510928F051092900536
:1011D0001092910580919F051816C4F59ADCC09075
:1011E0009205D0909305E0909405F09095050091BC
:1011F0009A0510919B0520919C0530919D05C01A80
:10120000D10AE20AF30ADC01CB018C0D9D1DAE1D53
:10121000BF1D8093920590939305A0939405B0937E
:101220009505813D9740A105B10508F44BC010928A
:10123000A10580ED97E0A0E0B0E080939205909347
:101240009305A0939405B09395053CC08823D1F1F4
:10125000C0909205D0909305E0909405F09095058C
:1012600058DC00919A0510919B0520919C053091C6
:101270009D05AB01BC01401B510B620B730B8091B0
:10128000920590919305A0919405B0919505841BCA
:10129000950BA60BB70B8093920590939305A093A3
:1012A0009405B0939505C816D906EA06FB0650F4D6
:1012B0001092A10510929205109293051092940538
:1012C000109295058091A00587FF0EC080918E0534
:1012D00090918F05A0919005B0919105892B8A2B53
:1012E0008B2B01F16ADD1FC08823E1F080918E0510
:1012F00090918F05A0919005B0919105803D974008
:10130000A105B10579F080915F04813061F060E062
:1013100084E0EAD96FEF70E085E015DB81E080932F
:101320005F0401C059DD8091A10587FF0EC0809147
:10133000920590919305A0919405B0919505892B04
:101340008A2B8B2B01F11CDD1FC08823E1F08091DB
:10135000920590919305A0919405B0919505803DDB
:101360009740A105B10579F080915E04813061F06C
:1013700060E082E0B9D96FEF70E083E0E4DA81E009
:1013800080935E0401C00CDDC4DB60939A0570930A
:101390009B0580939C0590939D051F910F91FF9055
:1013A000EF90DF90CF900895CF93853018F08DEEB9
:1013B00092E046C09091A2052EEF290F233038F419
:1013C0002091A305211103C08EEF92E039C0891747
:1013D000C9F1813001F1C82F913071F41092A0054C
:1013E0001092A10580919E05811104C080919F05F6
:1013F000882311F025DE24DEC23081F028F4C111EB
:101400001DC01092A2051EC0C33041F0C430B1F41B
:10141000C093A20507C08093A20502C0C093A20595
:101420001092A3058FEF9FEFDC01809396059093B8
:101430009705A0939805B093990504C08CE493E0B8
:10144000CF91F2CDCF910895CF9380910002863154
:1014500021F08F3F09F0B2C104C0EAE5F2E0C49187
:10146000E0C086E180930002EAE5F2E0E491EF3F1C
:1014700009F4A4C1E23009F46CC038F5EE2309F494
:101480004DC0E13009F0CCC0109280001092810074
:1014900080918100886080938100809181008160CB
:1014A00080938100EAE2F2E0E491F0E0EE0FFF1FAA
:1014B000E650FE4F85919491EAECF1E0E491E093DF
:1014C000CB0561E086E103DAB9C0E43009F487C0F6
:1014D00008F464C0E53009F0A3C010922001109216
:1014E0002101809121018860809321018091210157
:1014F000816080932101EAE2F2E0E491F0E0EE0FF6
:10150000FF1FE650FE4F85919491EAECF1E0E491E3
:10151000E093C80561E086E1DAD9C2C014BC15BC0D
:1015200084B5826084BD85B5816085BDEAE2F2E064
:10153000E491F0E0EE0FFF1FE650FE4F859194918D
:10154000EAECF1E0E491E093CC0561E086E1BFD9FB
:101550001EC11092B0001092B1008091B000826064
:101560008093B0008091B10081608093B100EAE285
:10157000F2E0E491F0E0EE0FFF1FE650FE4F8591A0
:1015800094919093590480935804EAECF1E0E4912B
:10159000E093570461E086E19AD997C010929000D9
:1015A00010929100809191008860809391008091C9
:1015B0009100816080939100EAE2F2E0E491F0E032
:1015C000EE0FFF1FE650FE4F85919491EAECF1E09B
:1015D000E491E093CA0561E086E179D94FC01092A9
:1015E000A0001092A1008091A10088608093A100CA
:1015F0008091A10081608093A100EAE2F2E0E49191
:10160000F0E0EE0FFF1FE650FE4F85919491EAEC5B
:10161000F1E0E491E093C90561E086E158D937C073
:10162000CE2FC7FDCBC061E086E151D9CC2309F4B0
:10163000AEC0C23009F449C0C130F1F480918100DC
:10164000887F83608093810081E49FE0909389008C
:101650008093880080E290E0A0E0B0E08093D9051C
:101660009093DA05A093DB05B093DC0580916F00C1
:10167000826080936F00A2C0C33039F480919100E2
:10168000887F8360809391003AC0C43039F48091A0
:10169000A100887F83608093A10049C0C53039F4E0
:1016A00080912101887F83608093210158C0C330DD
:1016B00031F12CF4C23009F081C081E40CC0C43097
:1016C000B1F1C53009F44BC079C08091B100876099
:1016D0008093B10083EF8093B30080E290E0A0E0BC
:1016E000B0E080935A0490935B04A0935C04B093A1
:1016F0005D04809170008260809370005FC081E41F
:101700009FE0909399008093980080E290E0A0E0A1
:10171000B0E08093D5059093D605A093D705B093FC
:10172000D8058091710082608093710047C081E488
:101730009FE09093A9008093A80080E290E0A0E051
:10174000B0E08093D1059093D205A093D305B093D8
:10175000D405809172008260809372002FC081E472
:101760009FE0909329018093280180E290E0A0E01F
:10177000B0E08093CD059093CE05A093CF05B093B4
:10178000D0058091730082608093730017C085B587
:10179000887F856085BD83EF87BD80E290E0A0E013
:1017A000B0E08093DD059093DE05A093DF05B09354
:1017B000E00580916E00826080936E00CF91089565
:1017C000A6CBCF92DF92EF92FF92DC01A03282E0B3
:1017D000B8070CF03DC0B7FD06C0A53BB1052CF025
:1017E000A4EBB0E002C0A0E0B0E08091B40528E82E
:1017F00030E06901C81AD10887FDD394CC0CDD1CF8
:10180000CC0CDD1C0D2C000CEE08FF088091B505FA
:1018100028E532E0281B310987FD3395220F331F5D
:10182000220F331FA901330F660B770B9A01AB010F
:101830002C193D094E095F090E94261424EB30E063
:1018400040E050E0DDD7C20ED31EE41EF51ED601E7
:101850009091B305903398F58091B40548E850E035
:10186000481B510987FD5395440F551F440F551FC1
:10187000A417B5078CF08091B50528E532E0281B48
:10188000310987FD3395220F331F220F331FAD011E
:101890002A173B070CF4A90142505109440F551F68
:1018A0002FB7F894892F90E0FC01EE0FFF1F8E0FE9
:1018B0009F1FFC01E350FB4F528341832FBFFF90DA
:1018C000EF90DF90CF900895CF92DF92EF92FF924A
:1018D0000F931F93CF93DF936C017A018B01C0E0CC
:1018E000D0E0CE15DF0581F0D8016D918D01D601D4
:1018F000ED91FC910190F081E02DC6011995892BA5
:1019000011F02196EECF7E01C701DF91CF911F919B
:101910000F91FF90EF90DF90CF900895E2D7CF9294
:10192000DF92EF92FF92CF93DF9380E693E07CDB30
:1019300080E793E045DFCEE8D5E06C8970E080E099
:1019400090E04AE0F5DA80E893E03ADF28813981D7
:101950004A815B81A7E0B0E06FD720EDC22E27E07F
:10196000D22EE12CF12CA70196014AD7CA01B90168
:101970007727882799274AE0DBDA8FE893E020DF92
:101980002C813D814E815F81A7E0B0E055D7A70152
:10199000960136D7CA01B9017727882799274AE0E7
:1019A000C7DA8AEE92E0B3DA8EE993E009DF88893C
:1019B000082E000C990B1BDB81EB93E001DF89897A
:1019C000082E000C990B1BDB84EC93E0F9DE8A896E
:1019D000082E000C990B0BDB87ED93E0F1DE8B8971
:1019E000082E000C990BDF91CF91FF90EF90DF90C4
:1019F000CF9005CB4F925F926F927F928F929F9282
:101A0000AF92BF92CF92DF92EF92FF92CF93DF938C
:101A100000D000D0CDB7DEB78091A205823009F4A6
:101A200099C040F4882309F46DC1813009F069C17F
:101A300007DB68C1833021F0843009F444C061C100
:101A40008091960590919705A0919805B091990580
:101A50008F3F9F4FAF4FBF4F59F45BD860939605B0
:101A60007093970580939805909399051092A3051C
:101A700050D8C0909605D0909705E0909805F090CA
:101A80009905DC01CB018C199D09AE09BF09803D88
:101A90009740A105B10508F442C03BD8C090960517
:101AA000D0909705E0909805F0909905DC01CB0166
:101AB0008C199D09AE09BF09803A9F40A105B10567
:101AC00008F046C043C08091960590919705A0917B
:101AD0009805B09199058F3F9F4FAF4FBF4F59F475
:101AE00018D8609396057093970580939805909306
:101AF00099051092A3050DD8C0909605D090970532
:101B0000E0909805F0909905DC01CB018C199D09B6
:101B1000AE09BF09883C9105A105B10510F413D9A0
:101B2000EAC00E948905C0909605D0909705E09084
:101B30009805F0909905DC01CB018C199D09AE093F
:101B4000BF0980399140A105B10510F4ECD8D3C08C
:101B50000AD9CEC08091960590919705A0919805DD
:101B6000B09199058F3F9F4FAF4FBF4F61F40E94D7
:101B700089056093960570939705809398059093D7
:101B800099051092A3050E948905C0909605D090F2
:101B90009705E0909805F09099052B013C014C18B1
:101BA0005D086E087F0880908E0590908F05A0904C
:101BB0009005B090910544E6840E911CA11CB11CC7
:101BC00051E05E83481459046A047B0408F01E82C5
:101BD0000E948905C0909605D0909705E0909805E1
:101BE000F09099059B01AC012C193D094E095F0944
:101BF00069017A018091920590919305A0919405D5
:101C0000B09195059C01AD012C593F4F4F4F5F4F4F
:101C100029833A834B835C8331E03D8389819A81B8
:101C2000AB81BC81C816D906EA06FB0608F01D8206
:101C30008AEE93E0C5DD60918E0570918F058091ED
:101C40009005909191054AE073D98AEE92E05FD9B0
:101C50008EEF93E0B5DD60919205709193058091D0
:101C60009405909195054AE063D98AEE92E04FD9A8
:101C700082E194E0A5DDAE818A2F90E0C0D98BE2AD
:101C800094E09EDDBD818B2F90E0B9D948145904B2
:101C90006A047B0410F491D801C09ED829813A814E
:101CA0004B815C81C216D306E406F50610F468D8B1
:101CB00001C076D8481459046A047B04E0F0898195
:101CC0009A81AB81BC81C816D906EA06FB0698F05A
:101CD00010928E0510928F0510929005109291052A
:101CE000109292051092930510929405109295050A
:101CF00081E08093A30581E09091A305911103C039
:101D000001C001C080E026960FB6F894DEBF0FBE7A
:101D1000CDBFDF91CF91FF90EF90DF90CF90BF903C
:101D2000AF909F908F907F906F905F904F900895AD
:101D30000F931F93CF9303EB15E0C0E0CF5FF80143
:101D400042918F016C2F89EA95E053D8C830B1F7E2
:101D5000CF911F910F9108951F920F920FB60F927E
:101D600011240BB60F922F933F934F935F936F9372
:101D70007F938F939F93AF93BF93EF93FF93809144
:101D80005A0490915B04A0915C04B0915D04892B8E
:101D90008A2B8B2B59F190915704E0915804F091C4
:101DA000590480818927808380915A0490915B0433
:101DB000A0915C04B0915D04181619061A061B0662
:101DC0000CF056C080915A0490915B04A0915C0481
:101DD000B0915D040197A109B10980935A049093D1
:101DE0005B04A0935C04B0935D0442C08091000248
:101DF000EAE5F2E0E4919FEF90930002E230C9F04F
:101E000050F4EE2399F0E13081F590916F009D7FC1
:101E100090936F002AC0E43019F1E0F0E53029F525
:101E2000909173009D7F909373001FC010926E007D
:101E30001CC0909170009D7F9093700091E09093F2
:101E4000B0009091B100987F94609093B10010928F
:101E5000B3000BC0909171009D7F9093710005C0FD
:101E6000909172009D7F9093720060E00E947403D5
:101E7000FF91EF91BF91AF919F918F917F916F9162
:101E80005F914F913F912F910F900BBE0F900FBE1E
:101E90000F901F901895789484B5826084BD84B5A6
:101EA000816084BD85B5826085BD85B5816085BD55
:101EB00080916E00816080936E001092810080910D
:101EC0008100826080938100809181008160809395
:101ED0008100809180008160809380008091B100BA
:101EE00084608093B1008091B00081608093B000E5
:101EF0008091910082608093910080919100816037
:101F000080939100809190008160809390008091F7
:101F1000A10082608093A1008091A10081608093E4
:101F2000A1008091A00081608093A0008091210198
:101F30008260809321018091210181608093210141
:101F40008091200181608093200180917A008460DB
:101F500080937A0080917A00826080937A008091E9
:101F60007A00816080937A0080917A008068809303
:101F70007A001092C100E0917004F0917104C2E007
:101F8000C083E0916C04F0916D041082E0916E04C6
:101F9000F0916F048FEC808310927804E0917404C8
:101FA000F091750486E08083E0917204F0917304EF
:101FB000808180618083E0917204F091730480815C
:101FC00088608083E0917204F0917304808180685E
:101FD0008083E0917204F091730480818F7D80830F
:101FE00084E192E0EDDB8091BB05811135C081E099
:101FF000DBD9C093BB0588E0EBEAF5E0DF011D9279
:102000008A95E9F721DA0E94F0024B015C0154E65F
:10201000C52ED12CE12CF12C0E94F002DC01CB0169
:1020200088199909AA09BB09883E9340A105B10501
:1020300098F3B1E0CB1AD108E108F108E8EE8E0E72
:10204000E3E09E1EA11CB11CC114D104E104F10403
:1020500019F7FAD981E001C080E090E00E94FF0703
:1020600062E087E10E94670462E088E10E94670401
:10207000C1E044244A94542C32019CE3292E22E4EA
:10208000322E35EA932E40EDC42E47E0D42EE12CBB
:10209000F12C01E010E0D0915304D09354048090CF
:1020A00055048092560487E10E94C8025C0181E0D9
:1020B000A114B10409F080E08093530488E10E94E8
:1020C000C80221E0009709F020E020935504811018
:1020D00004C088248394892B09F0812CD11103C07A
:1020E000D1E0AB2809F0D0E08FE192E069DB80918C
:1020F000BB0590E08730910508F08BC1FC01882773
:10210000EA56FF4F8F4FE5C38CE292E00E9414081D
:102110008091C205823009F07CC19091C305809105
:10212000C0059923A9F0883050F59091C1059830E9
:1021300030F5E7E0E91BF0E0E257FA4F980102C002
:10214000220F331F8A95E2F7C901958D892B15C09F
:102150008830A8F49091C105983088F4E7E0E91B35
:10216000F0E0E257FA4FD80102C0AA0FBB1F8A95D0
:10217000E2F7CD018095958D8923858FD9DD0E9469
:1021800089052091C4053091C5054091C60550913F
:10219000C705DC01CB01821B930BA40BB50B853F5C
:1021A0009140A105B10508F434C18091C3058C2785
:1021B0008093C3050E9489056093C4057093C5058B
:1021C0008093C6059093C70524C186E392E00E94E0
:1021D00014088EE392E0F4DAB090A205F1E0BF16A5
:1021E00029F023E0B21609F45CC072C086E392E0E5
:1021F0000E941408FFDB20918E0530918F054091DD
:10220000900550919105A7E0B0E016D3A701960183
:10221000F7D2B22E37E03B15F0F0209192053091C5
:1022200093054091940550919505A7E0B0E004D343
:10223000A7019601E5D2283070F4E7E0E21BF0E058
:10224000E257FA4FC80101C0880FBA94EAF7958D9A
:10225000892B858F6DDDDD2309F43AC083E0A4D896
:1022600020918E0530918F054091900550919105F8
:10227000A7E0B0E0E1D2A7019601C2D22093C00549
:1022800020919205309193054091940550919505C8
:10229000A7E0B0E0D1D2A7019601B2D22093C10548
:1022A00017C080E592E00E941408A4DB882381F027
:1022B000B092BB0581E00BC08FE592E00E9414084C
:1022C00099DB882029F086E08093BB0584E06CD8F8
:1022D00026DB9FC082E792E00E9414088BDB8823F4
:1022E000B9F31092BB0583E08093C205ABEAB5E079
:1022F000E8E01D92EA95E9F72092AB053092AC0533
:102300009092AD0581E88093AE0599E99093AF0571
:102310009092B0058093B1058EE78093B20508DDF9
:10232000D7CF83E892E00E94140864DB882309F485
:1023300070C01092BB0582E08093C2056AC085E937
:1023400092E00E94140856DB882309F4C1CFF4E020
:10235000F093BB054092BC055092BD056092BE054E
:102360007092BF0580E0B3CF8DE992E00E9414081F
:102370008091BC059091BD05A091BE05B091BF05AF
:102380008F3F9F4FAF4FBF4F79F40E9489056093F5
:10239000BC057093BD058093BE059093BF05109258
:1023A000B90580E090E00DDA8091B7058093B8051B
:1023B000C093B7058EEA92E003DA8091B80590E009
:1023C0000E94FF0781EC92E0FBD98091B70590E075
:1023D0000E94FF078091B805811104C08091B70564
:1023E000811121C08091B805882339F18091B7050A
:1023F000811123C08091B9058823F9F01092B905A5
:1024000080E090E0DED982E00E94D40935E030938C
:10241000BB0584ED92E0D4D98D2F90E00E94FF0798
:102420000E943A0238CE8CED92E00E941408C093CC
:10243000B9058AE590E0C5D9D5CF0E9489052091DC
:10244000BC053091BD054091BE055091BF05DC0132
:10245000CB01821B930BA40BB50B813D9740A105CB
:10246000B105B8F28091B9058111D3CF82E00E9405
:10247000D409C093BB05CDCF0F931F93CF93109278
:1024800063041092620488EE93E0A0E0B0E08093D1
:10249000640490936504A0936604B093670486E097
:1024A00092E0909361048093600485EC90E09093B7
:1024B0006D0480936C0484EC90E090936F0480939F
:1024C0006E0480EC90E0909371048093700481EC32
:1024D00090E0909373048093720482EC90E0909368
:1024E00075048093740486EC90E090937704809355
:1024F00076041092790410927A0410927B04109260
:102500007C041092E2051092E1051092E30505E3C8
:1025100010E01093E5050093E40584EE95E00E9439
:102520002007C8E0E6EEF5E0DF018C2F1D928A95CA
:10253000E9F710928E0510928F0510929005109277
:1025400091051092920510929305109294051092A5
:102550009505109296051092970510929805109285
:10256000990510929A0510929B0510929C05109265
:102570009D0510929E0510929F051092A005109245
:10258000A1051092A2051092A30586E38093A405ED
:1025900087E38093A50561E084E00E94670460E022
:1025A00084E00E94740361E085E00E94670460E0BB
:1025B00085E00E94740361E082E00E94670460E0AD
:1025C00082E00E94740361E083E00E94670460E09F
:1025D00083E00E94740361E086E00E94670460E08B
:1025E00086E00E94740361E087E00E94670460E077
:1025F00087E00E9474030E9489056093960570939A
:10260000970580939805909399051092A7051092CD
:10261000A6051092A8051093AA050093A90589EABA
:1026200095E00E942007EBEAF5E0DF011D92CA95D4
:10263000E9F780918D058033A0F491E0980F909395
:102640008D058093B30590E0FC01EE0FFF1F8E0F08
:102650009F1FFC01E350FB4F88EB9BE0928381833B
:1026600003C08FEF8093B3051092B7051092B805A1
:102670001092B90589E18093B60560E00E94670475
:1026800020918D05203398F481E0820F80938D0591
:10269000822F90E0FC01EE0FFF1F8E0F9F1FFC01A9
:1026A000E350FB4F88EB9BE09283818301C02FEFC7
:1026B0002093B30561E088E00E9467048091B30530
:1026C000803308F050C061E088E00E946704E09128
:1026D000B305AE2FB0E0CD01880F991FA80FB91F29
:1026E000A350BB4F8C91807C88608C931092B40572
:1026F0001092B5058E2F6CE0E0D0BCE08B9FB0014E
:10270000112440E050E09B01240F351FD901AA0F8E
:10271000BB1F2A0F3B1FD901A350BB4F9C9196FDB5
:1027200016C04F5F5F4F4C30510569F78130E1F5BE
:102730001092800082E080938100109285001092B8
:102740008400B19A80916F00826080936F008E2F19
:1027500090E0FC01EE0FFF1FE80FF91FE350FB4F65
:102760008081806480831092BB051092BC0510921A
:10277000BD051092BE051092BF051092C0051092C3
:10278000C1051092C2051092C3051092C4051092A3
:10279000C5051092C6051092C70561E086E1CF918C
:1027A0001F910F910C946704823061F41092900095
:1027B00080939100109295001092940088BB8093B2
:1027C0007100C5CF833069F41092A00082E080933D
:1027D000A1001092A5001092A40089BB8093720002
:1027E000B6CF8111B4CF1092200182E080932101F5
:1027F00010922501109224018ABB80937300A7CF09
:10280000052E97FB16F400940FD057FD05D024D069
:1028100007FC02D046F408C05095409530952195AC
:102820003F4F4F4F5F4F08959095809570956195FC
:102830007F4F8F4F9F4F089531D0A59F900DB49F2C
:10284000900DA49F800D911D11240895B7FFF4CF22
:10285000F3DF821B930B0895A1E21A2EAA1BBB1B68
:10286000FD010DC0AA1FBB1FEE1FFF1FA217B3075C
:10287000E407F50720F0A21BB30BE40BF50B661F72
:10288000771F881F991F1A9469F760957095809536
:1028900090959B01AC01BD01CF010895A29FB001AD
:1028A000B39FC001A39F700D811D1124911DB29F84
:1028B000700D811D1124911D0895991B79E004C0AC
:1028C000991F961708F0961B881F7A95C9F780956F
:1028D0000895EE0FFF1F881F8BBF0790F691E02D24
:0E28E000199481E090E0F89400C0F894FFCFC6
:1028EE00FFFF00000000CD01640C65011902960186
:1028FE007401880174727920737461727420006798
:10290E00616D652073746174653A200047414D45D1
:10291E005F4F56455200504C4159494E47002020BA
:10292E0020206372616E652073746174653A2000B5
:10293E004341544348494E47205052495A4500504E
:10294E004C4159494E475F574954485F505249438D
:10295E0045004C4F5345525F5245545249455649D6
:10296E004E470057494E4E45525F524554524945C7
:10297E0056494E470044524F50494E470057414921
:10298E00545F464F525F5052495A453A200020201C
:10299E002020202020206861645072697A653A20D8
:1029AE000020202020202020206861735072697A38
:1029BE00653A200063617463683A20004F70656E5B
:1029CE00696E6720736C696465000D0A0045737447
:1029DE0061646F206E6F2076616C69646F004E6F5C
:1029EE002073652070756564652064652063616D74
:1029FE00626961722064652065737461646F206D15
:102A0E0069656E74726173206573746120636F7291
:102A1E007269656E646F20756E2065737461646F84
:102A2E00206175746F6D617469636F0021212120BF
:102A3E007374617465206E6F2076616C69646F00CB
:102A4E00202020204372616E6520646174613A001B
:102A5E00202020202020202073746174653A2000ED
:102A6E00202020202020202078706F733A20002014
:102A7E002020202020202079706F733A2000202003
:102A8E00202020202020784C61737456656C3A20EB
:102A9E00002020202020202020794C617374566560
:102AAE006C3A2000202020202020202078437572B0
:102ABE007256656C3A20002020202020202020799C
:102ACE004375727256656C3A20002020202020201B
:102ADE002020202020207854696D653A2000202087
:102AEE00202020202020202020207954696D653A56
:102AFE002000202020202020202073686F756C6419
:102B0E0052657472697665583A2000202020202084
:102B1E0020202073686F756C6452657472697665D7
:042B2E00593A2000F0
:00000001FF
