:1000000008C1000036C1000034C1000032C1000048
:1000100030C100002EC100002CC100002AC1000028
:1000200028C1000026C1000024C1000022C1000038
:1000300020C10000DEC300001CC100001AC1000086
:1000400018C1000016C1000014C1000012C1000058
:1000500010C100000EC100000CC10000C7C40000A8
:1000600008C100008DC4000062C4000002C100008D
:1000700000C10000FEC00000FCC00000FAC000008B
:10008000F8C00000F6C00000F4C00000F2C000009C
:10009000F0C00000EEC00000ECC00000EAC00000AC
:1000A000E8C00000E6C00000E4C00000E2C00000BC
:1000B000E0C00000DEC00000DCC00000DAC00000CC
:1000C000D8C00000D6C00000D4C00000D2C00000DC
:1000D000D0C00000CEC00000CCC00000CAC00000EC
:1000E000C8C00000C202C502B402B802BC02FC02D1
:1000F000C902CD02D302D702DB02E102E502E90226
:10010000FC02EF02F302F70200000A0B02090C0DD9
:100110000E080703040100000000000000000000BA
:1001200000000000000000000000000000000000CF
:10013000000000001211100000000000000000008C
:1001400000000000000000000000000000000200AD
:10015000002200250028002B002E00310034000270
:10016000010000050108010B010000210024002707
:10017000002A002D003000330001010000040107B7
:10018000010A010102102020080810204010204020
:10019000800201020108040201010204081020404B
:1001A0008080402010080402018004020180402069
:1001B0001008040201080402010102040810204092
:1001C0008001020408102040800505050507050888
:1001D000080808020202020A0A08080404040401CA
:1001E00001010101010101030303030303030304EC
:1001F0000707070C0C0C0C0C0C0C0C02020202067C
:10020000060606060606060B0B0B0B0B0B0B0B006C
:10021000400511241FBECFEFD1E2DEBFCDBF00E00D
:100220000CBF12E0A0E0B2E0E8E6F3E100E00BBFB3
:1002300002C007900D92A832B107D9F723E0A8E2D7
:10024000B2E001C01D92A330B207E1F711E0C9E0AE
:10025000D1E000E006C021970109802FFE010E9435
:10026000A009C830D10780E00807A9F7C6D40C94CC
:10027000B209C6CE90E0FC01ED57FE4F2491FC017F
:10028000E753FE4F8491882399F090E0880F991FDF
:10029000FC01E759FE4FA591B491FC01E15BFE4FD3
:1002A000859194918FB7F894EC91E22BEC938FBFEA
:1002B0000895CF92DF92EF92FF920F931F93CF9307
:1002C000DF936C017A018B01C0E0D0E0CE15DF0531
:1002D00081F0D8016D918D01D601ED91FC910190D5
:1002E000F081E02DC6011995892B11F02196EECFF2
:1002F0007E01C701DF91CF911F910F91FF90EF9089
:10030000DF90CF900895089580E090E00895FC017B
:10031000538D448D252F30E0842F90E0821B930B6A
:10032000541710F0CF96089501970895FC01918D10
:10033000828D981761F0828DDF01A80FB11D5D9647
:100340008C91928D9F5F9F73928F90E008958FEFB5
:100350009FEF0895FC01918D828D981731F0828D69
:10036000E80FF11D858D90E008958FEF9FEF0895C0
:10037000FC01918D228D892F90E0805C9F4F821B24
:1003800091098F739927089580E592E0F1DF21E0CC
:10039000892B09F420E0822F0895FC01848DDF0170
:1003A000A80FB11DA35ABF4F2C91848D90E00196E8
:1003B0008F739927848FA689B7892C93A089B189D7
:1003C0008C91837080648C93938D848D981306C078
:1003D0000288F389E02D80818F7D80830895EF92DC
:1003E000FF920F931F93CF93DF93EC0181E0888FEF
:1003F0009B8D8C8D981305C0E889F989808185FDD6
:1004000025C0F62E0B8D10E00F5F1F4F0F731127C5
:10041000E02E8C8DE8120BC00FB607FCFACFE889EE
:10042000F989808185FFF5CFCE01B7DFF2CF8B8DC3
:10043000FE01E80FF11DE35AFF4FF0829FB7F894D9
:100440000B8FEA89FB89808180620AC09FB7F8948C
:10045000EE89FF896083E889F989808183708064EF
:1004600080839FBF81E090E0DF91CF911F910F913A
:10047000FF90EF900895CF93DF93EC01888D882350
:10048000C1F0EA89FB89808185FD05C0A889B98909
:100490008C9186FD0EC00FB607FCF5CF808185FFDD
:1004A000F2CFA889B9898C9185FFEDCFCE0175DF98
:1004B000E8CFDF91CF91089580E090E0892B19F08B
:1004C00063DF811125C080E090E0892B41F080E05E
:1004D00090E0892B21F00E94000081111CC080E077
:1004E00090E0892B41F080E090E0892B21F00E9480
:1004F0000000811113C080E090E0892BA1F080E022
:1005000090E0892B81F00E94000081110AC00895BB
:100510000E940000D8CF0E940000E1CF0E9400009E
:10052000EACF0C9400000895362F90E0FC01E85FBC
:10053000FE4F4491FC01ED57FE4F2491FC01E7531F
:10054000FE4F9491992309F46BC0442309F454C0DD
:1005500050E0FA013197E231F10508F04DC08827EB
:10056000EE58FF4F8F4FECC6809180008F7707C009
:10057000809180008F7D03C080918000877F809371
:1005800080003AC084B58F7702C084B58F7D84BD6A
:1005900033C08091B0008F7703C08091B0008F7D11
:1005A0008093B00029C0809190008F7707C0809120
:1005B00090008F7D03C080919000877F8093900092
:1005C0001BC08091A0008F7707C08091A0008F7D15
:1005D00003C08091A000877F8093A0000DC0809110
:1005E00020018F7707C0809120018F7D03C080910B
:1005F0002001877F80932001E92FF0E0EE0FFF1F9D
:10060000E15BFE4FA591B4919FB7F894311104C0FE
:100610008C912095282302C0EC912E2B2C939FBF08
:1006200008951F93CF93DF93C82F162F60E080911A
:10063000F9027ADFCEBD00000DB407FEFDCFCEB5C6
:10064000D0E0DC2FCC271EBD00000DB407FEFDCF8F
:100650008EB5C82B61E08091F90266DFCE01DF9193
:10066000CF911F9108950F931F93CF9303E013E051
:10067000C0E0CF5FF80162918F018C2FD2DFC830CC
:10068000C1F7CF911F910F910895863308F08653DB
:1006900090917B00282F2870977F922B90937B005E
:1006A0008770806480937C0080917A00806480935E
:1006B0007A0080917A0086FDFCCF809178002091AD
:1006C000790090E0922B08953FB7F8948091290229
:1006D00090912A02A0912B02B0912C0226B5A89BE2
:1006E00005C02F3F19F00196A11DB11D3FBFBA2FC4
:1006F000A92F982F8827820F911DA11DB11DBC0124
:10070000CD0142E0660F771F881F991F4A95D1F7E8
:100710000895009761F0FC0101900020E9F73197FE
:10072000AF01481B590BBC0180E592E0C2CD80E0CF
:1007300090E008958F929F92AF92BF920F931F9374
:10074000CF93DF93CDB7DEB7A1970FB6F894DEBF96
:100750000FBECDBF19A2423008F44AE08E010F5DF2
:100760001F4F842E912CA12CB12CA5019401B7D53B
:10077000E62FB901CA0101501109EA3014F4E05D15
:1007800001C0E95CD801EC93232B242B252B69F7BE
:10079000C801BFDFA1960FB6F894DEBF0FBECDBF74
:1007A000DF91CF911F910F91BF90AF909F908F904D
:1007B0000895CF92DF92EF92FF92CF93DF936B0178
:1007C0007C016DE280E592E00ADEEC016627772786
:1007D000CB016C197D098E099F094AE0ABDF8C0FB4
:1007E0009D1FDF91CF91FF90EF90DF90CF90089504
:1007F000B5D51F920F920FB60F9211240BB60F9220
:100800002F933F934F935F936F937F938F939F9318
:10081000AF93BF93EF93FF9380914C0290914D0261
:10082000A0914E02B0914F02892B8A2B8B2B59F14C
:1008300090914B02E0914902F0914A028081892710
:10084000808380914C0290914D02A0914E02B09114
:100850004F02181619061A061B060CF055C0809197
:100860004C0290914D02A0914E02B0914F0201971F
:10087000A109B10980934C0290934D02A0934E02BE
:10088000B0934F0241C080910002EEE4F1E0E491A8
:100890009FEF90930002E230C9F050F4EE2399F0FC
:1008A000E13081F590916F009D7F90936F002AC099
:1008B000E43019F1E0F0E53029F5909173009D7F67
:1008C000909373001FC010926E001CC09091700036
:1008D0009D7F9093700091E09093B0009091B10053
:1008E000987F94609093B1001092B3000BC09091E8
:1008F00071009D7F9093710005C0909172009D7F63
:100900009093720060E010DEFF91EF91BF91AF9184
:100910009F918F917F916F915F914F913F912F9117
:100920000F900BBE0F900FBE0F901F9018951F9247
:100930000F920FB60F9211240BB60F922F933F9385
:100940004F935F936F937F938F939F93AF93BF93D7
:10095000EF93FF9380E592E020DDFF91EF91BF914F
:10096000AF919F918F917F916F915F914F913F9147
:100970002F910F900BBE0F900FBE0F901F901895E8
:100980001F920F920FB60F9211240BB60F922F9356
:100990008F939F93EF93FF93E0916002F091610238
:1009A0008081E0916602F091670282FD12C0908121
:1009B000809169028F5F8F7320916A02821751F0D4
:1009C000E0916902F0E0E05BFD4F958F8093690252
:1009D00001C08081FF91EF919F918F912F910F9096
:1009E0000BBE0F900FBE0F901F9018951F920F9285
:1009F0000FB60F9211242F933F938F939F93AF9332
:100A0000BF938091ED029091EE02A091EF02B09120
:100A1000F0023091280223E0230F2D3720F40196B5
:100A2000A11DB11D05C026E8230F0296A11DB11D11
:100A3000209328028093ED029093EE02A093EF02A0
:100A4000B093F0028091290290912A02A0912B028A
:100A5000B0912C020196A11DB11D809329029093A3
:100A60002A02A0932B02B0932C02BF91AF919F91C9
:100A70008F913F912F910F900FBE0F901F9018955F
:100A8000CF93109253021092520288EE93E0A0E0AE
:100A9000B0E08093540290935502A0935602B09315
:100AA000570285E092E0909351028093500285ECCA
:100AB00090E090935D0280935C0284EC90E09093D0
:100AC0005F0280935E0280EC90E0909361028093DD
:100AD000600281EC90E0909363028093620282EC6A
:100AE00090E0909365028093640286EC90E090938E
:100AF0006702809366021092690210926A02109255
:100B00006B0210926C021092F7021092F602109291
:100B1000F80285E390E09093FA028093F902AADB51
:100B200083E3A8DB84E3A6DB61E08091F902FCDCCF
:100B3000CFB7F8948091F102811120C0EEEFF1E07F
:100B40008491E8EBF1E09491E82FF0E0EE0FFF1FC5
:100B5000E759FE4FA591B491EC91E92319F461E0B6
:100B600085E3E2DC85E386DB8CB580618CBD8CB5EA
:100B700080648CBD84E37EDB83E37CDB8091F102C7
:100B80008F5F8093F102CFBF80E58CBD81E08DBD8A
:100B900060E08CE046DD67E08AE043DD67E08BE003
:100BA00040DD60E089E03DDD60E08FE03ADD61E05E
:100BB0008CE037DDC1E060E08C2F33DDCF5FC930E2
:100BC000D1F788E0EBEFF2E0DF011D928A95E9F7BB
:100BD0002FB7F8948091ED029091EE02A091EF0270
:100BE000B091F0022FBF8093F2029093F302A09392
:100BF000F402B093F502CF910895789484B58260A1
:100C000084BD84B5816084BD85B5826085BD85B5B0
:100C1000816085BD80916E00816080936E0010922E
:100C200081008091810082608093810080918100A9
:100C3000816080938100809180008160809380003A
:100C40008091B10084608093B1008091B000816098
:100C50008093B00080919100826080939100809198
:100C600091008160809391008091900081608093D9
:100C700090008091A10082608093A1008091A100EA
:100C800081608093A1008091A00081608093A0008A
:100C900080912101826080932101809121018160F6
:100CA00080932101809120018160809320018091B7
:100CB0007A00846080937A0080917A0082608093C9
:100CC0007A0080917A00816080937A0080917A0026
:100CD000806880937A001092C100E0916002F091E8
:100CE000610282E08083E0915C02F0915D021082FB
:100CF000E0915E02F0915F028FEC808310926802B7
:100D0000E0916402F091650286E08083E0916202E6
:100D1000F0916302808180618083E0916202F091B2
:100D20006302808188608083E0916202F0916302B7
:100D3000808180688083E0916202F091630280810B
:100D40008F7D808385E192E0E4DC83E192E0E1DC69
:100D500088E0EBEFF2E0DF011D928A95E9F78CE382
:100D60008093FB0282E48093FC0295EA9093FD025B
:100D700081E88093FE0229E92093FF02909300030B
:100D8000809301038EE7809302036DDC86E172DAC3
:100D90009BDC4B015C0174EFC72EDD24D394E12C66
:100DA000F12C92DCDC01CB0188199909AA09BB0955
:100DB000883E9340A105B105A0F3B1E0CB1AD1085C
:100DC000E108F10828EE820E23E0921EA11CB11C5E
:100DD000C114D104E104F10421F7809100028631AD
:100DE00021F08F3F09F093C104C0EEE4F1E0C4911B
:100DF000DAC086E180930002EEE4F1E0E491EF3F97
:100E000009F485C1E23009F469C030F5EE2309F434
:100E10004BC0E13009F0C6C01092800010928100F2
:100E20008091810088608093810080918100816041
:100E300080938100EFEDF1E0E491F0E0EE0FFF1F11
:100E4000E15BFE4F85919491E9E9F1E0E491E09353
:100E5000300286E10FDAB3C0E43009F483C008F44D
:100E600061C0E53009F09EC010922001109221016E
:100E7000809121018860809321018091210181600E
:100E800080932101EFEDF1E0E491F0E0EE0FFF1F20
:100E9000E15BFE4F85919491E9E9F1E0E491E09303
:100EA0002D0286E1E7D9BDC014BC15BC84B58260B3
:100EB00084BD85B5816085BDEFEDF1E0E491F0E0A2
:100EC000EE0FFF1FE15BFE4F85919491E9E9F1E0A0
:100ED000E491E093310286E1CDD9CDC11092B0000A
:100EE0001092B1008091B00082608093B000809138
:100EF000B10081608093B100EFEDF1E0E491F0E0AA
:100F0000EE0FFF1FE15BFE4F8591949190934A0293
:100F100080934902E9E9F1E0E491E0934B0286E134
:100F2000A9D994C0109290001092910080919100E4
:100F300088608093910080919100816080939100FE
:100F4000EFEDF1E0E491F0E0EE0FFF1FE15BFE4F0B
:100F500085919491E9E9F1E0E491E0932F0286E133
:100F600089D94DC01092A0001092A1008091A100DB
:100F700088608093A1008091A10081608093A1008E
:100F8000EFEDF1E0E491F0E0EE0FFF1FE15BFE4FCB
:100F900085919491E9E9F1E0E491E0932E0286E1F4
:100FA00069D936C0CE2FC7FDB2C086E163D9CC2344
:100FB00009F461C1C23009F449C0C130F1F4809133
:100FC0008100887F83608093810081E49FE090931B
:100FD00089008093880080E490E0A0E0B0E08093F6
:100FE0003E0290933F02A0934002B0934102809151
:100FF0006F00826080936F008AC0C33039F48091A3
:101000009100887F8360809391003AC0C43039F4A6
:101010008091A100887F83608093A10049C0C53082
:1010200039F480912101887F83608093210158C029
:10103000C33031F12CF4C23009F069C081E40CC036
:10104000C430B1F1C53009F44BC061C08091B1002A
:1010500087608093B10083EF8093B30080E490E0D9
:10106000A0E0B0E080934C0290934D02A0934E021A
:10107000B0934F028091700082608093700047C0EF
:1010800081E49FE0909399008093980080E490E041
:10109000A0E0B0E080933A0290933B02A0933C0220
:1010A000B0933D02809171008260809371002FC0E7
:1010B00081E49FE09093A9008093A80080E490E0F1
:1010C000A0E0B0E08093360290933702A0933802FC
:1010D000B09339028091720082608093720017C0D1
:1010E00081E49FE0909329018093280180E490E0BF
:1010F000A0E0B0E08093320290933302A0933402D8
:10110000B093350280917300826080937300C12C8C
:1011100084E0D82EE12CF12C11E0C1E0D0E02FB713
:10112000F8948091ED029091EE02A091EF02B091BF
:10113000F0022FBF4091F2025091F3026091F4024D
:101140007091F502841B950BA60BB70B893C91059A
:10115000A105B10508F48DC00091480280914602B6
:10116000E0914702002389F0883010F5E83000F55F
:10117000F0E0EA50FD4FDE0102C0AA0FBB1F8A95C6
:10118000E2F7CD019581892B11C0883088F4E830D1
:1011900078F4F0E0EA50FD4F9E0102C0220F331FA9
:1011A0008A95E2F7C90180959581892385835BDA69
:1011B000809146028F5F883018F48093460207C002
:1011C00010924602809147028F5F80934702809180
:1011D0004702893028F01092470201270093480205
:1011E00086E192E096DA86E350DA28EC30E0DC0122
:1011F000AFD0A701960157D0CA01B9016456710951
:101200008109910997FF02C0D4DA02C04AE092DA5C
:1012100083E192E07EDA8FE192E07BDA87E335DAF0
:1012200028EC30E0DC0194D0A70196013CD0CA0143
:10123000B901645671098109910997FF02C0B9DAB1
:1012400002C04AE077DA83E192E063DA2FB7F894DC
:101250008091ED029091EE02A091EF02B091F00228
:101260002FBF8093F2029093F302A093F402B09305
:10127000F50222D954CF85B5887F856085BD83EF7F
:1012800087BD80E490E0A0E0B0E0809342029093BC
:101290004302A0934402B093450280916E008260A5
:1012A00080936E0034CF052E97FB16F400940FD078
:1012B00057FD05D014D007FC02D046F408C0509565
:1012C0004095309521953F4F4F4F5F4F0895909532
:1012D0008095709561957F4F8F4F9F4F0895A1E244
:1012E0001A2EAA1BBB1BFD010DC0AA1FBB1FEE1FA0
:1012F000FF1FA217B307E407F50720F0A21BB30BEB
:10130000E40BF50B661F771F881F991F1A9469F766
:1013100060957095809590959B01AC01BD01CF01C2
:101320000895A29FB001B39FC001A39F700D811DBE
:101330001124911DB29F700D811D1124911D0895DE
:10134000EE0FFF1F881F8BBF0790F691E02D1994B9
:10135000E8DFB7FF0895821B930B089581E090E0CA
:08136000F89400C0F894FFCFDF
:10136800FF00000000EF01590187013B02B8019618
:1013780001AA010D0A007820617869733A20007982
:0813880020617869733A20002E
:00000001FF
