:100000002EC100005DC100005BC1000059C10000AD
:1000100057C1000055C1000053C1000051C100008C
:100020004FC100004DC100004BC1000049C100009C
:1000300047C100000C94630E43C1000041C10000A1
:100040003FC1000043C600003BC1000039C10000B1
:1000500037C1000035C1000033C1000066C5000093
:100060002FC100000BC30000E0C2000029C1000046
:1000700027C1000025C1000023C1000021C10000EC
:10008000F8C500001DC100001BC1000019C100001F
:1000900017C1000015C1000013C1000011C100000C
:1000A0000FC100000DC10000B7C5000009C100006C
:1000B00007C1000005C1000003C1000080C50000A9
:1000C000FFC00000FDC00000FBC00000F9C0000040
:1000D000F7C00000F5C00000F3C00000F1C0000050
:1000E000EFC000008D0290027F0283028902C702E6
:1000F000940298029E02A202A602AC02B002B402CE
:10010000C702BA02BE02C202CA04CF04D404DE048B
:10011000E8046105F204FA0402050C051605200541
:100120002F053905610543054D0557053A10201186
:100130009B1012116A114711551100002100240073
:1001400027002A002D0030003300010100000401C7
:1001500007010A01000020002300260029002C00CE
:100160002F00320000010000030106010901000018
:100170000A0B02090C0D0E08070304010000000021
:10018000000000000000000000000000000000006F
:10019000000000000000000000001211100000002C
:1001A000000000000000000000000000000000004F
:1001B000000000000102102020080810204010203C
:1001C000408002010201080402010102040810201B
:1001D0004080804020100804020180040201804019
:1001E0002010080402010804020101020408102082
:1001F00040800102040810204080000022002500F9
:1002000028002B002E0031003400020100000501FF
:1002100008010B0105050505070508080808020285
:1002200002020A0A08080404040401010101010190
:1002300001010303030303030303040707070C0C73
:100240000C0C0C0C0C0C020202020606060606063A
:1002500006060B0B0B0B0B0B0B0B0200F111112401
:100260001FBECFEFD1E2DEBFCDBF00E00CBF13E079
:10027000A0E0B2E0E8E5F8E200E00BBF02C00790C2
:100280000D92A83FB107D9F725E0A8EFB3E001C070
:100290001D92A23AB207E1F711E0CFE2D1E000E00F
:1002A00006C021970109802FFE010E941E14CE3244
:1002B000D10780E00807A9F70E94020F0C942A14C6
:1002C0009FCE089580E090E00895FC01538D448D09
:1002D000252F30E0842F90E0821B930B541710F0F1
:1002E000CF96089501970895FC01918D828D9817FE
:1002F00061F0828DDF01A80FB11D5D968C91928D0A
:100300009F5F9F73928F90E008958FEF9FEF089506
:10031000FC01918D828D981731F0828DE80FF11DCF
:10032000858D90E008958FEF9FEF0895FC01918DEA
:10033000228D892F90E0805C9F4F821B91098F73E3
:100340009927089584E194E0F1DF21E0892B09F4F5
:1003500020E0822F0895FC01848DDF01A80FB11DDC
:10036000A35ABF4F2C91848D90E001968F739927EB
:10037000848FA689B7892C93A089B1898C918370C9
:1003800080648C93938D848D981306C00288F389C2
:10039000E02D80818F7D80830895EF92FF920F93EF
:1003A0001F93CF93DF93EC0181E0888F9B8D8C8D21
:1003B000981305C0E889F989808185FD25C0F62E4E
:1003C0000B8D10E00F5F1F4F0F731127E02E8C8DE8
:1003D000E8120BC00FB607FCFACFE889F9898081D3
:1003E00085FFF5CFCE01B7DFF2CF8B8DFE01E80F91
:1003F000F11DE35AFF4FF0829FB7F8940B8FEA8903
:10040000FB89808180620AC09FB7F894EE89FF89DA
:100410006083E889F98980818370806480839FBFCD
:1004200081E090E0DF91CF911F910F91FF90EF90CD
:100430000895CF93DF93EC01888D8823C1F0EA897A
:10044000FB89808185FD05C0A889B9898C9186FDCD
:100450000EC00FB607FCF5CF808185FFF2CFA889CB
:10046000B9898C9185FFEDCFCE0175DFE8CFDF91A3
:10047000CF91089580E090E0892B19F063DF81111E
:1004800025C080E090E0892B41F080E090E0892B4E
:1004900021F00E94000081111CC080E090E0892BB7
:1004A00041F080E090E0892B21F00E940000811152
:1004B00013C080E090E0892BA1F080E090E0892BD0
:1004C00081F00E94000081110AC008950E9400007E
:1004D000D8CF0E940000E1CF0E940000EACF0C9428
:1004E0000000089590E0FC013197E231F10508F039
:1004F0004EC08827EE58FF4F8F4F0C941E148091EA
:1005000080008F7703C0809180008F7D8093800072
:10051000089580918000877FF9CF84B58F7702C0DE
:1005200084B58F7D84BD08958091B0008F7703C01E
:100530008091B0008F7D8093B000089580919000ED
:100540008F7707C0809190008F7D03C080919000CD
:10055000877F8093900008958091A0008F7707C0D7
:100560008091A0008F7D03C08091A000877F809341
:10057000A0000895809120018F7707C0809120010D
:100580008F7D03C080912001877F80932001089593
:10059000CF93DF93282F30E0F901E259FE4F849189
:1005A000F901EC54FE4FD491F901EC5EFD4FC4917A
:1005B000CC2389F0811196DFEC2FF0E0EE0FFF1FC6
:1005C000EC5AFE4FA591B491EC91ED2381E090E0BF
:1005D00021F480E002C080E090E0DF91CF910895A7
:1005E0003FB7F8948091030490910404A09105040E
:1005F000B091060426B5A89B05C02F3F19F00196BF
:10060000A11DB11D3FBFBA2FA92F982F8827820F98
:10061000911DA11DB11DBC01CD0142E0660F771FE8
:10062000881F991F4A95D1F708951F920F920FB610
:100630000F9211240BB60F922F933F934F935F931A
:100640006F937F938F939F93AF93BF93EF93FF939A
:1006500084E194E080DEFF91EF91BF91AF919F9193
:100660008F917F916F915F914F913F912F910F905B
:100670000BBE0F900FBE0F901F9018951F920F92F8
:100680000FB60F9211240BB60F922F938F939F9357
:10069000EF93FF93E0912404F09125048081E09191
:1006A0002A04F0912B0482FD12C0908180912D04C8
:1006B0008F5F8F7320912E04821751F0E0912D04EB
:1006C000F0E0EC5EFB4F958F80932D0401C080819C
:1006D000FF91EF919F918F912F910F900BBE0F90F3
:1006E0000FBE0F901F9018951F93CF93DF93282F65
:1006F00030E0F901E259FE4F8491F901EC54FE4FCC
:10070000D491F901EC5EFD4FC491CC23B9F0162FC2
:100710008111E8DEEC2FF0E0EE0FFF1FE650FE4FF8
:10072000A591B4919FB7F894111104C08C91D09504
:10073000D82302C0EC91DE2BDC939FBFDF91CF91D9
:100740001F910895CF92DF92EF92FF920F931F9324
:10075000CF93DF936C018B017A01EC01C650DC4F23
:10076000888187FF04C0FB011182108224C02CE025
:100770002C9DC0012D9D900D11242881AC01420FAC
:10078000511D27FD5A952091410530E0421753072E
:1007900094F42881AC01420F511D27FD5A959A010E
:1007A000FA01EE0FFF1F2E0F3F1FF901EF54FB4F11
:1007B000208126FD19C088818F5F88832CE02C9DC5
:1007C000C0012D9D900D11242881AC01420F511DB7
:1007D00027FD5A952091410530E042175307B4F4A4
:1007E00028812C303CF112C02881820F911D27FDF9
:1007F0009A95FC01EE0FFF1F8E0F9F1FFC01EF5417
:10080000FB4F808160E08F736FDFD5CFF80180816F
:100810009181049680349C4918F480E49CE904C0DA
:10082000F801808191810496F701918380838FEF95
:10083000888344C0F801408151812881BC01620F46
:10084000711D27FD7A959B01FB01EE0FFF1F2E0FF7
:100850003F1FF901EF54FB4F21813281240F351FD7
:10086000F701318320832881AC01420F511D27FD00
:100870005A959A01FA01EE0FFF1F2E0F3F1FF90143
:10088000EF54FB4F208126FF19C02881820F911D54
:1008900027FD9A95FC01EE0FFF1F8E0F9F1FFC0195
:1008A000EF54FB4F808161E08F73DF91CF911F91F7
:1008B0000F91FF90EF90DF90CF9016CFDF91CF9107
:1008C0001F910F91FF90EF90DF90CF900895CF93FD
:1008D000DF9390E0FC01EC54FE4F2491FC01EC5EB0
:1008E000FD4F8491882361F190E0880F991FFC01EE
:1008F000E65CFE4FC591D491FC01E650FE4FA591F8
:10090000B491611109C09FB7F89488812095822322
:100910008883EC912E230BC0623061F49FB7F8946A
:100920008881322F309583238883EC912E2B2C9352
:100930009FBF06C08FB7F894E8812E2B28838FBF06
:10094000DF91CF9108951F93CF93DF93182FEB0181
:1009500061E0BDDF209711F460E004C0CF3FD10516
:1009600031F461E0812FDF91CF911F91BDCEE12F56
:10097000F0E0E259FE4FE4918E2F90E0FC013197B8
:10098000E231F10508F09DC08827EC57FF4F8F4FEB
:100990000C941E1484B5806884BDC7BD97C084B50F
:1009A000806284BDC8BD92C08091800080688093C1
:1009B0008000D0938900C093880088C08091800017
:1009C000806280938000D0938B00C0938A007EC0A9
:1009D00080918000886080938000D0938D00C093C8
:1009E0008C0074C08091B00080688093B000C09388
:1009F000B3006CC08091B00080628093B000C0935F
:100A0000B40064C080919000806880939000D0937F
:100A10009900C09398005AC08091900080628093A2
:100A20009000D0939B00C0939A0050C0809190009A
:100A3000886080939000D0939D00C0939C0046C036
:100A40008091A00080688093A0008091A0008F7B9F
:100A50008093A000D093A900C093A80037C08091D4
:100A6000A00080628093A000D093AB00C093AA0046
:100A70002DC08091A00088608093A000D093AD002D
:100A8000C093AC0023C08091200180688093200136
:100A9000D0932901C093280119C080912001806260
:100AA00080932001D0932B01C0932A010FC0809125
:100AB0002001886080932001D0932D01C0932C01E8
:100AC00005C0C038D1050CF04CCF46CFDF91CF9197
:100AD0001F910895863308F0865390917B00282F4C
:100AE0002870977F922B90937B008770806480930F
:100AF0007C0080917A00806480937A0080917A00F3
:100B000086FDFCCF809178002091790090E0922BB7
:100B100008952FB7F8946091FF03709100048091BD
:100B20000104909102042FBF08951F920F920FB6F7
:100B30000F9211242F933F938F939F93AF93BF9363
:100B40008091FF0390910004A0910104B0910204F0
:100B50003091FE0323E0230F2D3720F40196A11DD1
:100B6000B11D05C026E8230F0296A11DB11D2093DB
:100B7000FE038093FF0390930004A0930104B093BD
:100B800002048091030490910404A0910504B091A3
:100B900006040196A11DB11D8093030490930404E3
:100BA000A0930504B0930604BF91AF919F918F91DC
:100BB0003F912F910F900FBE0F901F9018951F928D
:100BC0000F920FB60F9211240BB60F922F933F93F3
:100BD0004F935F936F937F938F939F93AF93BF9345
:100BE000EF93FF9348E251E064E271E080E090E02F
:100BF000A9DDFF91EF91BF91AF919F918F917F916F
:100C00006F915F914F913F912F910F900BBE0F907D
:100C10000FBE0F901F9018951F920F920FB60F9254
:100C200011240BB60F922F933F934F935F936F93C3
:100C30007F938F939F93AF93BF93EF93FF9348EA74
:100C400050E064EA70E083E090E07CDDFF91EF919A
:100C5000BF91AF919F918F917F916F915F914F91D4
:100C60003F912F910F900BBE0F900FBE0F901F90D2
:100C700018951F920F920FB60F9211240BB60F9278
:100C80002F933F934F935F936F937F938F939F9394
:100C9000AF93BF93EF93FF9348E950E064E970E0AE
:100CA00082E090E04FDDFF91EF91BF91AF919F9176
:100CB0008F917F916F915F914F913F912F910F9005
:100CC0000BBE0F900FBE0F901F9018951F920F92A2
:100CD0000FB60F9211240BB60F922F933F934F93A1
:100CE0005F936F937F938F939F93AF93BF93EF9394
:100CF000FF9348E850E064E870E081E090E022DD96
:100D0000FF91EF91BF91AF919F918F917F916F91E3
:100D10005F914F913F912F910F900BBE0F900FBE9F
:100D20000F901F9018958091F9038F3F59F06091B3
:100D3000010270E086E007DE60E087E0D5DC8FEF3F
:100D40008093F90308958091F903813059F060E0B0
:100D500086E0CADC6091010270E087E0F4DD81E0AA
:100D60008093F90308958091F903882341F060E0AE
:100D700086E0BADC60E087E0B7DC1092F903089502
:100D8000809112048F3F59F06091010270E082E07F
:100D9000DADD60E083E0A8DC8FEF80931204089531
:100DA000809113048F3F51F06FEF70E084E0CBDD52
:100DB00060E085E099DC8FEF8093130408958091C3
:100DC0001304882341F060E084E08EDC60E085E07D
:100DD0008BDC109213040895FF920F931F93CF930F
:100DE000DF938C01C62FF42E60E0FC0180817CDC57
:100DF000CEBD00000DB407FEFDCFCEB5D0E0DC2F98
:100E0000CC27FEBC00000DB407FEFDCF8EB5C82B6D
:100E100061E0F801808168DCCE01DF91CF911F9104
:100E20000F91FF9008951F93CF93DF93EC0161E042
:100E300088814DDD61E083E34ADD61E084E347DDE5
:100E400061E0888151DC1FB7F8948091F80381112B
:100E500023C0E9E4F2E08491E9EEF1E09491E82F17
:100E6000F0E0EE0FFF1FE65CFE4FA591B491EC9110
:100E7000E92319F461E085E337DC61E085E327DDF0
:100E80008CB580618CBD8CB580648CBD61E084E3E1
:100E90001EDD61E083E31BDD8091F8038F5F8093AB
:100EA000F8031FBF80E58CBD81E08DBD40E06CE0A4
:100EB000CE0192DF47E06AE0CE018EDF47E06BE0D3
:100EC000CE018ADF40E069E0CE0186DF40E06FE0DE
:100ED000CE0182DF41E06CE0CE017EDF11E040E038
:100EE000612FCE0179DF1F5F1930C9F7DF91CF91F4
:100EF0001F910895009761F0FC0101900020E9F72F
:100F00003197AF01481B590BBC0184E194E0D9C46F
:100F100080E090E008958F929F92AF92BF920F93DE
:100F20001F93CF93DF93CDB7DEB7A1970FB6F89499
:100F3000DEBF0FBECDBF19A2423008F44AE08E01D9
:100F40000F5D1F4F842E912CA12CB12CA501940173
:100F50000E94E113E62FB901CA0101501109EA30DC
:100F600014F4E05D01C0E95CD801EC93232B242B41
:100F7000252B61F7C801BEDFA1960FB6F894DEBF3E
:100F80000FBECDBFDF91CF911F910F91BF90AF905A
:100F90009F908F900895CF92DF92EF92FF92CF9320
:100FA000DF936B017C016DE284E194E0F6D9EC0102
:100FB00066277727CB016C197D098E099F094AE0C6
:100FC000AADF8C0F9D1FDF91CF91FF90EF90DF90F4
:100FD000CF900895BC01990F880B990B97FDDBCF3B
:100FE0004AE099CFCF93DF93BC01990F880B990BFF
:100FF00097FF02C0D0DF02C04AE08DDFEC018AEE2D
:1010000092E078DF8C0F9D1FDF91CF910895CF93F1
:10101000DF9370DFEC018AEE92E06CDF8C0F9D1F96
:10102000DF91CF910895CF92DF92EF92FF920F93CD
:101030001F938091540580935205809155058093AC
:1010400053058091580546DD7C018091590542DDAC
:101050002FEFE216F10409F014F42FEF06C021E09F
:10106000E21623E0F20624F021E02093540502C0AA
:1010700010925405813023E0920714F08FEF05C0E1
:101080008F3F910509F024F481E08093550502C05B
:101090001092550580914A0590914B05A0914C0501
:1010A000B0914D058F3F9F4FAF4FBF4F49F431DD9A
:1010B00060934A0570934B0580934C0590934D05C2
:1010C000809152051816C4F524DDC0904205D090D9
:1010D0004305E0904405F090450500914E051091C0
:1010E0004F052091500530915105C01AD10AE20AEE
:1010F000F30ADC01CB018C0D9D1DAE1DBF1D80933D
:10110000420590934305A0934405B0934505803D67
:101110009740A105B10508F450C01092540580ED28
:1011200097E0A0E0B0E08093420590934305A09340
:101130004405B093450541C0882309F43EC0C090E2
:101140004205D0904305E0904405F0904505E1DC70
:1011500000914E0510914F05209150053091510599
:10116000AB01BC01401B510B620B730B809142051C
:1011700090914305A0914405B0914505841B950BC2
:10118000A60BB70B8093420590934305A0934405AB
:10119000B0934505C816D906EA06FB0620F0892B50
:1011A0008A2B8B2B51F41092540510924205109209
:1011B0004305109244051092450580915305181679
:1011C000C4F5A7DCC0904605D0904705E0904805DF
:1011D000F090490500914E0510914F052091500562
:1011E00030915105C01AD10AE20AF30ADC01CB01A1
:1011F0008C0D9D1DAE1DBF1D809346059093470528
:10120000A0934805B0934905813D9740A105B105DC
:1012100008F44BC01092550580ED97E0A0E0B0E0D7
:101220008093460590934705A0934805B0934905E0
:101230003CC08823D1F1C0904605D0904705E0908E
:101240004805F090490565DC00914E0510914F0569
:101250002091500530915105AB01BC01401B510B51
:10126000620B730B8091460590914705A09148054C
:10127000B0914905841B950BA60BB70B80934605CF
:1012800090934705A0934805B0934905C816D90621
:10129000EA06FB0650F4109255051092460510928E
:1012A000470510924805109249058091540587FF23
:1012B0000EC08091420590914305A0914405B091E4
:1012C0004505892B8A2B8B2B01F16ADD1FC08823F2
:1012D000E1F08091420590914305A0914405B091C1
:1012E0004505803D9740A105B10579F08091130433
:1012F000813061F060E084E0F7D96FEF70E085E065
:1013000022DB81E08093130401C059DD80915505F3
:1013100087FF0EC08091460590914705A091480532
:10132000B0914905892B8A2B8B2B01F129DD2AC02D
:101330008823E1F08091460590914705A0914805EA
:10134000B0914905803D9740A105B10579F08091A4
:1013500012048130B9F060E082E0C6D96FEF70E02E
:1013600083E0F1DA81E0809312040CC080911204D2
:10137000882341F060E082E0B7D960E083E0B4D92F
:1013800010921204C6DB60934E0570934F05809354
:101390005005909351051F910F91FF90EF90DF90B2
:1013A000CF900895CF93853018F08DEE92E046C02F
:1013B000909156052EEF290F233038F420915705D0
:1013C000211103C08EEF92E039C08917C9F1813035
:1013D00001F1C82F913071F4109254051092550507
:1013E00080915205811104C080915305882311F02A
:1013F0001ADE19DEC23081F028F4C1111DC010922E
:1014000056051EC0C33041F0C430B1F4C093560538
:1014100007C08093560502C0C09356051092570529
:101420008FEF9FEFDC0180934A0590934B05A093CB
:101430004C05B0934D0504C08CE493E0CF91E7CD0B
:10144000CF910895CF9380910002863121F08F3F94
:1014500009F0B2C104C0EAE5F2E0C491E0C086E15F
:1014600080930002EAE5F2E0E491EF3F09F4A4C1C1
:10147000E23009F46CC038F5EE2309F44DC0E130D8
:1014800009F0CCC010928000109281008091810000
:1014900088608093810080918100816080938100C9
:1014A000EAE2F2E0E491F0E0EE0FFF1FE650FE4FBB
:1014B00085919491EAECF1E0E491E0937F0561E09D
:1014C00086E105DAB9C0E43009F487C008F464C0E5
:1014D000E53009F0A3C01092200110922101809103
:1014E0002101886080932101809121018160809396
:1014F0002101EAE2F2E0E491F0E0EE0FFF1FE65096
:10150000FE4F85919491EAECF1E0E491E0937C0543
:1015100061E086E1DCD9C2C014BC15BC84B5826030
:1015200084BD85B5816085BDEAE2F2E0E491F0E03A
:10153000EE0FFF1FE650FE4F85919491EAECF1E02B
:10154000E491E093800561E086E1C1D91EC110926B
:10155000B0001092B1008091B00082608093B00022
:101560008091B10081608093B100EAE2F2E0E49101
:10157000F0E0EE0FFF1FE650FE4F8591949190939F
:101580000D0480930C04EAECF1E0E491E0930B0489
:1015900061E086E19CD997C0109290001092910072
:1015A000809191008860809391008091910081608A
:1015B00080939100EAE2F2E0E491F0E0EE0FFF1F89
:1015C000E650FE4F85919491EAECF1E0E491E093CE
:1015D0007E0561E086E17BD94FC01092A000109299
:1015E000A1008091A10088608093A1008091A1005A
:1015F00081608093A100EAE2F2E0E491F0E0EE0F76
:10160000FF1FE650FE4F85919491EAECF1E0E491E2
:10161000E0937D0561E086E15AD937C0CE2FC7FD42
:10162000CBC061E086E153D9CC2309F4AEC0C2300F
:1016300009F449C0C130F1F480918100887F836052
:101640008093810081E49FE09093890080938800DB
:1016500080E290E0A0E0B0E080938D0590938E054D
:10166000A0938F05B093900580916F008260809366
:101670006F00A2C0C33039F480919100887F8360ED
:10168000809391003AC0C43039F48091A100887FE2
:1016900083608093A10049C0C53039F48091210155
:1016A000887F83608093210158C0C33031F12CF4CE
:1016B000C23009F081C081E40CC0C430B1F1C53042
:1016C00009F44BC079C08091B10087608093B1006C
:1016D00083EF8093B30080E290E0A0E0B0E08093DD
:1016E0000E0490930F04A0931004B0931104809102
:1016F00070008260809370005FC081E49FE09093EF
:1017000099008093980080E290E0A0E0B0E08093A0
:10171000890590938A05A0938B05B0938C058091E1
:10172000710082608093710047C081E49FE09093D4
:10173000A9008093A80080E290E0A0E0B0E0809350
:10174000850590938605A0938705B09388058091C1
:1017500072008260809372002FC081E49FE09093BA
:1017600029018093280180E290E0A0E0B0E080931E
:10177000810590938205A0938305B09384058091A1
:10178000730082608093730017C085B5887F856081
:1017900085BD83EF87BD80E290E0A0E0B0E080935C
:1017A000910590939205A0939305B0939405809131
:1017B0006E00826080936E00CF9108959BCBCF9294
:1017C000DF92EF92FF92DC01A03282E0B8070CF0CA
:1017D0003CC0B7FD06C0A53BB1052CF0A4EBB0E0C2
:1017E00002C0A0E0B0E08091680528E830E069011F
:1017F000C81AD10887FDD394CC0CDD1CCC0CDD1CA1
:101800000D2C000CEE08FF088091690528E532E0F8
:10181000281B310987FD3395220F331F220F331FF9
:10182000A901330F660B770B9A01AB012C193D0907
:101830004E095F09C0D724EB30E040E050E095D777
:10184000C20ED31EE41EF51ED6019091670590339B
:1018500098F58091680548E850E0481B510987FDDC
:101860005395440F551F440F551FA417B5078CF00F
:101870008091690528E532E0281B310987FD339501
:10188000220F331F220F331FAD012A173B070CF421
:10189000A90142505109440F551F2FB7F894892FC1
:1018A00090E0FC01EE0FFF1F8E0F9F1FFC01EF5415
:1018B000FB4F528341832FBFFF90EF90DF90CF907B
:1018C0000895CF92DF92EF92FF920F931F93CF93E1
:1018D000DF936C017A018B01C0E0D0E0CE15DF050B
:1018E00081F0D8016D918D01D601ED91FC910190AF
:1018F000F081E02DC6011995892B11F02196EECFCC
:101900007E01C701DF91CF911F910F91FF90EF9062
:10191000DF90CF9008959AD7CF92DF92EF92FF9207
:10192000CF93DF9380E693E072DB80E793E046DFBE
:10193000C2E4D5E06C8970E080E090E04AE0EBDA48
:1019400080E893E03BDF288139814A815B81A7E011
:10195000B0E027D720EDC22E27E0D22EE12CF12CCB
:10196000A701960102D7CA01B901772788279927CD
:101970004AE0D1DA8FE893E021DF2C813D814E816E
:101980005F81A7E0B0E00DD7A7019601EED6CA01AE
:10199000B9017727882799274AE0BDDA8AEE92E0D5
:1019A000A9DA8EE993E00ADF8889082E000C990BEA
:1019B00011DB81EB93E002DF8989082E000C990B83
:1019C00011DB84EC93E0FADE8A89082E000C990B77
:1019D00001DB87ED93E0F2DE8B89082E000C990B7A
:1019E000DF91CF91FF90EF90DF90CF90FBCA4F92A5
:1019F0005F926F927F928F929F92AF92BF92CF929F
:101A0000DF92EF92FF92CF93DF9300D01F92CDB77A
:101A1000DEB780915605823009F499C040F48823DE
:101A200009F411C1813009F00DC1FDDA0CC1833018
:101A300021F0843009F444C005C180914A05909199
:101A40004B05A0914C05B0914D058F3F9F4FAF4F77
:101A5000BF4F59F45ED860934A0570934B0580934D
:101A60004C0590934D051092570553D8C0904A05E8
:101A7000D0904B05E0904C05F0904D05DC01CB017A
:101A80008C199D09AE09BF09803D9740A105B1059C
:101A900008F442C03ED8C0904A05D0904B05E09073
:101AA0004C05F0904D05DC01CB018C199D09AE0968
:101AB000BF09803A9F40A105B10508F046C043C068
:101AC00080914A0590914B05A0914C05B0914D0530
:101AD0008F3F9F4FAF4FBF4F59F41BD860934A05BC
:101AE00070934B0580934C0590934D0510925705CC
:101AF00010D8C0904A05D0904B05E0904C05F0906E
:101B00004D05DC01CB018C199D09AE09BF09883C4C
:101B10009105A105B10510F416D98EC00E94890562
:101B2000C0904A05D0904B05E0904C05F0904D05D3
:101B3000DC01CB018C199D09AE09BF0980399140A8
:101B4000A105B10510F4EFD877C00DD98FC08091F1
:101B50004A0590914B05A0914C05B0914D058F3FE2
:101B60009F4FAF4FBF4F79F48AEE93E050DA0E9457
:101B7000890560934A0570934B0580934C059093BB
:101B80004D05109257050E9489052CE9422E5524D7
:101B90005A94652C752CC0904A05D0904B05E09066
:101BA0004C05F0904D05530142018C189D08AE087C
:101BB000BF08860E971EA81EB91E809142059091FF
:101BC0004305A0914405B091450589839A83AB8371
:101BD000BC830E948905C0904A05D0904B05E090D7
:101BE0004C05F0904D054C185D086E087F08730198
:101BF0006201C60ED71EE81EF91E409046055090A1
:101C00004705609048057090490589819A81AB81AC
:101C1000BC8188169906AA06BB0638F4C1D8C4143C
:101C2000D504E604F70438F025C0C9D8C414D50497
:101C3000E604F70450F4A4D881E09091570591117F
:101C40001BC001C019C080E017C0B9D8109242056E
:101C500010924305109244051092450510924605D6
:101C600010924705109248051092490581E0809333
:101C70005705E2CFA4D8E0CF0F900F900F900F90B0
:101C8000DF91CF91FF90EF90DF90CF90BF90AF901A
:101C90009F908F907F906F905F904F9008950F93DB
:101CA0001F93CF9307E615E0C0E0CF5FF8014291A4
:101CB0008F016C2F8DE595E08FD8C830B1F7CF91AB
:101CC0001F910F9108951F920F920FB60F9211243A
:101CD0000BB60F922F933F934F935F936F937F9326
:101CE0008F939F93AF93BF93EF93FF9380910E04D5
:101CF00090910F04A0911004B0911104892B8A2BAC
:101D00008B2B59F190910B04E0910C04F0910D0490
:101D100080818927808380910E0490910F04A09187
:101D20001004B0911104181619061A061B060CF0BF
:101D300056C080910E0490910F04A0911004B091B0
:101D400011040197A109B10980930E0490930F0427
:101D5000A0931004B093110442C080910002EAE500
:101D6000F2E0E4919FEF90930002E230C9F050F46A
:101D7000EE2399F0E13081F590916F009D7F909373
:101D80006F002AC0E43019F1E0F0E53029F59091B8
:101D900073009D7F909373001FC010926E001CC053
:101DA000909170009D7F9093700091E09093B000AF
:101DB0009091B100987F94609093B1001092B3001D
:101DC0000BC0909171009D7F9093710005C0909120
:101DD00072009D7F9093720060E00E947403FF91F7
:101DE000EF91BF91AF919F918F917F916F915F9193
:101DF0004F913F912F910F900BBE0F900FBE0F9000
:101E00001F901895789484B5826084BD84B58160F4
:101E100084BD85B5826085BD85B5816085BD8091B5
:101E20006E00816080936E0010928100809181002D
:101E30008260809381008091810081608093810025
:101E4000809180008160809380008091B1008460E7
:101E50008093B1008091B00081608093B000809148
:101E600091008260809391008091910081608093C5
:101E70009100809190008160809390008091A100FA
:101E800082608093A1008091A10081608093A10075
:101E90008091A00081608093A000809121018260E8
:101EA00080932101809121018160809321018091A3
:101EB000200181608093200180917A00846080936A
:101EC0007A0080917A00826080937A0080917A0013
:101ED000816080937A0080917A00806880937A0094
:101EE0001092C100E0912404F0912504C2E0C08367
:101EF000E0912004F09121041082E0912204F091FD
:101F000023048FEC808310922C04E0912804F0913C
:101F1000290486E08083E0912604F09127048081E3
:101F200080618083E0912604F0912704808188609D
:101F30008083E0912604F09127048081806880836B
:101F4000E0912604F091270480818F7D808384E1D5
:101F500092E034DC80916F05811135C081E022DA96
:101F6000C0936F0588E0EFE5F5E0DF011D928A95EB
:101F7000E9F768DA0E94F0024B015C0154E6C52ED5
:101F8000D12CE12CF12C0E94F002DC01CB0188194C
:101F90009909AA09BB09883E9340A105B10598F3A8
:101FA000B1E0CB1AD108E108F108E8EE8E0EE3E0CB
:101FB0009E1EA11CB11CC114D104E104F10419F747
:101FC00041DA81E001C080E090E00CD862E087E176
:101FD0000E94670462E088E10E946704D1E0442423
:101FE0004A94542C32019CE3292E22E4322E35EA05
:101FF000932E40EDC42E47E0D42EE12CF12C01E0CD
:1020000010E0C0910704C0930804809009048092F6
:102010000A0487E10E94C8025C0181E0A114B104B6
:1020200009F080E08093070488E10E94C80221E063
:10203000009709F020E020930904811004C088244F
:102040008394892B09F0812CC11103C0C1E0AB2816
:1020500009F0C0E08FE192E0B1DB80916F0590E084
:102060008730910508F08AC1FC018827EA56FF4FA6
:102070008F4FE4C38CE292E00E94070880917605BE
:10208000823009F07BC19091770580917405992386
:10209000A9F0883050F590917505983030F5E7E05B
:1020A000E91BF0E0EE5BFA4F980102C0220F331FEC
:1020B0008A95E2F7C901958D892B15C08830A8F45F
:1020C00090917505983088F4E7E0E91BF0E0EE5B4D
:1020D000FA4FD80102C0AA0FBB1F8A95E2F7CD01C3
:1020E0008095958D8923858FDADD0E948905209161
:1020F00078053091790540917A0550917B05DC0196
:10210000CB01821B930BA40BB50B853F9140A1051E
:10211000B10508F433C1809177058D278093770549
:102120000E948905609378057093790580937A05FC
:1021300090937B0523C186E392E00E9407088EE31B
:1021400092E03CDBB0905605F1E0BF1629F023E0A9
:10215000B21609F45CC072C086E392E00E940708E0
:1021600046DC209142053091430540914405509151
:102170004505A7E0B0E015D3A7019601F6D2B22E2F
:1021800037E03B15F0F0209146053091470540912E
:10219000480550914905A7E0B0E003D3A701960197
:1021A000E4D2283070F4E7E0E21BF0E0EE5BFA4F97
:1021B000C80101C0880FBA94EAF7958D892B858FE5
:1021C0006EDDCC2309F43AC083E0ECD820914205BF
:1021D000309143054091440550914505A7E0B0E09A
:1021E000E0D2A7019601C1D2209374052091460543
:1021F000309147054091480550914905A7E0B0E06E
:10220000D0D2A7019601B1D22093750517C080E501
:1022100092E00E940708EBDB882381F0B0926F0503
:1022200081E00BC08FE592E00E940708E0DB882088
:1022300029F086E080936F0584E0B4D86DDB9EC002
:1022400082E792E00E940708D2DB8823B9F310925C
:102250006F0583E080937605AFE5B5E0E8E01D9279
:10226000EA95E9F720925F0530926005909261054A
:1022700081E88093620599E99093630590926405E3
:10228000809365058EE78093660509DDD7CF83E8E7
:1022900092E00E940708ABDB882309F46FC010921C
:1022A0006F0582E08093760569C085E992E00E941F
:1022B00007089DDB882309F4C1CFF4E0F0936F0594
:1022C000409270055092710560927205709273058C
:1022D00080E0B3CF8DE992E00E94070880917005FD
:1022E00090917105A0917205B09173058F3F9F4F3A
:1022F000AF4FBF4F79F40E948905609370057093CA
:102300007105809372059093730510926D0580E0BE
:1023100090E055DA80916B0580936C0510926B0507
:102320008EEA92E04BDA80916C0590E00E94F20711
:1023300081EC92E043DA80916B0590E00E94F20715
:1023400080916C05811104C080916B05811120C0C2
:1023500080916C05882331F180916B05811122C039
:1023600080916D058823F1F010926D0580E090E07A
:1023700026DA82E017D835E030936F0584ED92E0DD
:102380001DDA8C2F90E00E94F2070E943A0239CEAB
:102390008CED92E00E940708D0936D058AE590E0ED
:1023A0000EDAD6CF0E948905209170053091710513
:1023B0004091720550917305DC01CB01821B930B98
:1023C000A40BB50B813D9740A105B105B8F28091F2
:1023D0006D058111D3CF82E00E94D209D0936F05A1
:1023E000CDCF0F931F93CF93109217041092160422
:1023F00088EE93E0A0E0B0E0809318049093190475
:10240000A0931A04B0931B0486E092E09093150405
:102410008093140485EC90E0909321048093200431
:1024200084EC90E0909323048093220480EC90E06D
:10243000909325048093240481EC90E090932704EA
:102440008093260482EC90E09093290480932804E2
:1024500086EC90E090932B0480932A0410922D0434
:1024600010922E0410922F041092300410929605B0
:10247000109295051092970505E310E010939905C9
:102480000093980588E995E00E941307C8E0EAE9FF
:10249000F5E0DF018C2F1D928A95E9F71092420535
:1024A000109243051092440510924505109246057E
:1024B00010924705109248051092490510924A055E
:1024C00010924B0510924C0510924D0510924E053E
:1024D00010924F051092500510925105109252051E
:1024E00010925305109254051092550510925605FE
:1024F0001092570586E38093580587E3809359052A
:1025000061E084E00E94670460E084E00E9474035C
:1025100061E085E00E94670460E085E00E9474034A
:1025200061E082E00E94670460E082E00E94740340
:1025300061E083E00E94670460E083E00E9474032E
:1025400061E086E00E94670460E086E00E94740318
:1025500061E087E00E94670460E087E00E94740306
:102560000E94890560934A0570934B0580934C0542
:1025700090934D0510925B0510925A0510925C05E0
:1025800010935E0500935D058DE595E00E941307AD
:10259000EFE5F5E0DF011D92CA95E9F7809141056D
:1025A0008033A0F491E0980F9093410580936705E4
:1025B00090E0FC01EE0FFF1F8E0F9F1FFC01EF54F8
:1025C000FB4F88EB9BE09283818303C08FEF809366
:1025D000670510926B0510926C0510926D0589E1EC
:1025E00080936A0560E00E946704209141052033D2
:1025F00098F481E0820F80934105822F90E0FC01E6
:10260000EE0FFF1F8E0F9F1FFC01EF54FB4F88EB57
:102610009BE09283818301C02FEF2093670561E0E7
:1026200088E00E94670480916705803308F050C0FD
:1026300061E088E00E946704E0916705AE2FB0E09A
:10264000CD01880F991FA80FB91FAF54BB4F8C91B4
:10265000807C88608C9310926805109269058E2F9B
:102660006CE0E0D0BCE08B9FB001112440E050E072
:102670009B01240F351FD901AA0FBB1F2A0F3B1F37
:10268000D901AF54BB4F9C9196FD16C04F5F5F4F71
:102690004C30510569F78130E1F51092800082E0FD
:1026A000809381001092850010928400B19A8091ED
:1026B0006F00826080936F008E2F90E0FC01EE0F20
:1026C000FF1FE80FF91FEF54FB4F80818064808368
:1026D00010926F051092700510927105109272059C
:1026E000109273051092740510927505109276057C
:1026F00010927705109278051092790510927A055C
:1027000010927B0561E086E1CF911F910F910C94AF
:102710006704823061F410929000809391001092CF
:1027200095001092940088BB80937100C5CF8330D0
:1027300069F41092A00082E08093A1001092A5009D
:102740001092A40089BB80937200B6CF8111B4CFE0
:102750001092200182E080932101109225011092B5
:1027600024018ABB80937300A7CF052E97FB16F434
:1027700000940FD057FD05D024D007FC02D046F4BA
:1027800008C050954095309521953F4F4F4F5F4F72
:10279000089590958095709561957F4F8F4F9F4FCD
:1027A000089531D0A59F900DB49F900DA49F800DEA
:1027B000911D11240895B7FFF4CFF3DF821B930B13
:1027C0000895A1E21A2EAA1BBB1BFD010DC0AA1F72
:1027D000BB1FEE1FFF1FA217B307E407F50720F08A
:1027E000A21BB30BE40BF50B661F771F881F991F05
:1027F0001A9469F760957095809590959B01AC014E
:10280000BD01CF010895A29FB001B39FC001A39F56
:10281000700D811D1124911DB29F700D811D112419
:10282000911D0895991B79E004C0991F961708F02F
:10283000961B881F7A95C9F780950895EE0FFF1FA4
:10284000881F8BBF0790F691E02D199481E090E0EE
:08285000F89400C0F894FFCFDA
:10285800FFFF00000000CD01610C6501190296011F
:10286800740188017472792073746172742000672E
:10287800616D652073746174653A200047414D4568
:102888005F4F56455200504C4159494E4700202051
:1028980020206372616E652073746174653A20004C
:1028A8004341544348494E47205052495A450050E5
:1028B8004C4159494E475F574954485F5052494324
:1028C80045004C4F5345525F52455452494556496D
:1028D8004E470057494E4E45525F5245545249455E
:1028E80056494E470044524F50494E4700574149B8
:1028F800545F464F525F5052495A453A20002020B3
:102908002020202020206861645072697A653A206E
:102918000020202020202020206861735072697ACE
:10292800653A200063617463683A20004F70656EF1
:10293800696E6720736C696465000D0A00457374DD
:1029480061646F206E6F2076616C69646F004E6FF2
:102958002073652070756564652064652063616D0A
:10296800626961722064652065737461646F206DAB
:1029780069656E74726173206573746120636F7228
:102988007269656E646F20756E2065737461646F1B
:10299800206175746F6D617469636F002121212056
:1029A8007374617465206E6F2076616C69646F0062
:1029B800202020204372616E6520646174613A00B2
:1029C800202020202020202073746174653A200084
:1029D800202020202020202078706F733A200020AB
:1029E8002020202020202079706F733A200020209A
:1029F800202020202020784C61737456656C3A2082
:102A0800002020202020202020794C6173745665F6
:102A18006C3A200020202020202020207843757246
:102A28007256656C3A200020202020202020207932
:102A38004375727256656C3A2000534520414354E1
:082A480055414C495A4F0000B2
:020000023000CC
:10E000000D9489F10D94B2F10D94B2F10D94B2F129
:10E010000D94B2F10D94B2F10D94B2F10D94B2F1F0
:10E020000D94B2F10D94B2F10D94B2F10D94B2F1E0
:10E030000D94B2F10D94B2F10D94B2F10D94B2F1D0
:10E040000D94B2F10D94B2F10D94B2F10D94B2F1C0
:10E050000D94B2F10D94B2F10D94B2F10D94B2F1B0
:10E060000D94B2F10D94B2F10D94B2F10D94B2F1A0
:10E070000D94B2F10D94B2F10D94B2F10D94B2F190
:10E080000D94B2F10D94B2F10D94B2F10D94B2F180
:10E090000D94B2F10D94B2F10D94B2F10D94B2F170
:10E0A0000D94B2F10D94B2F10D94B2F10D94B2F160
:10E0B0000D94B2F10D94B2F10D94B2F10D94B2F150
:10E0C0000D94B2F10D94B2F10D94B2F10D94B2F140
:10E0D0000D94B2F10D94B2F10D94B2F10D94B2F130
:10E0E0000D94B2F141546D656761323536300041AF
:10E0F000726475696E6F206578706C6F72657220DE
:10E1000073746B3530305632206279204D4C530099
:10E11000426F6F746C6F616465723E004875683F52
:10E1200000436F6D70696C6564206F6E203D200048
:10E130004350552054797065202020203D20005FF9
:10E140005F4156525F415243485F5F3D2000415658
:10E1500052204C696243205665723D20004743437C
:10E160002056657273696F6E203D20004350552024
:10E1700049442020202020203D20004C6F7720663D
:10E18000757365202020203D20004869676820665F
:10E190007573652020203D200045787420667573D6
:10E1A00065202020203D20004C6F636B2066757336
:10E1B000652020203D20004D617220203720323024
:10E1C000313300312E362E3800342E332E350056A2
:10E1D00023202020414444522020206F7020636F70
:10E1E00064652020202020696E73747275637469E1
:10E1F0006F6E2061646472202020496E74657272B3
:10E20000757074006E6F20766563746F7200726A49
:10E210006D702020006A6D70200057686174207056
:10E220006F72743A00506F7274206E6F7420737541
:10E2300070706F72746564004D7573742062652030
:10E2400061206C6574746572002000577269747483
:10E25000696E672045450052656164696E672045B7
:10E26000450045452065727220636E743D00504F35
:10E27000525400303D5A65726F2061646472003FF1
:10E280003D43505520737461747300403D454550C3
:10E29000524F4D207465737400423D426C696E6B41
:10E2A000204C454400453D44756D70204545505215
:10E2B0004F4D00463D44756D7020464C415348001B
:10E2C000483D48656C70004C3D4C69737420492F83
:10E2D0004F20506F72747300513D51756974005234
:10E2E0003D44756D702052414D00563D73686F7707
:10E2F00020696E7465727275707420566563746FF0
:10E30000727300593D506F727420626C696E6B00BD
:10E310002A0011241FBECFEFD1E2DEBFCDBF01E046
:10E320000CBF12E0A0E0B2E0EEE1FDEF03E00BBFB6
:10E3300002C007900D92A030B107D9F712E0A0E01B
:10E34000B2E001C01D92AE30B107E1F70F9460F367
:10E350000D948DFE01E20EBF0FEF0DBF11241FBE05
:10E360000D9460F30D9400F020E030E040ED57E0B4
:10E3700005C0FA013197F1F72F5F3F4F2817390792
:10E38000C0F308959C01260F311DC901A0E0B0E043
:10E390002F5F3F4FABBFFC018791882361F08093D3
:10E3A000C6008091C00086FFFCCF8091C0008064D1
:10E3B0008093C000EACF08958DE08093C6008091DD
:10E3C000C00086FFFCCF8091C00080648093C000B5
:10E3D0008AE08093C6008091C00086FFFCCF8091C8
:10E3E000C00080648093C00008950F94C2F10F9420
:10E3F000DCF10895FC019081992359F09093C600B7
:10E400008091C00086FFFCCF8091C0008064809323
:10E41000C0003196992379F70895282F982F929567
:10E420009F70892F805D8A3308F0895F8093C600D2
:10E430008091C00086FFFCCF8091C00080648093F3
:10E44000C000822F8F70982F905D9A3308F0995FEB
:10E450009093C6008091C00086FFFCCF8091C000E1
:10E4600080648093C00008959C01FB01853691056E
:10E470001CF46330710594F0C90164E670E00F94F8
:10E480002EFE605D7F4F6093C6008091C00086FFC6
:10E49000FCCF8091C00080648093C0002B30310598
:10E4A00014F43297B4F0C90164E670E00F942EFEC4
:10E4B0006AE070E00F942EFE605D7F4F6093C600AF
:10E4C0008091C00086FFFCCF8091C0008064809363
:10E4D000C000C9016AE070E00F942EFEC0968093E0
:10E4E000C6008091C00086FFFCCF8091C000806490
:10E4F0008093C00008951F93182F8EE692EE60E07F
:10E500000F94C2F11093C6008091C00086FFFCCF2B
:10E510008091C00080648093C0000F94DCF11F9153
:10E5200008952F923F924F925F926F927F928F92B7
:10E530009F92AF92BF92CF92DF92EF92FF920F9392
:10E540001F93DF93CF93CDB7DEB762970FB6F894E2
:10E55000DEBF0FBECDBF382E622ECA01DB015C01CB
:10E560006D01772420E2222E2E010894411C511CBB
:10E570008BC081E0A81680E0B80681E0C80680E084
:10E58000D80628F0C601AA27BB270F940DF2BB2797
:10E59000AD2D9C2D8B2D0F940DF28A2D0F940DF225
:10E5A0002092C6008091C00086FFFCCF8091C00001
:10E5B00080648093C0009DE29093C6008091C0006B
:10E5C00086FFFCCF8091C00080648093C0002092C1
:10E5D000C6008091C00086FFFCCF8091C00080649F
:10E5E0008093C00019828601750188249924A1E0D6
:10E5F0003A1651F03A1620F0B2E03B1661F409C029
:10E600000BBFF701779007C0C7010F9477FE782EF4
:10E6100002C0F7017080872D0F940DF22092C60082
:10E620008091C00086FFFCCF8091C0008064809301
:10E63000C000872D8052F401EF70F0708F3520F408
:10E64000E40DF51D708204C0E40DF51D8EE280839B
:10E650000894E11CF11C011D111D0894811C911CE2
:10E6600090E18916910409F0C2CF80E190E0A0E02A
:10E67000B0E0A80EB91ECA1EDB1E198AC2010F9493
:10E68000FAF10F94DCF16A94662009F072CF629679
:10E690000FB6F894DEBF0FBECDBFCF91DF911F91B3
:10E6A0000F91FF90EF90DF90CF90BF90AF909F9031
:10E6B0008F907F906F905F904F903F902F90089534
:10E6C0002F923F924F925F926F927F928F929F9282
:10E6D000AF92BF92CF92DF92EF92FF920F931F9370
:10E6E000DF93CF93CDB7DEB7CD53D1400FB6F894BB
:10E6F000DEBF0FBECDBF01E20EBF0FEF0DBF94B75F
:10E70000F894A89514BE80916000886180936000A1
:10E7100010926000789493FF05C0E0910002F091A0
:10E7200001021995279A2F9A8091C00082608093E8
:10E73000C00080E18093C40088E18093C1000000A4
:10E74000EE24FF24870144E0A42EB12CCC24DD2448
:10E7500024C0C5010197F1F70894E11CF11C011DCB
:10E76000111D21E2E2162EE4F20620E0020720E06D
:10E77000120718F031E0C32ED12CC801B70127ECE5
:10E780003BE140E050E00F9441FE611571058105C9
:10E79000910519F485B1805885B98091C00087FD35
:10E7A00003C0C114D104A9F2A6014F5F5F4FC25E3E
:10E7B000DE4F59834883CE51D140C25EDE4F8881FF
:10E7C0009981CE51D140019711F00D9410FEC05D9A
:10E7D000DE4F19821882C053D14060E0C15DDE4F28
:10E7E0001882CF52D14088249924C35DDE4F19820C
:10E7F0001882CD52D140C05EDE4F188219821A8233
:10E800001B82C052D140CE5CDE4F188219821A8220
:10E810001B82C253D140EE24FF2487010BBFF701B6
:10E8200007911691C45CDE4F19830883CC53D14005
:10E830000D940BFEC25EDE4F28813981CE51D1404E
:10E840002130310509F52091C600C25EDE4F1982E4
:10E850001882CE51D14022C02F5F3F4F4F4F5F4FA4
:10E86000213082E138078AE7480780E0580780F0C6
:10E87000C45CDE4FE881F981CC53D140EF5FFF4F9C
:10E8800019F0EE27FF27099420E030E040E050E047
:10E890008091C00087FFE0CF2091C600C35DDE4FAE
:10E8A00048815981CD52D1404F5F5F4FC35DDE4FEC
:10E8B00059834883CD52D140213209F063C64A3092
:10E8C000510508F05FC60894811C911C53E0851621
:10E8D000910409F059C600E010E018C081E280936D
:10E8E000C6008091C00086FFFCCF8091C00080648C
:10E8F0008093C0002F5F3F4F2931310579F70F9486
:10E90000DCF10F5F1F4F0530110519F020E030E0FA
:10E91000E5CF10920A0210920B0210920C02109294
:10E920000D02109206021092070210920802109235
:10E930000902109202021092030210920402109235
:10E9400005028FEE90EE60E00F94F5F180E191EE1C
:10E9500060E00F94C2F18091C00087FFFCCF9091DE
:10E96000C600903608F09F759032B8F09093C600BC
:10E970008091C00086FFFCCF8091C00080648093AE
:10E98000C000A0E2A093C6008091C00086FFFCCF2B
:10E990008091C00080648093C000983409F4D7C18E
:10E9A0009934B8F4923409F459C1933458F490333B
:10E9B00019F1903308F4E3C59F33A1F1903409F0C5
:10E9C000DEC5BDC0953409F470C1963409F0D7C5D1
:10E9D00098C1923509F42BC2933538F49C3409F46C
:10E9E000F5C1913509F0CBC518C2963509F445C279
:10E9F000993509F0C4C567C483E792EE62E00F94CD
:10EA0000F5F110920602109207021092080210927D
:10EA1000090210920A0210920B0210920C0210923C
:10EA20000D0213C18FE792EE62E00F94F5F18FEEC5
:10EA300090EE60E00F94F5F181E291EE60E00F94CA
:10EA4000C2F187EB91EE60E00F94F5F180E391EE77
:10EA500060E00F94C2F184EE90EE60E00F94F5F167
:10EA60008FE391EE60E00F94C2F186E090E061E008
:10EA700070E00F9434F20F94DCF18DE591EE60E0DC
:10EA80000F94C2F189EC91EE60E00F94F5F18EE401
:10EA900091EE60E00F94C2F183EC91EE60E00F9490
:10EAA000F5F18CE691EE60E00F94C2F18EE10F94E7
:10EAB0000DF288E90F940DF281E00F940DF20F949E
:10EAC000DCF18BE791EE60E00F94C2F119E0E0E039
:10EAD000F0E010935700E4918E2F0F940DF20F94F5
:10EAE000DCF18AE891EE60E00F94C2F1E3E0F0E03F
:10EAF00010935700E4918E2F0F940DF20F94DCF1D8
:10EB000089E991EE60E00F94C2F1E2E0F0E0109349
:10EB10005700E4918E2F0F940DF20F94DCF188EAE8
:10EB200091EE60E00F94C2F1E1E0F0E01093570045
:10EB30001491812F0F940DF20F94DCF107CF8BE825
:10EB400092EE62E00F94F5F18BE492EE60E00F94A8
:10EB5000F5F10F94DCF100E010E019C0C8016F2D51
:10EB60000F947FFEFF2031F489E492EE60E00F9471
:10EB7000C2F10BC0F092C6008091C00086FFFCCFAE
:10EB80008091C00080648093C0000F5F1F4FC80158
:10EB900081519F41A0E0B0E0ABBFFC01F790BAE229
:10EBA000FB1621F0E2E000301E07C1F60F94DCF105
:10EBB0000F94DCF187E592EE60E00F94F5F10F948D
:10EBC000DCF1CC24DD2400E010E01EC0C8010F946D
:10EBD00077FEF82E882331F489E492EE60E00F94FA
:10EBE000C2F10BC08093C6008091C00086FFFCCFAD
:10EBF0008091C00080648093C000FE1419F00894D6
:10EC0000C11CD11C0F5F1F4FC80181519F41A0E063
:10EC1000B0E0ABBFFC01E790FAE2EF1621F022E092
:10EC20000030120799F60F94DCF10F94DCF182E6C4
:10EC300092EE60E00F94C2F1C60161E070E00F94C3
:10EC400034F20F94DCF10F94DCF110920202109276
:10EC50000302109204021092050278CE89E992EE26
:10EC600062E00F94F5F1279A2F9A16C02F9880E052
:10EC700090E0E0EDF7E03197F1F7019684369105E9
:10EC8000C1F72F9A80E090E0E0EDF7E03197F1F7DF
:10EC9000019684369105C1F78091C00087FFE6CFC9
:10ECA0008091C00087FFFCCF64C485EA92EE62E0E9
:10ECB0000F94F5F140910202509103026091040219
:10ECC0007091050281E020E10F9491F2809102029F
:10ECD00090910302A0910402B091050280509F4FD1
:10ECE000AF4FBF4F8093020290930302A0930402A0
:10ECF000B093050280509041A040B04008F426CE69
:10ED0000A4CF83EB92EE62E00F94F5F140910602FE
:10ED100050910702609108027091090280E020E1A1
:10ED20000F9491F28091060290910702A09108023F
:10ED3000B091090280509F4FAF4FBF4F80930602A2
:10ED400090930702A0930802B0930902FFCD80ECD4
:10ED500092EE62E00F94F5F183E792EE60E00F949B
:10ED6000F5F18FE792EE60E00F94F5F18BE892EE0B
:10ED700060E00F94F5F189E992EE60E00F94F5F10F
:10ED800085EA92EE60E00F94F5F183EB92EE60E09D
:10ED90000F94F5F180EC92EE60E00F94F5F187ECC2
:10EDA00092EE60E00F94F5F188ED92EE60E00F9442
:10EDB000F5F18FED92EE60E00F94F5F18AEE92EEB0
:10EDC00060E00F94F5F183E093EEBDCD87EC92EE19
:10EDD00062E00F94F5F181E40F947BF282E40F94EA
:10EDE0007BF283E40F947BF284E40F947BF285E45E
:10EDF0000F947BF286E40F947BF287E40F947BF20E
:10EE000088E40F947BF28AE40F947BF28BE40F94F6
:10EE10007BF28CE40F947BF299CD88ED92EE62E068
:10EE20000F94F5F1772473948824992409C48FED05
:10EE300092EE62E00F94F5F140910A0250910B02BC
:10EE400060910C0270910D0282E020E10F9491F22A
:10EE500080910A0290910B02A0910C02B0910D02D8
:10EE600080509F4FAF4FBF4F80930A0290930B0289
:10EE7000A0930C02B0930D0269CD8AEE92EE62E08F
:10EE80000F94F5F184EE90EE60E00F94F5F18FECC5
:10EE900091EE60E00F94F5F1662477244301CC5D98
:10EEA000DE4F19821882C452D140D401C301B695F5
:10EEB000A79597958795CA5DDE4F88839983AA8326
:10EEC000BB83C652D140CC5DDE4FA881B981C4520C
:10EED000D1401196CC5DDE4FB983A883C452D14096
:10EEE000CD0162E070E00F9434F2B0E2B093C6005E
:10EEF0008091C00086FFFCCF8091C0008064809329
:10EF0000C000EDE2E093C6008091C00086FFFCCF18
:10EF10008091C00080648093C000F0E2F093C6004E
:10EF20008091C00086FFFCCF8091C00080648093F8
:10EF3000C000CA5DDE4FE880F9800A811B81C6529D
:10EF4000D140BB27A12F902F8F2D0F940DF2CA5DBA
:10EF5000DE4F8881C652D1400F940DF2B0E2FB2EF5
:10EF6000F092C6008091C00086FFFCCF8091C00067
:10EF700080648093C0000DE30093C6008091C000C0
:10EF800086FFFCCF8091C00080648093C00010E2B7
:10EF90001093C6008091C00086FFFCCF8091C00016
:10EFA00080648093C0008BBEF3012791C65DDE4F65
:10EFB0002883CA52D140A22EBB24CC24DD2408943D
:10EFC000611C711C811C911C8BBEF3018791282E42
:10EFD0003324442455240894611C711C811C911C09
:10EFE0008BBEF3013791C55DDE4F3883CB52D140E4
:10EFF0000894611C711C811C911C8BBEF30147910C
:10F00000C45DDE4F4883CC52D140ADEFEA2EAFEF66
:10F01000FA2EAFEF0A2FAFEF1A2F6E0C7F1C801E57
:10F02000911E142D032DF22CEE24EA0CFB1C0C1D5A
:10F030001D1D0F940DF220E22093C6008091C000A8
:10F0400086FFFCCF8091C00080648093C000C65DC5
:10F05000DE4F8881CA52D1400F940DF230E23093D6
:10F06000C6008091C00086FFFCCF8091C000806404
:10F070008093C000C45DDE4F8881CC52D1400F9494
:10F080000DF240E24093C6008091C00086FFFCCFA5
:10F090008091C00080648093C000C55DDE4F888190
:10F0A000CB52D1400F940DF250E25093C6008091A4
:10F0B000C00086FFFCCF8091C00080648093C000B8
:10F0C0008FEFE8168FEFF80680E0080780E018075A
:10F0D00031F484E092EE60E00F94C2F1DFC0D80119
:10F0E000C7018070907CA070B0708050904CA040A0
:10F0F000B040D1F52FEF3FE340E050E0E222F322B1
:10F1000004231523CA5DDE4FA880B980CA80DB8046
:10F11000C652D140AE0CBF1CC01ED11EAA0CBB1CD7
:10F12000CC1CDD1C8EE092EE60E00F94C2F1BB2798
:10F13000A12F902F8F2D0F940DF28E2D0F940DF285
:10F1400030E23093C6008091C00086FFFCCF8091F2
:10F15000C00080648093C0004EE34093C60080915D
:10F16000C00086FFFCCF87C08EE09EEFA0E0B0E03D
:10F17000E822F9220A231B239CE0E91694E9F90608
:10F1800090E0090790E0190709F088C0C45DDE4FE0
:10F19000A881CC52D140EA2EFF2400E010E0102FCD
:10F1A0000F2DFE2CEE24C55DDE4FB881CB52D14031
:10F1B000EB0EF11C011D111DD601C501817090706F
:10F1C000A070B070DC0199278827E80EF91E0A1F8D
:10F1D0001B1F20EF30E040E050E0A222B322C42207
:10F1E000D52241E1AA0CBB1CCC1CDD1C4A95D1F7F1
:10F1F000EA0CFB1C0C1D1D1D81E090E0A0E0B0E0BE
:10F20000282239224A225B2235E1220C331C441C7D
:10F21000551C3A95D1F7E20CF31C041D151D57013E
:10F220006801AA0CBB1CCC1CDD1C85E192EE60E0E1
:10F230000F94C2F1C801AA27BB270F940DF2BB2778
:10F24000A12F902F8F2D0F940DF28E2D0F940DF274
:10F2500090E29093C6008091C00086FFFCCF809121
:10F26000C00080648093C000AEE3A093C60080918C
:10F27000C00086FFFCCF8091C00080648093C000F6
:10F28000C601AA27BB270F940DF2BB27AD2D9C2DDD
:10F290008B2D0F940DF28A2D0F940DF20F94DCF14B
:10F2A000CC5DDE4FE881F981C452D140F99709F471
:10F2B0004DCBF4E0EF2EF12C012D112D6E0C7F1CA7
:10F2C000801E911EF2CD83E093EE62E00F94F5F183
:10F2D0008AE192EE60E00F94C2F18091C00087FF56
:10F2E000FCCF1091C6001F751093C6008091C0001E
:10F2F00086FFFCCF8091C00080648093C0000F9493
:10F30000DCF1812F81548A3108F036C1163409F4BA
:10F3100095C0173490F4133409F44EC0143430F40B
:10F320001134F1F0123409F01DC130C0143409F465
:10F3300059C0153409F016C16BC01A3409F4C4C0A1
:10F340001B3438F4173409F48FC0183409F00AC19B
:10F35000A1C01B3409F4D2C01C3409F003C1E8C0B9
:10F360008FEF81B90DC082B1809582B980E090E0C5
:10F37000E0EDF7E03197F1F70196883C9105C1F790
:10F380008091C00087FFEFCF12B8EFC08FEF84B934
:10F390000DC085B1809585B980E090E0E0EDF7E0A3
:10F3A0003197F1F70196883C9105C1F78091C00033
:10F3B00087FFEFCF15B8D9C08FEF87B90DC088B1DF
:10F3C000809588B980E090E0E0EDF7E03197F1F7C3
:10F3D0000196883C9105C1F78091C00087FFEFCF6F
:10F3E00018B8C3C08FEF8AB90DC08BB180958BB9A7
:10F3F00080E090E0E0EDF7E03197F1F70196883C8E
:10F400009105C1F78091C00087FFEFCF1BB8ADC059
:10F410008FEF8DB90DC08EB180958EB980E090E0F0
:10F42000E0EDF7E03197F1F70196883C9105C1F7DF
:10F430008091C00087FFEFCF1EB897C08FEF80BBD1
:10F440000DC081B3809581BB80E090E0E0EDF7E0F6
:10F450003197F1F70196883C9105C1F78091C00082
:10F4600087FFEFCF11BA81C08FEF83BB0DC084B38C
:10F47000809584BB80E090E0E0EDF7E03197F1F714
:10F480000196883C9105C1F78091C00087FFEFCFBE
:10F4900014BA6BC08FEF809301010FC080910201FD
:10F4A00080958093020180E090E0E0EDF7E03197F5
:10F4B000F1F70196883C9105C1F78091C00087FF64
:10F4C000EDCF1092020151C08FEF809304010FC065
:10F4D0008091050180958093050180E090E0E0ED4A
:10F4E000F7E03197F1F70196883C9105C1F78091DB
:10F4F000C00087FFEDCF1092050137C08FEF8093DA
:10F5000007010FC08091080180958093080180E079
:10F5100090E0E0EDF7E03197F1F70196883C910536
:10F52000C1F78091C00087FFEDCF109208011DC088
:10F530008FEF80930A010FC080910B01809580931B
:10F540000B0180E090E0E0EDF7E03197F1F70196F4
:10F55000883C9105C1F78091C00087FFEDCF1092E4
:10F560000B0103C085E292EEEEC98091C00087FFD7
:10F57000FCCF8091C600EAC988E392EEE4C98CE131
:10F5800091EEE1C988249924933011F1943028F444
:10F59000913089F09230B8F408C0953061F195301F
:10F5A000F0F0963009F048C043C02B3109F042C951
:10F5B00091E06BE13FC96227C15DDE4F2883CF52E6
:10F5C000D14092E037C9B22FA0E0622793E032C960
:10F5D000822F90E0A82BB92B622794E02BC92E3004
:10F5E00009F039C3622795E0C05DDE4F19821882A9
:10F5F000C053D1401FC9E1E0F0E0EC0FFD1FC05D3A
:10F60000DE4F08811981C053D140E00FF11F2083E4
:10F610000F5F1F4FC05DDE4F19830883C053D14079
:10F6200062270A171B0709F005C9D80196E002C92D
:10F63000261709F010C303C0973009F0FBC87724E0
:10F640009981933109F412C19431C8F4963009F4C8
:10F65000D8C0973050F4923009F406C1933009F4C1
:10F660006DC0913009F059C253C0913109F477C08F
:10F67000923108F0BBC0903109F04FC2F5C098310B
:10F6800009F487C0993150F4953109F4EFC09531F0
:10F6900008F4C6C1963109F040C2C2C19A3109F4DA
:10F6A0006CC09A3108F491C09B3109F45BC09D3164
:10F6B00009F033C29D81903359F48F81882311F46E
:10F6C0009EE11CC0813011F091E018C098E916C08D
:10F6D000892F807591F0903539F4E0E0F0E089E011
:10F6E0008093570094910AC0983539F4E3E0F0E034
:10F6F00089E080935700949101C090E01A821B82A8
:10F700008D818C831D829E831F8227E030E009C299
:10F710001A8288E08B8381E48C8386E58D8382E581
:10F720008E8389E48F8383E5888780E589878FE5E9
:10F730008A8782E38B872BE030E0F3C18A818139AD
:10F7400041F0823941F0803911F48FE005C080E04A
:10F7500003C082E001C08AE01A828B8344C0772410
:10F76000739482C08D81882311F48EE12CC0813086
:10F7700011F081E028C088E926C01A82E1E0F0E0BB
:10F7800089E08093570084918B831C8224E030E0D1
:10F79000C8C18B81803589F48C81883039F4E2E0EE
:10F7A000F0E089E08093570084910DC0E0E0F0E044
:10F7B00089E080935700849106C0E3E0F0E089E09F
:10F7C0008093570084911A82DFCF8D81836C99E0FA
:10F7D000E1E0F0E0082E90935700E89507B600FCB2
:10F7E000FDCF1A821B8223E030E09BC180EC8A832C
:10F7F000CE5CDE4F188219821A821B82C253D1401E
:10F800008EC18A8190E0A0E0B0E0582F44273327D2
:10F8100022278B8190E0A0E0B0E0DC0199278827C7
:10F82000282B392B4A2B5B2B8D8190E0A0E0B0E098
:10F83000282B392B4A2B5B2B8C8190E0A0E0B0E089
:10F84000BA2FA92F982F8827282B392B4A2B5B2BCF
:10F85000220F331F441F551FC05EDE4F288339839C
:10F860004A835B83C052D1401A8259C13A81C95C34
:10F87000DE4F3883C753D140CA5CDE4F1882C6536F
:10F88000D1408B81C82EDD24CA5CDE4F488159816E
:10F89000C653D140C42AD52A933109F082C0CE5C28
:10F8A000DE4F88819981AA81BB81C253D1408050AB
:10F8B000904CA340B04030F583E0CE5CDE4FE88052
:10F8C000F9800A811B81C253D140F70100935B008C
:10F8D00080935700E89507B600FCFDCFCE5CDE4F65
:10F8E000088119812A813B81C253D14000501F4FAA
:10F8F0002F4F3F4FCE5CDE4F088319832A833B8313
:10F90000C253D140C05EDE4F488159816A817B81FC
:10F91000C052D140DE011B9631E08C9111962C91A2
:10F9200011971296C75CDE4F2883C953D140C85C3B
:10F93000DE4F1882C853D14090E0C85CDE4FE881AA
:10F94000F981C853D1408E2B9F2B0C01FA01609393
:10F950005B0030935700E89511244E5F5F4F6F4F67
:10F960007F4F0EEFE02E0FEFF02ECE0CDF1CC114F8
:10F97000D10499F685E0C05EDE4F088119812A81A5
:10F980003B81C052D140F80120935B008093570027
:10F99000E89507B600FCFDCF81E180935700E8951C
:10F9A00035C0C05EDE4F88819981AA81BB81C0527B
:10F9B000D140B695A795979587957C018601ABE0D8
:10F9C000AA2EB12CAC0EBD1E0BC0D5016D915D01F0
:10F9D000C7010F947FFE0894E11CF11C01501040F8
:10F9E0000115110591F7A60160E070E0440F551F65
:10F9F000661F771FC05EDE4FE880F9800A811B8199
:10FA0000C052D1404E0D5F1D601F711F1A82C05E33
:10FA1000DE4F488359836A837B83C052D1407FC0C5
:10FA2000FA80C55CDE4FF882CB53D140C65CDE4F16
:10FA30001882CA53D1408B81C82EDD24C65CDE4FAC
:10FA400008811981CA53D140C02AD12A1A828981DA
:10FA5000BE016D5F7F4F843121F59601C05EDE4FA0
:10FA6000E880F9800A811B81C052D1400BBFF701A9
:10FA700087919691DB018C9311969C936E5F7F4FDB
:10FA8000D801C7010296A11DB11DC05EDE4F88835B
:10FA90009983AA83BB83C052D14022503040F1F6F3
:10FAA00036C0C05EDE4F288139814A815B81C052F9
:10FAB000D1400894C108D108760100E010E0089414
:10FAC000C11CD11C0894E11CF11C011D111DE20E8A
:10FAD000F31E041F151F21BDBB27A52F942F832FB5
:10FAE00082BD2F5F3F4F4F4F5F4FF89A80B5DB01CC
:10FAF0008D93BD012E153F054007510761F7C05E8C
:10FB0000DE4F288339834A835B83C052D1409601FC
:10FB10002D5F3F4FFB01108204C080EC8A8322E0FE
:10FB200030E08BE18093C6008091C00086FFFCCF5F
:10FB30008091C00080648093C000C15DDE4FF88179
:10FB4000CF52D140F093C6008091C00086FFFCCF19
:10FB50008091C00080648093C000432F3093C60022
:10FB60008091C00086FFFCCF8091C00080648093AC
:10FB7000C000922F2093C6008091C00086FFFCCF6A
:10FB80008091C00080648093C0008EE08093C600A6
:10FB90008091C00086FFFCCF8091C000806480937C
:10FBA000C00065E1C15DDE4FE880CF52D1406E25D7
:10FBB00069276427FE01319610C090819093C6009A
:10FBC0008091C00086FFFCCF31968091C000806498
:10FBD0008093C0006927215030402115310569F715
:10FBE0006093C6008091C00086FFFCCF8091C0006A
:10FBF00080648093C00085B1805885B9772081F4F6
:10FC0000C15DDE4F0881CF52D1400F5FC15DDE4F35
:10FC10000883CF52D14090E0A0E0B0E00D941AF4F8
:10FC200027982F9880E090E020ED37E0F901319798
:10FC3000F1F7019684369105C9F700008091C00064
:10FC40008D7F8093C00081E180935700E895EE2777
:10FC5000FF270994FFCF90E00D941AF497FB092E2B
:10FC600007260AD077FD04D02ED006D000201AF443
:10FC7000709561957F4F0895F6F7909581959F4F08
:10FC80000895A1E21A2EAA1BBB1BFD010DC0AA1FDD
:10FC9000BB1FEE1FFF1FA217B307E407F50720F0F5
:10FCA000A21BB30BE40BF50B661F771F881F991F70
:10FCB0001A9469F760957095809590959B01AC01B9
:10FCC000BD01CF010895AA1BBB1B51E107C0AA1FAC
:10FCD000BB1FA617B70710F0A61BB70B881F991FED
:10FCE0005A95A9F780959095BC01CD010895F99991
:10FCF000FECF92BD81BDF89A992780B50895262F31
:10FD0000F999FECF1FBA92BD81BD20BD0FB6F89400
:0EFD1000FA9AF99A0FBE01960895F894FFCF63
:040000033000E000E9
:00000001FF