:100000002EC100005DC100005BC1000059C10000AD
:1000100057C1000055C1000053C1000051C100008C
:100020004FC100004DC100004BC1000049C100009C
:1000300047C100000C94BF0F43C1000041C1000044
:100040003FC1000007C500003BC1000039C10000EE
:1000500037C1000035C1000033C100002AC40000D0
:100060002FC100000C94E8100C94BE1029C10000B0
:1000700027C1000025C1000023C1000021C10000EC
:10008000BCC400001DC100001BC1000019C100005C
:1000900017C1000015C1000013C1000011C100000C
:1000A0000FC100000DC100007BC4000009C10000A9
:1000B00007C1000005C1000003C1000044C40000E6
:1000C000FFC00000FDC00000FBC000000C948810C1
:1000D0000C945E10F5C00000F3C00000F1C00000F9
:1000E000EFC00000BD01C001AF01B301B901F701CC
:1000F000C401C801CE01D201D601DC01E001E40156
:10010000F701EA01EE01F20156035B0360036A03A3
:100110007403ED037E0386038E039803A203AC03EE
:10012000BB03C503ED03CF03D903E30329065B0734
:100130008D063407CA07A9078F0700002000230097
:10014000260029002C002F003200000100000301CE
:100150000601090100000A0B02090C0D0E08070335
:10016000040100000000000000000000000000008A
:10017000000000000000000000000000000000007F
:10018000121110000000000000000000000000003C
:100190000000000000000000000000002200250018
:1001A00028002B002E003100340002010000050160
:1001B00008010B010200002100240027002A002D65
:1001C000003000330001010000040107010A0101B1
:1001D0000210202008081020401020408002010258
:1001E0000108040201010204081020408080402020
:1001F000100804020180040201804020100804025B
:1002000001080402010102040810204080010204D8
:1002100008102040800505050507050808080802A4
:100220000202020A0A08080404040401010101018F
:100230000101010303030303030303040707070C7E
:100240000C0C0C0C0C0C0C02020202060606060634
:100250000606060B0B0B0B0B0B0B0B00D716112412
:100260001FBECFEFD1E2DEBFCDBF00E00CBF15E077
:10027000A0E0B2E0E4E1F8E300E00BBF02C00790C9
:100280000D92A032B107D9F727E0A0E2B5E001C096
:100290001D92AC36B207E1F711E0CFE2D1E000E009
:1002A00006C021970109802FFE010E94E219CE327B
:1002B000D10780E00807A9F70E949E130C94081C40
:1002C0009FCEFC01918D228D892F90E0805C9F4F05
:1002D000821B91098F739927089580E090E0892B04
:1002E00021F00E94D50E811121C080E090E0892B81
:1002F00041F080E090E0892B21F00E940000811104
:1003000018C080E090E0892B21F00E94CB0E811173
:1003100013C080E090E0892BA1F080E090E0892B71
:1003200081F00E94000081110AC008950E9400001F
:10033000DCCF0E940000E5CF0E940000EACF0C94C1
:100340000000089590E0FC013197E231F10508F0DA
:100350004EC08827EE58FF4F8F4F0C94E2198091C2
:1003600080008F7703C0809180008F7D8093800014
:10037000089580918000877FF9CF84B58F7702C080
:1003800084B58F7D84BD08958091B0008F7703C0C0
:100390008091B0008F7D8093B0000895809190008F
:1003A0008F7707C0809190008F7D03C0809190006F
:1003B000877F8093900008958091A0008F7707C079
:1003C0008091A0008F7D03C08091A000877F8093E3
:1003D000A0000895809120018F7707C080912001AF
:1003E0008F7D03C080912001877F80932001089535
:1003F0003FB7F8948091BA059091BB05A091BC05D8
:10040000B091BD0526B5A89B05C02F3F19F00196F8
:10041000A11DB11D3FBFBA2FA92F982F8827820F8A
:10042000911DA11DB11DBC01CD0142E0660F771FDA
:10043000881F991F4A95D1F70895FC01848DDF012B
:10044000A80FB11DA35ABF4F2C91848D90E0019647
:100450008F739927848FA689B7892C93A089B18936
:100460008C91837080648C93938D848D981306C0D7
:100470000288F389E02D80818F7D80830895CF935A
:10048000DF93282F30E0F901EC5AFE4F8491F901F7
:10049000E153FE4FD491F901EB5EFD4FC491CC23A3
:1004A00089F081114FDFEC2FF0E0EE0FFF1FE65CCB
:1004B000FE4FA591B491EC91ED2381E090E021F401
:1004C00080E002C080E090E0DF91CF9108951F931B
:1004D000CF93DF93282F30E0F901EC5AFE4F84913F
:1004E000F901E153FE4FD491F901EB5EFD4FC49148
:1004F000CC23B9F0162F811125DFEC2FF0E0EE0FA1
:10050000FF1FE656FE4FA591B4919FB7F8941111C5
:1005100004C08C91D095D82302C0EC91DE2BDC93E3
:100520009FBFDF91CF911F910895CF93DF93DB01A0
:10053000EA01FC01EF54FA4F208127FF04C0119615
:100540001C921E920DC040815CE0589F9001599F03
:10055000300D1124240F311D47FD3A9537FD2081C0
:1005600020812F5F20834CE0489F9001499F300DF0
:1005700011248081A901480F511D87FD5A9557FF0D
:100580001EC080818C30DCF44D915C918081B9017A
:10059000680F711D87FD7A95CB01DB01AA0FBB1F88
:1005A0008A0F9B1FDC01AF5DBA4F11968D919C9114
:1005B0001297840F951F99838883808111C08D9134
:1005C0009C911197049680349C4918F480E49CE92E
:1005D00003C08D919C910496998388838FEF8083CB
:1005E000DF91CF910895CF93DF9390E0FC01E15329
:1005F000FE4F2491FC01EB5EFD4F8491882361F155
:1006000090E0880F991FFC01EB54FE4FC591D491E7
:10061000FC01E656FE4FA591B491611109C09FB748
:10062000F8948881209582238883EC912E230BC037
:10063000623061F49FB7F8948881322F309583231C
:100640008883EC912E2B2C939FBF06C08FB7F89414
:10065000E8812E2B28838FBFDF91CF9108951F93C0
:10066000CF93DF93182FEB0161E0BDDF209711F4EA
:1006700060E004C0CF3FD10531F461E0812FDF910C
:10068000CF911F9124CFE12FF0E0EC5AFE4FE4917F
:100690008E2F90E0FC013197E231F10508F09DC00A
:1006A0008827EC57FF4F8F4F0C94E21984B5806870
:1006B00084BDC7BD97C084B5806284BDC8BD92C0EB
:1006C00080918000806880938000D0938900C093DF
:1006D000880088C080918000806280938000D093E1
:1006E0008B00C0938A007EC08091800088608093D8
:1006F0008000D0938D00C0938C0074C08091B000B6
:1007000080688093B000C093B3006CC08091B0004B
:1007100080628093B000C093B40064C08091900068
:10072000806880939000D0939900C09398005AC03D
:1007300080919000806280939000D0939B00C09342
:100740009A0050C080919000886080939000D09370
:100750009D00C0939C0046C08091A000806880935B
:10076000A0008091A0008F7B8093A000D093A9006F
:10077000C093A80037C08091A00080628093A00041
:10078000D093AB00C093AA002DC08091A0008860D8
:100790008093A000D093AD00C093AC0023C08091A3
:1007A0002001806880932001D0932901C093280103
:1007B00019C080912001806280932001D0932B0189
:1007C000C0932A010FC0809120018860809320018E
:1007D000D0932D01C0932C0105C0C038D1050CF079
:1007E0004CCF46CFDF91CF911F910895863308F00B
:1007F000865390917B00282F2870977F922B90939F
:100800007B008770806480937C0080917A00806494
:1008100080937A0080917A0086FDFCCF80917800E9
:100820002091790090E0922B08958F929F92AF9241
:10083000BF92CF92DF92EF92FF926B017C01D8DDE5
:100840004B015C01C114D104E104F104E9F0D0DDF5
:10085000DC01CB0188199909AA09BB09883E93409C
:10086000A105B10578F321E0C21AD108E108F10829
:1008700088EE880E83E0981EA11CB11CC114D1041F
:10088000E104F10421F7DECFFF90EF90DF90CF90ED
:10089000BF90AF909F908F9008952FB7F89460917C
:1008A000B6057091B7058091B8059091B9052FBF35
:1008B00008951F920F920FB60F9211242F933F931A
:1008C0008F939F93AF93BF938091B6059091B70597
:1008D000A091B805B091B9053091B50523E0230F7B
:1008E0002D3720F40196A11DB11D05C026E8230F68
:1008F0000296A11DB11D2093B5058093B605909376
:10090000B705A093B805B093B9058091BA05909149
:10091000BB05A091BC05B091BD050196A11DB11DFF
:100920008093BA059093BB05A093BC05B093BD0519
:10093000BF91AF919F918F913F912F910F900FBEDB
:100940000F901F9018951F920F920FB60F921124BF
:100950000BB60F922F933F934F935F936F937F93B9
:100960008F939F93AF93BF93EF93FF9348E251E030
:1009700064E271E080E090E0D8DDFF91EF91BF91FB
:10098000AF919F918F917F916F915F914F913F9127
:100990002F910F900BBE0F900FBE0F901F901895C8
:1009A0001F920F920FB60F9211240BB60F922F9336
:1009B0003F934F935F936F937F938F939F93AF93E7
:1009C000BF93EF93FF9348EA50E064EA70E083E05E
:1009D00090E0ABDDFF91EF91BF91AF919F918F912F
:1009E0007F916F915F914F913F912F910F900BBE2F
:1009F0000F900FBE0F901F9018951F920F920FB679
:100A00000F9211240BB60F922F933F934F935F9346
:100A10006F937F938F939F93AF93BF93EF93FF93C6
:100A200048E950E064E970E082E090E07EDDFF910B
:100A3000EF91BF91AF919F918F917F916F915F9156
:100A40004F913F912F910F900BBE0F900FBE0F90C3
:100A50001F9018951F920F920FB60F9211240BB68C
:100A60000F922F933F934F935F936F937F938F9347
:100A70009F93AF93BF93EF93FF9348E850E064E8F0
:100A800070E081E090E051DDFF91EF91BF91AF9177
:100A90009F918F917F916F915F914F913F912F9196
:100AA0000F900BBE0F900FBE0F901F901895809166
:100AB00020058F3F59F06091070270E087E0CFDD9D
:100AC00060E086E004DD8FEF80932005089580913B
:100AD0002005813059F060E087E0F9DC6091070281
:100AE00070E086E0BCDD81E0809320050895809170
:100AF0002005882341F060E087E0E9DC60E086E0E3
:100B0000E6DC1092200508958091EE058F3F59F0A4
:100B10006091070270E082E0A2DD60E083E0D7DC54
:100B20008FEF8093EE0508958091EE05882341F0C4
:100B300060E082E0CCDC60E083E0C9DC1092EE058E
:100B400008958091EF058F3F51F06FEF70E084E0E2
:100B500086DD60E085E0BBDC8FEF8093EF050895D4
:100B60008091EF05882341F060E084E0B0DC60E034
:100B700085E0ADDC1092EF0508950F931F93CF939E
:100B8000DF93EC018B01A0D56CE772E0CE010E94EF
:100B9000590EB801CE010E942A0E6AE172E0CE0120
:100BA0000E94590E6091E3057091E405CE010E9408
:100BB0002A0E6DE172E0CE010E94590E6091E105AE
:100BC0007091E205CE010E942A0E60E272E0CE0131
:100BD0000E94590E6091DF057091E005CE010E94E0
:100BE0002A0E63E272E0CE010E94590ECE01DF911F
:100BF000CF911F910F910895CF92DF92EF92FF92C4
:100C00000F931F93CF93DF938091E505811104C06B
:100C1000D091E605D11102C0D091C5058091E705BC
:100C2000811104C0C091E805C11102C0C091C50581
:100C300086E292E0FED280915A0790E087309105DB
:100C400008F045C2FC018827EA56FF4F8F4F0C94ED
:100C5000E21983E392E00E942D11809161078230B6
:100C600009F035C28091620790915F078823B9F03F
:100C7000983070F520916007283050F587E0E82F14
:100C8000E91BF0E0E25DF84F821B282F81E090E045
:100C900001C0880F2A95EAF7968D892B17C09830E6
:100CA000B8F420916007283098F487E0E82FE91B1A
:100CB000F0E0E25DF84F821B282F81E090E001C058
:100CC000880F2A95EAF78095968D8923868FEAD436
:100CD000E4DDC0906307D0906407E0906507F09072
:100CE0006607DC01CB018C199D09AE09BF09853F60
:100CF0009140A105B10508F4EAC19091620781E035
:100D0000892780936207C9DD609363077093640746
:100D10008093650790936607DAC18DE392E00E94A5
:100D20002D1185E492E085D280914207813021F037
:100D3000833009F474C0BBC08DE392E00E942D1192
:100D4000EFD220912E0730912F074091300750911C
:100D50003107A7E0B0E00E94421932EFC32E32E122
:100D6000D32EE12CF12CA70196010E942619D22F37
:100D7000283020F520913207309133074091340715
:100D800050913507A7E0B0E00E944219A7019601F3
:100D90000E942619283090F487E0E82FED1BF0E040
:100DA000E25DF84F821B282F81E090E001C0880FA0
:100DB0002A95EAF7968D892B868F74D4CC2309F473
:100DC00076C083E00E94091320912E0730912F07EF
:100DD0004091300750913107A7E0B0E00E944219DE
:100DE00022EFC22E22E1D22EE12CF12CA701960196
:100DF0000E94261920935F07209132073091330714
:100E00004091340750913507A7E0B0E00E944219A5
:100E1000A70196010E9426192093600748C087E524
:100E200092E00E942D117CD2882309F440C0809169
:100E3000460725DBEC0186E692E0FBD181E090E0FD
:100E4000CD2B11F080E090E0DCD18091460717DBDC
:100E5000892B29F483E080935A0781E026C081E042
:100E600080935A0782E021C08EE792E00E942D1104
:100E700057D28091460703DB892B89F084E0809369
:100E80005A078FEF9FEFDC0180935B0790935C071D
:100E9000A0935D07B0935E0780E00E940913DD23F5
:100EA00031F086E080935A0784E00E940913C6D18E
:100EB00082ED92E00EC181E992E00E942D1130D2C4
:100EC000882309F444C010925A0788E0ECE4F7E064
:100ED000DF011D928A95E9F784E280934E0790E145
:100EE00090934F079093500780935107DBD383E093
:100EF0008093610783EE92E00E942D1168EE72E00C
:100F000084EF95E00E941E111092E905DF91CF91C8
:100F10001F910F91FF90EF90DF90CF90089584EB99
:100F200092E00E942D11FCD1882389F084E0809307
:100F30005A078FEF9FEFDC0180935B0790935C076C
:100F4000A0935D07B0935E0780E00E94091376D1FD
:100F5000BEC082EA92E00E942D11E2D1882309F4FA
:100F6000B6C010925A0782E0809361078AED92E042
:100F70000E942D111092E9056EED72E084EF95E06C
:100F8000DF91CF911F910F91FF90EF90DF90CF9065
:100F90000C941E118CEB92E00E942D1180915B0746
:100FA00090915C07A0915D07B0915E078F3F9F4FC6
:100FB000AF4FBF4F49F471DC60935B0770935C07E0
:100FC00080935D0790935E07809156078093570743
:100FD00061E0809154077BDA83E290E00197F1F7BA
:100FE00060E08091540773DA8091550790E0FC012E
:100FF000E153FE4F6491FC01EB5EFD4FE491F0E0A4
:10100000EE0FFF1FE65CFE4F8591949100E117E221
:1010100020E030E0462F0E945913611571058105CB
:10102000910539F0DC01CB010196A11DB11DBF7006
:1010300003C080E090E0DC01BC01892B11F46FEF6C
:101040007FEF81E0643F91E0790708F080E08093D2
:10105000560780915707811104C0643F714008F41E
:1010600042C0809157078823F1F080915607811183
:101070001AC0809158078823B1F08EE093E00E9457
:101080002D111092580761E089E021DA66E970E0DD
:1010900080E090E0CADB60E089E019DA82E00E943B
:1010A000091385E03FC0F9DBC0905B07D0905C0777
:1010B000E0905D07F0905E07DC01CB018C199D0983
:1010C000AE09BF09813D9740A105B10518F58DEC2A
:1010D00092E0DF91CF911F910F91FF90EF90DF9001
:1010E000CF900C942D118DEE92E00E942D118BEF7C
:1010F00092E00E942D1181E08093580761E088E022
:10110000E6D966E970E080E090E08FDB60E088E09F
:10111000DED9A7CF809158078111D9CF82E00E94F4
:10112000091381E080935A07D2CF8F929F92AF929A
:10113000BF920F931F93CF93DF93CDB7DEB7A197E5
:101140000FB6F894DEBF0FBECDBF19A2423008F42F
:101150004AE08E010F5D1F4F842E912CA12CB12CE3
:10116000A50194010E944C19E62FB901CA01015052
:101170001109EA3014F4E05D01C0E95CD801EC9398
:10118000232B242B252B61F7B80181E996E00E94DF
:101190001E11A1960FB6F894DEBF0FBECDBFDF9132
:1011A000CF911F910F91BF90AF909F908F90089516
:1011B000CF92DF92EF92FF92CF93DF936B017C018E
:1011C0006DE281E996E0FBD5EC0166277727CB013C
:1011D0006C197D098E099F094AE0A7DF8C0F9D1FBE
:1011E000DF91CF91FF90EF90DF90CF900895BC01F9
:1011F000990F880B990B97FDDBCF4AE096CF0E94A1
:10120000EB1BCF93DF93BC01990F880B990B97FFD2
:1012100002C0CEDF02C04AE088DFEC0161E273E089
:1012200081E996E00E941E118C0F9D1FDF91CF91E6
:101230000895BC0181E996E00C941E11CF92DF92D3
:10124000EF92FF92CF93DF9384E293E00E942D11FF
:1012500084E393E0EEDFCEE2D7E06C8970E080E0DB
:1012600090E04AE062DF84E493E0E3DF28813981A3
:101270004A815B81A7E0B0E00E94421922EFC22EB2
:1012800022E1D22EE12CF12CA70196010E94261911
:10129000CA01B9017727882799274AE046DF83E505
:1012A00093E0C7DF2C813D814E815F81A7E0B0E0F4
:1012B0000E944219A70196010E942619CA01B9018C
:1012C0007727882799274AE030DF61E273E081E9D8
:1012D00096E0B4D782E693E0ACDF8889082E000C54
:1012E000990B85DF85E793E0A4DF8989082E000C40
:1012F000990B87DF88E893E09CDF8A89082E000C31
:10130000990B75DF8BE993E094DF8B89082E000C35
:10131000990BDF91CF91FF90EF90DF90CF9071CF3D
:101320004F925F926F927F928F929F92AF92BF92F5
:10133000CF92DF92EF92FF92CF93DF9300D000D055
:10134000CDB7DEB780914207823009F498C040F4EF
:10135000882309F46DC1813009F069C18FD768C154
:10136000833021F0843009F444C061C18091360794
:1013700090913707A0913807B09139078F3F9F4F61
:10138000AF4FBF4F59F489DA609336077093370730
:101390008093380790933907109243077EDAC09004
:1013A0003607D0903707E0903807F0903907DC0116
:1013B000CB018C199D09AE09BF098C3D9540A10553
:1013C000B10508F442C069DAC0903607D0903707FB
:1013D000E0903807F0903907DC01CB018C199D09AA
:1013E000AE09BF09883B9B40A105B10508F045C087
:1013F00042C08091360790913707A0913807B0918D
:1014000039078F3F9F4FAF4FBF4F59F446DA609374
:1014100036077093370780933807909339071092F7
:1014200043073BDAC0903607D0903707E090380783
:10143000F0903907DC01CB018C199D09AE09BF0979
:101440008C329140A105B10510F441DBEAC025DAE8
:10145000C0903607D0903707E0903807F0903907F2
:10146000DC01CB018C199D09AE09BF09883592407A
:10147000A105B10510F41BDBD4C039DBCFC08091CE
:10148000360790913707A0913807B09139078F3F01
:101490009F4FAF4FBF4F59F400DA609336077093F8
:1014A0003707809338079093390710924307F5D98F
:1014B000C0903607D0903707E0903807F090390792
:1014C0002B013C014C185D086E087F0880902E07A8
:1014D00090902F07A0903007B090310754E6850E0A
:1014E000911CA11CB11C81E08E83481459046A042C
:1014F0007B0408F01E82D1D9C0903607D090370700
:10150000E0903807F09039079B01AC012C193D0998
:101510004E095F0969017A01809132079091330782
:10152000A0913407B09135079C01AD012C593F4F74
:101530004F4F5F4F29833A834B835C8331E03D8378
:1015400089819A81AB81BC81C816D906EA06FB065F
:1015500008F01D828EEA93E06CDE60912E07709198
:101560002F0780913007909131074AE0DEDD61E27C
:1015700073E081E996E062D682EC93E05ADE6091F6
:1015800032077091330780913407909135074AE014
:10159000CCDD61E273E081E996E050D686ED93E020
:1015A00048DEAE818A2F90E02CDE8FEE93E041DEA4
:1015B000BD818B2F90E025DE481459046A047B041A
:1015C00010F4BFDA01C0CCDA29813A814B815C8109
:1015D000C216D306E406F50610F496DA01C0A4DAC2
:1015E000481459046A047B04E0F089819A81AB8134
:1015F000BC81C816D906EA06FB0698F010922E07A1
:1016000010922F0710923007109231071092320774
:1016100010923307109234071092350781E08093BF
:10162000430781E090914307911103C001C001C0BD
:1016300080E026960FB6F894DEBF0FBECDBFDF91D7
:10164000CF91FF90EF90DF90CF90BF90AF909F90A1
:101650008F907F906F905F904F9008951F93CF93DE
:10166000DF93C82F162F60E080914A070E9467021F
:10167000CEBD00000DB407FEFDCFCEB5D0E0DC2F0F
:10168000CC271EBD00000DB407FEFDCF8EB5C82BC4
:1016900061E080914A070E946702CE01DF91CF91FD
:1016A0001F9108950F931F93CF9304E517E0C0E0B7
:1016B000CF5FF80162918F018C2FD0DFC830C1F766
:1016C000CF911F910F910895FC0111821082138216
:1016D00012821582148240E050E063E273E005C498
:1016E0000F931F93DAD86093FC057093FD058093E8
:1016F000FE059093FF0584EF95E026D397FF1EC06B
:10170000CCD80091FC051091FD052091FE0530918B
:10171000FF05DC01CB01801B910BA20BB30B0091E9
:10172000F8051091F9052091FA053091FB05801715
:101730009107A207B307F8F28FEF9FEF1F910F9168
:101740000895CF9380910002863121F08F3F09F0F8
:10175000B9C104C0E4EBF1E0C491E6C086E1809336
:101760000002E4EBF1E0E491EF3F09F4ABC1E230B9
:1017700009F46FC040F5EE2309F44FC0E13009F0E1
:10178000D2C0109280001092810080918100886008
:101790008093810080918100816080938100EBE2E1
:1017A000F2E0E491F0E0EE0FFF1FE656FE4F859168
:1017B0009491E5EEF1E0E491E093C90561E086E102
:1017C0000E94F302BFC0E43009F48BC008F467C084
:1017D000E53009F0A8C010922001109221018091FB
:1017E0002101886080932101809121018160809393
:1017F0002101EBE2F2E0E491F0E0EE0FFF1FE6568C
:10180000FE4F85919491E5EEF1E0E491E093C605F9
:1018100061E086E10E94F302C7C014BC15BC84B528
:10182000826084BD85B5816085BDEBE2F2E0E49124
:10183000F0E0EE0FFF1FE656FE4F85919491E5EE26
:10184000F1E0E491E093CA0561E086E10E94F302D1
:1018500022C11092B0001092B1008091B00082605D
:101860008093B0008091B10081608093B100EBE281
:10187000F2E0E491F0E0EE0FFF1FE656FE4F859197
:1018800094919093C0058093BF05E5EEF1E0E4915B
:10189000E093BE0561E086E10E94F3029AC01092D7
:1018A0009000109291008091910088608093910047
:1018B00080919100816080939100EBE2F2E0E491ED
:1018C000F0E0EE0FFF1FE656FE4F85919491E5EE96
:1018D000F1E0E491E093C80561E086E10E94F30243
:1018E00051C01092A0001092A1008091A1008860C8
:1018F0008093A1008091A10081608093A100EBE220
:10190000F2E0E491F0E0EE0FFF1FE656FE4F859106
:101910009491E5EEF1E0E491E093C70561E086E1A2
:101920000E94F30238C0CE2FC7FDCCC061E086E133
:101930000E94F302CC2309F4AEC0C23009F449C0BE
:10194000C130F1F480918100887F836080938100B1
:1019500081E49FE0909389008093880080E290E08A
:10196000A0E0B0E08093D7059093D805A093D90567
:10197000B093DA0580916F00826080936F00A2C0FF
:10198000C33039F480919100887F83608093910007
:101990003AC0C43039F48091A100887F836080937D
:1019A000A10049C0C53039F480912101887F83604E
:1019B0008093210158C0C33031F12CF4C23009F0BA
:1019C00081C081E40CC0C430B1F1C53009F44BC012
:1019D00079C08091B10087608093B10083EF8093DC
:1019E000B30080E290E0A0E0B0E08093C105909366
:1019F000C205A093C305B093C405809170008260B6
:101A0000809370005FC081E49FE090939900809381
:101A1000980080E290E0A0E0B0E08093D30590933E
:101A2000D405A093D505B093D6058091710082604E
:101A30008093710047C081E49FE09093A900809358
:101A4000A80080E290E0A0E0B0E08093CF05909302
:101A5000D005A093D105B093D20580917200826029
:101A6000809372002FC081E49FE0909329018093BE
:101A7000280180E290E0A0E0B0E08093CB05909355
:101A8000CC05A093CD05B093CE0580917300826004
:101A90008093730017C085B5887F856085BD83EF0F
:101AA00087BD80E290E0A0E0B0E08093DB059093FA
:101AB000DC05A093DD05B093DE0580916E008260A9
:101AC00080936E00CF910895FC0124813581232BF2
:101AD00031F421E061157105A1F0FB0108C0FC01A2
:101AE000808191816115710531F421E0FC018081D3
:101AF000882339F005C00E94F81B21E0892B09F0EA
:101B000020E0822F0895CF93DF93EC0168E074E02A
:101B1000DBDF882349F08FEF9FEF9093F3058093ED
:101B2000F2058BE094E063C06EE174E0CE01CCDF9F
:101B3000882329F01092F3051092F2055BC061E250
:101B400074E0CE01C1DF882349F08FEF9FEF9093BF
:101B5000F1058093F00584E294E049C064E374E009
:101B6000CE01B2DF882329F01092F1051092F00522
:101B700041C067E374E0CE01A7DF882349F081E02C
:101B800090E09093F3058093F2058AE394E02FC0F0
:101B90006EE474E0CE0198DF8111CCCF61E574E092
:101BA000CE0192DF882349F081E090E09093F10527
:101BB0008093F00584E594E01AC063E674E0CE01FA
:101BC00083DF8111D1CF66E674E0CE017DDF88230B
:101BD00031F081E08093C50589E694E008C062E7B2
:101BE00074E0CE0171DF882329F085E794E0DF916E
:101BF000CF9133C3DF91CF910895EF92FF920F936E
:101C00001F93CF93DF936115710511F480E01BC022
:101C100041155105B9F07B01EC018C819D818A0150
:101C2000080F191FB801CE0139D1882379F3288113
:101C300039818C819D81B701820F931F0E94011C05
:101C40001D830C8381E0DF91CF911F910F91FF9055
:101C5000EF900895EF92FF920F931F93CF93DF932E
:101C6000CDB7DEB728970FB6F894DEBF0FBECDBF55
:101C70007C01CB014AE08E010F5F1F4FB8010E942B
:101C80007A18F80101900020E9F73197AF01401B65
:101C9000510BB801C701B1DF28960FB6F894DEBF2B
:101CA0000FBECDBFDF91CF911F910F91FF90EF90AD
:101CB00008956115710549F0FB0101900020E9F7D5
:101CC0003197AF01461B570B98CF80E00895CF9214
:101CD000DF92EF92FF920F931F93CF93DF936C01EC
:101CE0007A018B01C0E0D0E0CE15DF0581F0D8018C
:101CF0006D918D01D601ED91FC910190F081E02D67
:101D0000C6011995892B11F02196EECF7E01C701EE
:101D1000DF91CF911F910F91FF90EF90DF90CF90C7
:101D20000895089580E090E00895FC01538D448D5E
:101D3000252F30E0842F90E0821B930B541710F076
:101D4000CF96089501970895FC01918D828D981783
:101D500061F0828DDF01A80FB11D5D968C91928D8F
:101D60009F5F9F73928F90E008958FEF9FEF08958C
:101D7000FC01918D828D981731F0828DE80FF11D55
:101D8000858D90E008958FEF9FEF0895FC0180818D
:101D900091810C94821A84EF95E00E94610121E008
:101DA000892B09F420E0822F089581E996E00E94B2
:101DB000610121E0892B09F420E0822F0895EF9240
:101DC000FF920F931F93CF93DF93EC0181E0888FF5
:101DD0009B8D8C8D981305C0E889F989808185FDDC
:101DE00026C0F62E0B8D10E00F5F1F4F0F731127CB
:101DF000E02E8C8DE8120CC00FB607FCFACFE889F4
:101E0000F989808185FFF5CFCE010E941D02F1CFB7
:101E10008B8DFE01E80FF11DE35AFF4FF0829FB753
:101E2000F8940B8FEA89FB89808180620AC09FB792
:101E3000F894EE89FF896083E889F989808183704D
:101E4000806480839FBF81E090E0DF91CF911F91FC
:101E50000F91FF90EF900895CF93DF93EC01888D61
:101E60008823C9F0EA89FB89808185FD05C0A8899E
:101E7000B9898C9186FD0FC00FB607FCF5CF808124
:101E800085FFF2CFA889B9898C9185FFEDCFCE016E
:101E90000E941D02E7CFDF91CF9108950F931F930A
:101EA000CF93DF93EC0188819981009729F02A81F3
:101EB0003B812617370788F48B016F5F7F4F0E94A5
:101EC0000B1B009761F0998388831B830A832C8105
:101ED0003D81232B11F4FC01108281E001C080E0E0
:101EE000DF91CF911F910F910895EF92FF920F9381
:101EF0001F93CF93DF93EC017B018A01BA01CEDF00
:101F00002881398181110DC02115310519F0C901D0
:101F10000E94821A198218821D821C821B821A82D8
:101F200006C01D830C83B701C9010E94011CCE01AC
:101F3000DF91CF911F910F91FF90EF900895CF9374
:101F4000DF93EC01FB0186179707A9F0608171818F
:101F50006115710521F044815581C7DF0CC088816E
:101F60009981009711F00E94821A198218821D82AD
:101F70001C821B821A82CE01DF91CF9108951F929D
:101F80000F920FB60F9211240BB60F922F933F931F
:101F90004F935F936F937F938F939F93AF93BF9371
:101FA000EF93FF938091C1059091C205A091C30565
:101FB000B091C405892B8A2B8B2B59F19091BE05CA
:101FC000E091BF05F091C0058081892780838091D1
:101FD000C1059091C205A091C305B091C405181622
:101FE00019061A061B060CF056C08091C105909187
:101FF000C205A091C305B091C4050197A109B1091B
:102000008093C1059093C205A093C305B093C40506
:1020100042C080910002E4EBF1E0E4919FEF9093E5
:102020000002E230C9F050F4EE2399F0E13081F57E
:1020300090916F009D7F90936F002AC0E43019F15A
:10204000E0F0E53029F5909173009D7F9093730047
:102050001FC010926E001CC0909170009D7F9093E5
:10206000700091E09093B0009091B100987F9460DF
:102070009093B1001092B3000BC0909171009D7FBE
:102080009093710005C0909172009D7F90937200B3
:1020900060E00E946702FF91EF91BF91AF919F9125
:1020A0008F917F916F915F914F913F912F910F9001
:1020B0000BBE0F900FBE0F901F9018951F920F929E
:1020C0000FB60F9211240BB60F922F933F934F939D
:1020D0005F936F937F938F939F93AF93BF93EF9390
:1020E000FF9384EF95E00E941D02FF91EF91BF9155
:1020F000AF919F918F917F916F915F914F913F91A0
:102100002F910F900BBE0F900FBE0F901F90189540
:102110001F920F920FB60F9211240BB60F922F93AE
:102120008F939F93EF93FF93E0910406F091050640
:102130008081E0910A06F0910B0682FD12C0908129
:1021400080910D068F5F8F7320910E06821751F0DC
:10215000E0910D06F0E0EC50FA4F958F80930D065C
:1021600001C08081FF91EF919F918F912F910F90EE
:102170000BBE0F900FBE0F901F9018951F920F92DD
:102180000FB60F9211240BB60F922F933F934F93DC
:102190005F936F937F938F939F93AF93BF93EF93CF
:1021A000FF9381E996E00E941D02FF91EF91BF919C
:1021B000AF919F918F917F916F915F914F913F91DF
:1021C0002F910F900BBE0F900FBE0F901F90189580
:1021D0001F920F920FB60F9211240BB60F922F93EE
:1021E0008F939F93EF93FF93E091A106F091A20646
:1021F0008081E091A706F091A80682FD12C090812F
:102200008091AA068F5F8F732091AB06821751F0E1
:10221000E091AA06F0E0EF56F94F958F8093AA0659
:1022200001C08081FF91EF919F918F912F910F902D
:102230000BBE0F900FBE0F901F9018956115710582
:1022400049F0FB0101900020E9F73197AF01461BEF
:10225000570B3DCD80E090E00895CF93DF93BC0114
:1022600081E996E0EBDFEC0161E273E081E996E061
:10227000E5DF8C0F9D1FDF91CF910895CF92DF9204
:10228000EF92FF920F931F938091400780933E0738
:102290008091410780933F078091F2059091F3056B
:1022A000009749F4809144070E94F6038F3F9105FF
:1022B00009F024F48FEF8093400707C081309340EA
:1022C00014F081E0F8CF109240078091F0059091D2
:1022D000F105009771F4809145070E94F6038F3F46
:1022E000910509F014F48FEF04C08130934024F07D
:1022F00081E08093410702C0109241078091360728
:1023000090913707A0913807B09139078F3F9F4FC1
:10231000AF4FBF4F51F40E944D0460933607709346
:102320003707809338079093390780913E07181636
:10233000CCF50E944D04C0902E07D0902F07E0905E
:102340003007F090310700913A0710913B07209138
:102350003C0730913D07C01AD10AE20AF30ADC01BA
:10236000CB018C0D9D1DAE1DBF1D80932E0790933C
:102370002F07A0933007B0933107823F9241A10508
:10238000B10508F451C01092400782EF92E1A0E03D
:10239000B0E080932E0790932F07A0933007B0935F
:1023A000310742C0882309F43FC0C0902E07D09067
:1023B0002F07E0903007F09031070E944D04009104
:1023C0003A0710913B0720913C0730913D07AB0144
:1023D000BC01401B510B620B730B80912E07909137
:1023E0002F07A0913007B0913107841B950BA60BE6
:1023F000B70B80932E0790932F07A0933007B093CD
:102400003107C816D906EA06FB0620F0892B8A2B6D
:102410008B2B51F41092400710922E0710922F0729
:10242000109230071092310780913F071816CCF5B3
:102430000E944D04C0903207D0903307E0903407DB
:10244000F090350700913A0710913B0720913C0727
:1024500030913D07C01AD10AE20AF30ADC01CB0130
:102460008C0D9D1DAE1DBF1D8093320790933307C9
:10247000A0933407B0933507833F9241A105B1057E
:1024800008F44CC01092410782EF92E1A0E0B0E066
:102490008093320790933307A0933407B0933507A6
:1024A0003DC08823D9F1C0903207D0903307E09027
:1024B0003407F09035070E944D0400913A071091BF
:1024C0003B0720913C0730913D07AB01BC01401B0D
:1024D000510B620B730B8091320790913307A091DF
:1024E0003407B0913507841B950BA60BB70B80936F
:1024F000320790933307A0933407B0933507C8167B
:10250000D906EA06FB0650F41092410710923207F2
:1025100010923307109234071092350780914007CC
:1025200087FF0FC080912E0790912F07A091300751
:10253000B0913107892B8A2B8B2B19F10E94A105B1
:1025400022C08823F1F080912E0790912F07A0914F
:102550003007B0913107823F9241A105B10589F062
:102560008091EF05813079F060E084E00E9467029D
:102570006FEF70E085E00E942F0381E08093EF050C
:1025800002C00E94B0058091410787FF0FC0809173
:10259000320790913307A0913407B0913507892B0A
:1025A0008A2B8B2B19F10E94840522C08823F1F01D
:1025B0008091320790913307A0913407B09135078D
:1025C000823F9241A105B10589F08091EE058130ED
:1025D00079F060E082E00E9467026FEF70E083E0D4
:1025E0000E942F0381E08093EE0502C00E949405B3
:1025F0000E944D0460933A0770933B0780933C0719
:1026000090933D071F910F91FF90EF90DF90CF9037
:102610000895CF93853018F08CEA94E046C09091ED
:1026200042072EEF290F233038F420914307211160
:1026300003C08DEB94E039C08917C9F1813001F1F5
:10264000C82F913071F41092400710924107809189
:102650003E07811104C080913F07882311F00EDEF0
:102660000DDEC23081F028F4C1111DC01092420766
:102670001EC0C33041F0C430B1F4C093420707C05C
:102680008093420702C0C0934207109243078FEF26
:102690009FEFDC018093360790933707A0933807AC
:1026A000B093390704C08BE095E0CF91D6CDCF91A0
:1026B0000895CF92DF92EF92FF920F931F93E82F2E
:1026C000F92F05C0015011092109310961F19081EB
:1026D00096239417B9F305C0015011092109310956
:1026E00011F1908196239413F7CFC12CD12CE12CBA
:1026F000F12C0AC08FEFC81AD80AE80AF80A0C159C
:102700001D052E053F0579F080818623841791F3FE
:102710006C2D7D2D8E2D9F2D1F910F91FF90EF9091
:10272000DF90CF90089560E070E080E090E01F912E
:102730000F91FF90EF90DF90CF900895CF93DF93AC
:10274000CDB7DEB7C457D1090FB6F894DEBF0FBEC0
:10275000CDBF789484B5826084BD84B5816084BD2A
:1027600085B5826085BD85B5816085BD80916E002F
:10277000816080936E001092810080918100826060
:10278000809381008091810081608093810080919D
:1027900080008160809380008091B100846080938C
:1027A000B1008091B00081608093B0008091910071
:1027B000826080939100809191008160809391006C
:1027C000809190008160809390008091A100826050
:1027D0008093A1008091A10081608093A1008091ED
:1027E000A00081608093A00080912101826080938D
:1027F000210180912101816080932101809120013C
:1028000081608093200180917A00846080937A00B7
:1028100080917A00826080937A0080917A00816052
:1028200080937A0080917A00806880937A00109279
:10283000C100E091A106F091A20622E02083E09180
:102840009D06F0919E061082E0919F06F091A006F1
:102850008FEC80831092A906E091A506F091A60660
:1028600096E09083E091A306F091A40680818061B8
:102870008083E091A306F091A40680818860808324
:10288000E091A306F091A406808180688083E091A6
:10289000A306F091A40680818F7D8083E0910406D9
:1028A000F09105062083E0910006F0910106108268
:1028B000E0910206F091030683E3808310920C06F8
:1028C000E0910806F09109069083E0910606F091E8
:1028D0000706808180618083E0910606F0910706FB
:1028E000808188608083E0910606F09107068081F0
:1028F00080688083E0910606F091070680818F7DD5
:10290000808360E080E20E94F30260E081E20E9446
:10291000F30260E082E20E94F30262E087E10E943B
:10292000F30262E088E10E94F3028DE794E095DC17
:1029300061E088E00E94F30260E088E00E946702A4
:1029400061E089E00E94F30260E089E00E94670292
:102950008E010F5F1F4F7E0121E6E20EF11C809178
:10296000E905882321F0813009F4FCC01DC2809064
:10297000EA059090EB05A090EC05B090ED0520E005
:1029800030E040E85FE3C501B401E7D387FFAAC0A8
:1029900080E20E943F02892B89F520E030E040E888
:1029A0005FE3C501B401AAD46093EA057093EB0517
:1029B0008093EC059093ED058091E3059091E405FB
:1029C00001969093E4058093E30561E070E0C8010F
:1029D0000E94BD0569817A8184EF95E02FDCC801F2
:1029E000D5D961E070E0C8010E94BD0589819A8156
:1029F00034DCC801CBD982E894E035C082E20E9481
:102A00003F02892BC1F520E030E040E85EE3C501DC
:102A1000B40174D46093EA057093EB058093EC05E0
:102A20009093ED058091DF059091E00501969093DC
:102A3000E0058093DF0563E070E0C8010E94BD05FA
:102A400069817A8184EF95E0F9DBC8019FD963E061
:102A500070E0C8010E94BD0589819A81FEDBC80132
:102A600095D989E894E0F9DB68EC70E080E090E0CB
:102A70000E94150474C081E20E943F02892B09F074
:102A80006EC020E030E040E05FE3C501B40136D421
:102A90006093EA057093EB058093EC059093ED0548
:102AA0008091E1059091E20501969093E205809373
:102AB000E10562E070E0C8010E94BD0569817A818C
:102AC00084EF95E0BBDBC80161D962E070E0C8012A
:102AD0000E94BD0589819A81C0DBC80157D980E970
:102AE00094E0C1CF81E08093E9051092EA0510924D
:102AF000EB051092EC051092ED051092E405109292
:102B0000E3051092E2051092E1051092E0051092A3
:102B1000DF0587E994E0A1DB62EA74E084EF95E0E9
:102B20008DDB64E670E080E090E00E941504809107
:102B30005A07811114C081E06CDD82E080935A074E
:102B400088E0ECE4F7E0DF011D928A95E9F70E9446
:102B5000A10B8BE891E00197F1F70E94A10B0E9475
:102B6000FC0522C18091E8058093E7058091E60588
:102B70008093E50587E10E943F0221E0892B09F05F
:102B800020E02093E80588E10E943F0221E0892BA4
:102B900009F020E02093E60584EF95E00E946101B2
:102BA00018161906E4F6CE0183599F4F0E94640B54
:102BB0000E94700B97FD0AC089831A8241E050E0A1
:102BC000B801CE0183599F4F18D8F2CFE3968EAD4E
:102BD0009FADE397029789F41A8219821C821B82A7
:102BE0001E821D82BE0163597F4FC801A8D9C8014A
:102BF0000E94830DC801CAD8D1C0A9961FAE1EAECF
:102C0000A997AB961FAE1EAEAB97AD961FAE1EAE8C
:102C1000AD97BE0163597F4FCE0189599F4F8FD920
:102C2000C8010E94640BCE0107960E94640BCE017E
:102C30000D960E94640BCE0143960E94640BCE0158
:102C400049960E94640BCE014F960E94640BCE0100
:102C500085960E94640BCE018B960E94640BCE0178
:102C6000C1960E94640BCE01C7960E94640BCE01F0
:102C7000CD960E94640BCE018D5B9F4F0E94640B2A
:102C8000CE01875B9F4F0E94640BCE01815B9F4FFB
:102C90000E94640BCE018B5A9F4F0E94640BCE01A1
:102CA000855A9F4F0E94640BC7010E94640BC12C80
:102CB000D12C912CA12CB12C96E0892EAD968EAD05
:102CC0009FADAD97C816D906B0F5A9968EAD9FAD4C
:102CD000A997009729F0FC01EC0DFD1D808101C032
:102CE00080E0E4968FAFE497E5961FAEE59741E06C
:102CF00050E0BE016D587F4FC7010E94FD0DAA94A0
:102D0000AB2891F494013203C0011124B701800F64
:102D1000911F15D940E050E063E273E0C701E5D8A8
:102D20009394A12CB12C03C0AA24A394B12C8FEFAF
:102D3000C81AD80AC3CFC70129D8CE0189599F4FD5
:102D400025D86801EC14FD04F9F063E273E0C601D4
:102D50000E94640D811114C0D70111961C921E921D
:102D600013961C921E92129715961C921E921497FF
:102D7000B601C701E4D8C7010E94830DC70106D878
:102D8000B6E0CB0ED11CDECF6701E6E0CE1AD1084B
:102D9000C6010E94C60E0C151D05B9F7CE01835958
:102DA0009F4F0E94C60EDBCE0E946D01D8CDCF93FF
:102DB0001092F7051092F60548EE53E060E070E0DF
:102DC0004093F8055093F9056093FA057093FB055D
:102DD0008CE092E09093F5058093F40525ED30E0CA
:102DE000309301062093000624ED30E03093030673
:102DF0002093020620ED30E0309305062093040670
:102E000021ED30E0309307062093060622ED30E0F6
:102E1000309309062093080626ED30E030930B0628
:102E200020930A0610920D0610920E0610920F06BD
:102E300010921006109294061092930640939506F5
:102E40005093960660939706709398069093920617
:102E50008093910685EC90E090939E0680939D066A
:102E600084EC90E09093A00680939F0680EC90E025
:102E70009093A2068093A10681EC90E09093A40623
:102E80008093A30682EC90E09093A6068093A5061B
:102E900086EC90E09093A8068093A7061092AA066D
:102EA0001092AB061092AC061092AD0610922E074F
:102EB00010922F07109230071092310710923207AC
:102EC000109233071092340710923507109236078C
:102ED00010923707109238071092390710923A076C
:102EE00010923B0710923C0710923D0710923E074C
:102EF00010923F071092400710924107109242072C
:102F00001092430787E38093440786E38093450745
:102F10008BE18093460761E084E00E94F30260E069
:102F200084E00E94670261E085E00E94F30260E0B5
:102F300085E00E94670261E082E00E94F30260E0A7
:102F400082E00E94670261E083E00E94F30260E099
:102F500083E00E94670261E087E00E94F30260E084
:102F600087E00E94670261E086E00E94F30260E071
:102F700086E00E9467020E944D04609336077093BA
:102F80003707809338079093390760E080914607B0
:102F90000E94F302109248071092470710924907C7
:102FA00085E390E090934B0780934A0761E00E948D
:102FB000F30261E083E30E94F30261E084E30E9494
:102FC000F30261E080914A070E946702CFB7F8944C
:102FD00080916707811127C0EAE4F2E08491E4E080
:102FE000F2E09491E82FF0E0EE0FFF1FEB54FE4F5C
:102FF000A591B491EC91E92321F461E085E30E946D
:10300000670261E085E30E94F3028CB580618CBDAC
:103010008CB580648CBD61E084E30E94F30261E0C2
:1030200083E30E94F302809167078F5F80936707B5
:10303000CFBF80E58CBD81E08DBD60E08CE00E945B
:103040002E0B67E08AE00E942E0B67E08BE00E9467
:103050002E0B60E089E00E942E0B60E08FE00E9462
:103060002E0B61E08CE00E942E0BC1E060E08C2F03
:103070000E942E0BCF5FC930C9F7C8E0ECE4F7E03F
:10308000DF018C2F1D928A95E9F78AE1809354071E
:1030900089E18093550761E08AE10E94F30260E0D4
:1030A00089E10E94F302109256071092570710927E
:1030B0005807C093590710925A0710925B07109255
:1030C0005C0710925D0710925E0710925F071092E6
:1030D00060071092610710926207109263071092C6
:1030E0006407109265071092660761E086E1CF9150
:1030F0000C94F302BB274A3031F4992322F4BDE249
:10310000909581959F4F01C0BB27FB015527AA27AA
:10311000880F991FAA1FA41710F0A41B8395505164
:10312000B9F7A05DAA3308F0A95DA193009779F7DC
:10313000B111B1931192CB0100C0DC01FC01672FEA
:1031400071917723E1F7329704C07C916D9370837E
:103150006291AE17BF07C8F3089503D008F481E069
:103160000895990F0008550FAA0BE0E8FEEF161618
:103170001706E807F907C0F012161306E407F5076B
:1031800098F0621B730B840B950B39F40A2661F0DF
:10319000232B242B252B21F408950A2609F4A14082
:1031A000A6958FEF811D811D089597F99F6780E88F
:1031B00070E060E008959FEF80EC089500240A9489
:1031C0001616170618060906089500240A94121602
:1031D0001306140605060895092E0394000C11F435
:1031E000882352F0BB0F40F4BF2B11F460FF04C0E2
:1031F0006F5F7F4F8F4F9F4F089557FD9058440F3B
:10320000551F59F05F3F71F04795880F97FB991F45
:1032100061F09F3F79F08795089512161306140602
:10322000551FF2CF4695F1DF08C01616170618068F
:10323000991FF1CF86957105610508940895E8946A
:10324000BB2766277727CB0197F90895052E97FBB3
:1032500016F400940FD057FD05D01ED007FC02D005
:1032600046F408C050954095309521953F4F4F4FFB
:103270005F4F089590958095709561957F4F8F4F22
:103280009F4F08952BD0A59F900DB49F900DA49FA4
:10329000800D911D11240895A1E21A2EAA1BBB1BBB
:1032A000FD010DC0AA1FBB1FEE1FFF1FA217B30712
:1032B000E407F50720F0A21BB30BE40BF50B661F28
:1032C000771F881F991F1A9469F7609570958095EC
:1032D00090959B01AC01BD01CF010895A29FB00163
:1032E000B39FC001A39F700D811D1124911DB29F3A
:1032F000700D811D1124911D08955058BB27AA27D8
:103300000ED06ACF5BDF30F060DF20F031F49F3FFA
:1033100011F41EF450CF0EF4E095E7FB46CFE92FF1
:103320006CDF80F3BA17620773078407950718F0FC
:1033300071F49EF584CF0EF4E0950B2EBA2FA02DDC
:103340000B01B90190010C01CA01A0011124FF2752
:10335000591B99F0593F50F4503E68F11A16F0404D
:10336000A22F232F342F4427585FF3CF469537954C
:103370002795A795F0405395C9F77EF41F16BA0B11
:10338000620B730B840BBAF09150A1F0FF0FBB1FBF
:10339000661F771F881FC2F70EC0BA0F621F731F08
:1033A000841F48F4879577956795B795F7959E3F65
:1033B00008F0B3CF9395880F08F09927EE0F9795F3
:1033C00087950895EE0FFF1F881F8BBF0790F6911A
:1033D000E02D19940F931F93CF93DF9382309105C3
:1033E00010F482E090E0E0916A07F0916B0720E032
:1033F00030E0A0E0B0E0309719F1408151810281C6
:10340000138148175907C8F08417950769F4109776
:1034100031F012960C93129713961C9327C00093C9
:103420006A0710936B0722C02115310519F0421766
:10343000530718F49A01BD01EF01DF01F801DBCF5A
:1034400021153105F9F0281B390B2430310580F4A2
:103450008A819B816115710521F0FB019383828331
:1034600004C090936B0780936A07FE01329644C0B4
:10347000FE01E20FF31F81939193225031093983AA
:1034800028833AC02091680730916907232B41F4C3
:10349000209103023091040230936907209368075A
:1034A00020910102309102022115310541F42DB71E
:1034B0003EB74091050250910602241B350BE09166
:1034C0006807F0916907E217F307A0F42E1B3F0B82
:1034D0002817390778F0AC014E5F5F4F2417350786
:1034E00048F04E0F5F1F5093690740936807819320
:1034F000919302C0E0E0F0E0CF01DF91CF911F9106
:103500000F910895CF93DF93009709F481C0FC01D8
:10351000329713821282A0916A07B0916B071097BD
:1035200081F420813181820F931F209168073091AF
:1035300069072817390751F5F0936907E093680781
:1035400067C0ED0120E030E0CE17DF0740F44A818C
:103550005B819E0141155105F1F0EA01F5CFD3835E
:10356000C28340815181840F951FC817D90759F430
:1035700088819981840F951F0296918380838A8127
:103580009B81938382832115310529F4F0936B0786
:10359000E0936A073DC0E901FB83EA8349915991B1
:1035A000C40FD51FEC17FD0761F480819181840F52
:1035B000951F0296E90199838883828193819B8379
:1035C0008A83E0E0F0E012968D919C91139700972A
:1035D00019F0FD01DC01F7CF8D919C9111979D01B0
:1035E0002E5F3F4F820F931F20916807309169072C
:1035F0002817390769F4309729F410926B07109255
:103600006A0702C013821282B0936907A093680709
:10361000DF91CF9108956F927F928F929F92AF9298
:10362000BF92CF92DF92EF92FF920F931F93CF93AF
:10363000DF93009781F4CB01DF91CF911F910F9120
:10364000FF90EF90DF90CF90BF90AF909F908F90C2
:103650007F906F90BFCEFC01E60FF71F9C012250B8
:103660003109E217F30708F4A5C0EC01D9010D9167
:103670001C91119706171707A8F00530110508F4DB
:1036800097C0C80104978617970708F491C00250A5
:103690001109061B170B019311936D937C93CF01B6
:1036A00031DF86C05B01A01AB10A4C01800E911E69
:1036B000A0916A07B0916B07612C712CE12CF12C61
:1036C000109709F446C08D919C911197A815B905E2
:1036D000B1F56C0142E0C40ED11CCA14DB0478F1D0
:1036E0004C018A189B08640142E0C40ED11C12965A
:1036F000BC9012971396AC91B5E0CB16D10440F074
:10370000B282A38391828082D9016D937C9309C098
:103710000E5F1F4F800F911FF90191838083EB2D66
:10372000FA2FE114F10431F0D7011396FC93EE93D4
:1037300012973EC0F0936B07E0936A0739C0681692
:10374000790608F43C017D0112960D90BC91A02DE4
:10375000B7CF809168079091690788169906E1F4C0
:1037600066167706C8F480910102909102020097D4
:1037700041F48DB79EB74091050250910602841B1B
:10378000950BE817F907B0F4F0936907E093680721
:10379000F901718360830CC0CB011CDE7C010097B2
:1037A00049F0A801BE011BD0CE01ACDEC70104C0A8
:1037B000CE0102C080E090E0DF91CF911F910F9188
:1037C000FF90EF90DF90CF90BF90AF909F908F9041
:1037D0007F906F90089581E090E0F89419C0FB010C
:1037E000DC0102C001900D9241505040D8F708957D
:1037F000FB01DC018D91019080190110D9F3990B27
:103800000895FB01DC0101900D920020E1F708957D
:04381000F894FFCF5A
:10381400FF00006C078000FF00000000DF0E670E51
:10382400950E2C0F6101A40EB80E2C31002C320021
:103834002C33002C230067616D65207374617465FB
:103844003A200047414D455F4F56455200504C4188
:1038540059494E4700202020206372616E65207311
:10386400746174653A20004341544348494E4720EB
:103874005052495A45002A2A2A2A2A2A2A2A2A2A16
:103884002A2A484153205052495A453A2000504C64
:103894004159494E475F574954485F50524943453F
:1038A400004C4F5345525F52455452494556494E78
:1038B400470057494E4E45525F524554524945566A
:1038C400494E470044524F50494E470057414954CE
:1038D4005F464F525F5052495A453A20006E6F6E10
:1038E4006500706C6179696E6700776F6E003030C7
:1038F4003023004C6F73740031313123004F7065F5
:103904006E696E6720736C6964650053452041429B
:1039140052494F204C412050554552544100534583
:1039240020434552524F204C41205055455254415A
:10393400000D0A00202020204372616E652064611E
:1039440074613A00202020202020202073746174A8
:10395400653A2000202020202020202078706F73DA
:103964003A2000202020202020202079706F733AF4
:1039740020002020202020202020784C61737456C1
:10398400656C3A20002020202020202020794C61E2
:10399400737456656C3A20002020202020202020BB
:1039A400784375727256656C3A20002020202020DE
:1039B400202020794375727256656C3A20002020CD
:1039C400202020202020202020207854696D653A72
:1039D4002000202020202020202020202020795476
:1039E400696D653A20002020202020202020736863
:1039F4006F756C6452657472697665583A2000205C
:103A04002020202020202073686F756C6452657418
:103A140072697665593A20006131004D6F76696E9E
:103A24006720746F20746865206C6566740061306B
:103A3400007331004D6F76696E67206261636B7746
:103A4400617264007330006431004D6F76696E6793
:103A540020746F207468652072696774680064302C
:103A6400007731004D6F76696E6720666F727761FB
:103A74007264007730006361004361746368696E47
:103A8400670064720044726F70696E6700484F4C3F
:103A94004100512E312E303000512E302E3235005F
:103AA400512E302E35300053746172742067616D6D
:103AB4006500373737373737373723004573746135
:103AC400646F206E6F2076616C69646F004E6F20A6
:103AD40073652070756564652064652063616D623B
:103AE4006961722064652065737461646F206D6917
:103AF400656E74726173206573746120636F727292
:103B040069656E646F20756E2065737461646F20DF
:103B14006175746F6D617469636F00212121207375
:103B240074617465206E6F2076616C69646F000047
:00000001FF
