:1000000008C1000036C1000034C1000032C1000048
:1000100030C100002EC100002CC100002AC1000028
:1000200028C1000026C1000024C1000022C1000038
:1000300020C10000DCC400001CC100001AC1000087
:1000400018C10000FFC6000014C1000012C100006A
:1000500010C100000EC100000CC1000022C600004B
:1000600008C10000E8C50000BDC5000002C10000D5
:1000700000C10000FEC00000FCC00000FAC000008B
:10008000B4C60000F6C00000F4C00000F2C00000DA
:10009000F0C00000EEC00000ECC00000EAC00000AC
:1000A000E8C00000E6C0000073C60000E2C0000027
:1000B000E0C00000DEC00000DCC000003CC6000064
:1000C000D8C00000D6C00000D4C0000055C5000054
:1000D0002AC50000CEC00000CCC00000CAC000008D
:1000E000C8C000002B032E031D0321032503650355
:1000F000320336033C03400344034A034E035203D6
:10010000650358035C0360030000210024002700FE
:100110002A002D0030003300010100000401070116
:100120000A0100002200250028002B002E003100CB
:10013000340002010000050108010B010505050559
:10014000070508080808020202020A0A080804044F
:10015000040401010101010101010303030303037D
:100160000303040707070C0C0C0C0C0C0C0C02020C
:10017000020206060606060606060B0B0B0B0B0B09
:100180000B0B010210202008081020401020408096
:10019000020102010804020101020408102040804B
:1001A00080402010080402018004020180402010D9
:1001B0000804020108040201010204081020408022
:1001C000010204081020408000000A0B02090C0DF7
:1001D0000E080703040100000000000000000000FA
:1001E000000000000000000000000000000000000F
:1001F00000000000121110000000000000000000CC
:1002000000000000000000000000000000000200EC
:100210004F0711241FBECFEFD1E2DEBFCDBF00E0FC
:100220000CBF12E0A0E0B2E0ECE4F4E100E00BBFB0
:1002300002C007900D92A234B107D9F724E0A2E4DE
:10024000B2E001C01D92A134B207E1F711E0C9E0AC
:10025000D1E000E006C021970109802FFE010E9435
:10026000180AC830D10780E00807A9F763D70C94B3
:10027000240AC6CECF92DF92EF92FF92DC01A03229
:1002800082E0B8070CF03EC0B7FD06C0A53BB10543
:100290002CF0A4EBB0E002C0A0E0B0E08091390403
:1002A00028E830E06901C81AD10887FDD394CC0C46
:1002B000DD1CCC0CDD1C0D2C000CEE08FF08809121
:1002C0003A0428E532E0281B310987FD3395220FD7
:1002D000331F220F331FA901330F660B770B9A01CF
:1002E000AB012C193D094E095F090E94D50924EB89
:1002F00030E040E050E00E94AF09C20ED31EE41E81
:10030000F51ED60190913804903398F58091390408
:1003100048E850E0481B510987FD5395440F551F8D
:10032000440F551FA417B5078CF080913A0428E5B7
:1003300032E0281B310987FD3395220F331F220F2E
:10034000331FAD012A173B070CF4A9014250510994
:10035000440F551F2FB7F894892F90E0FC01EE0F42
:10036000FF1F8E0F9F1FFC01E955FC4F52834183F5
:100370002FBFFF90EF90DF90CF900895CF92DF9244
:10038000EF92FF920F931F93CF93DF936C017A014B
:100390008B01C0E0D0E0CE15DF0581F0D8016D9172
:1003A0008D01D601ED91FC910190F081E02DC60107
:1003B0001995892B11F02196EECF7E01C701DF91AF
:1003C000CF911F910F91FF90EF90DF90CF90089504
:1003D000089580E090E00895FC01538D448D252F11
:1003E00030E0842F90E0821B930B541710F0CF96CF
:1003F000089501970895FC01918D828D981761F001
:10040000828DDF01A80FB11D5D968C91928D9F5F4B
:100410009F73928F90E008958FEF9FEF0895FC01F6
:10042000918D828D981731F0828DE80FF11D858DA9
:1004300090E008958FEF9FEF0895FC01918D228D3C
:10044000892F90E0805C9F4F821B91098F739927C1
:1004500008958DE692E0F1DF21E0892B09F420E098
:10046000822F08958AE093E0E8DF21E0892B09F4E8
:1004700020E0822F0895FC01848DDF01A80FB11DBB
:10048000A35ABF4F2C91848D90E001968F739927CA
:10049000848FA689B7892C93A089B1898C918370A8
:1004A00080648C93938D848D981306C00288F389A1
:1004B000E02D80818F7D80830895EF92FF920F93CE
:1004C0001F93CF93DF93EC0181E0888F9B8D8C8D00
:1004D000981305C0E889F989808185FD25C0F62E2D
:1004E0000B8D10E00F5F1F4F0F731127E02E8C8DC7
:1004F000E8120BC00FB607FCFACFE889F9898081B2
:1005000085FFF5CFCE01B7DFF2CF8B8DFE01E80F6F
:10051000F11DE35AFF4FF0829FB7F8940B8FEA89E1
:10052000FB89808180620AC09FB7F894EE89FF89B9
:100530006083E889F98980818370806480839FBFAC
:1005400081E090E0DF91CF911F910F91FF90EF90AC
:100550000895CF93DF93EC01888D8823C1F0EA8959
:10056000FB89808185FD05C0A889B9898C9186FDAC
:100570000EC00FB607FCF5CF808185FFF2CFA889AA
:10058000B9898C9185FFEDCFCE0175DFE8CFDF9182
:10059000CF91089580E090E0892B19F063DF8111FD
:1005A00020C080E090E0892B41F080E090E0892B32
:1005B00021F00E940000811117C080E090E0892B9B
:1005C00019F047DF811113C080E090E0892BA1F082
:1005D00080E090E0892B81F00E94000081110AC028
:1005E00008950E940000DDCF0E940000E6CF0E9427
:1005F0000000EACF0C9400000895362F90E0FC0133
:10060000E853FE4F4491FC01EE57FE4F2491FC014C
:10061000E45CFE4F9491992309F46BC0442309F4E0
:1006200054C050E0FA013197E231F10508F04DC0B5
:100630008827EE58FF4F8F4FFBC6809180008F7741
:1006400007C0809180008F7D03C080918000877FEC
:10065000809380003AC084B58F7702C084B58F7DC7
:1006600084BD33C08091B0008F7703C08091B0000B
:100670008F7D8093B00029C0809190008F7707C054
:10068000809190008F7D03C080919000877F809340
:1006900090001BC08091A0008F7707C08091A000C0
:1006A0008F7D03C08091A000877F8093A0000DC044
:1006B000809120018F7707C0809120018F7D03C03A
:1006C00080912001877F80932001E92FF0E0EE0FD9
:1006D000FF1FEE5DFE4FA591B4919FB7F8943111C5
:1006E00004C08C912095282302C0EC912E2B2C93D2
:1006F0009FBF0895CF93DF9390E0FC01EE57FE4F2C
:100700002491FC01E45CFE4F8491882361F190E028
:10071000880F991FFC01E85FFE4FC591D491FC0141
:10072000EE5DFE4FA591B491611109C09FB7F89499
:100730008881209582238883EC912E230BC0623020
:1007400061F49FB7F8948881322F30958323888392
:10075000EC912E2B2C939FBF06C08FB7F894E881A5
:100760002E2B28838FBFDF91CF9108953FB7F89448
:100770008091640290916502A0916602B091670237
:1007800026B5A89B05C02F3F19F00196A11DB11DEC
:100790003FBFBA2FA92F982F8827820F911DA11D27
:1007A000B11DBC01CD0142E0660F771F881F991F64
:1007B0004A95D1F708958F929F92AF92BF92CF92B0
:1007C000DF92EF92FF92D2DF4B015C0188E8C82EE6
:1007D00083E1D82EE12CF12CC9DFDC01CB01881993
:1007E0009909AA09BB09883E9340A105B105A0F368
:1007F00021E0C21AD108E108F10888EE880E83E0F2
:10080000981EA11CB11CC114D104E104F10421F70C
:10081000FF90EF90DF90CF90BF90AF909F908F9020
:100820000895CF92DF92EF92FF920F931F93CF9391
:10083000DF936C018B017A01EC01C55ADD4F888191
:1008400087FF04C0FB011182108224C02CE02C9D84
:10085000C0012D9D900D11242881AC01420F511D26
:1008600027FD5A952091370430E04217530794F43E
:100870002881AC01420F511D27FD5A959A01FA01BA
:10088000EE0FFF1F2E0F3F1FF901E955FC4F20818E
:1008900026FD19C088818F5F88832CE02C9DC001C4
:1008A0002D9D900D11242881AC01420F511D27FD73
:1008B0005A952091370430E042175307B4F4288149
:1008C0002C303CF112C02881820F911D27FD9A9592
:1008D000FC01EE0FFF1F8E0F9F1FFC01E955FC4F1F
:1008E000808160E08F7389DED5CFF80180819181AE
:1008F000049680349C4918F480E49CE904C0F80113
:10090000808191810496F701918380838FEF8883A2
:1009100044C0F801408151812881BC01620F711DE2
:1009200027FD7A959B01FB01EE0FFF1F2E0F3F1F46
:10093000F901E955FC4F21813281240F351FF70160
:10094000318320832881AC01420F511D27FD5A9528
:100950009A01FA01EE0FFF1F2E0F3F1FF901E95513
:10096000FC4F208126FF19C02881820F911D27FD91
:100970009A95FC01EE0FFF1F8E0F9F1FFC01E9559A
:10098000FC4F808161E08F73DF91CF911F910F91B8
:10099000FF90EF90DF90CF9030CEDF91CF911F91FD
:1009A0000F91FF90EF90DF90CF900895CF93DF935A
:1009B000009771F0FC0101900020E9F73197AF0139
:1009C000481B590BBC018AE093E0D8DCEC0102C063
:1009D000C0E0D0E042E050E063E172E08AE093E002
:1009E000CDDC8C0F9D1FDF91CF91089529D51F92EB
:1009F0000F920FB60F9211240BB60F922F933F93C5
:100A00004F935F936F937F938F939F93AF93BF9316
:100A1000EF93FF938091690290916A02A0916B021B
:100A2000B0916C02892B8A2B8B2B49F19091680233
:100A30008091000089278093000080916902909145
:100A40006A02A0916B02B0916C02181619061A0680
:100A50001B060CF055C08091690290916A02A0912A
:100A60006B02B0916C020197A109B10980936902F0
:100A700090936A02A0936B02B0936C0241C0809184
:100A80000002EEE0F2E0E4919FEF90930002E2308A
:100A9000C9F050F4EE2399F0E13081F590916F00A8
:100AA0009D7F90936F002AC0E43019F1E0F0E530AB
:100AB00029F5909173009D7F909373001FC0109251
:100AC0006E001CC0909170009D7F9093700091E02B
:100AD0009093B0009091B100987F94609093B10092
:100AE0001092B3000BC0909171009D7F90937100A4
:100AF00005C0909172009D7F9093720060E07DDD53
:100B0000FF91EF91BF91AF919F918F917F916F91E5
:100B10005F914F913F912F910F900BBE0F900FBEA1
:100B20000F901F9018951F920F920FB60F921124DD
:100B30000BB60F922F933F934F935F936F937F93D7
:100B40008F939F93AF93BF93EF93FF938DE692E0C4
:100B500092DCFF91EF91BF91AF919F918F917F9127
:100B60006F915F914F913F912F910F900BBE0F901E
:100B70000FBE0F901F9018951F920F920FB60F92F5
:100B800011240BB60F922F938F939F93EF93FF93A4
:100B9000E0917D02F0917E028081E0918302F091EC
:100BA000840282FD12C09081809186028F5F8F73D4
:100BB00020918702821751F0E0918602F0E0E3591C
:100BC000FD4F958F8093860201C08081FF91EF9148
:100BD0009F918F912F910F900BBE0F900FBE0F9092
:100BE0001F9018951F920F920FB60F9211240BB6FB
:100BF0000F922F933F934F935F936F937F938F93B6
:100C00009F93AF93BF93EF93FF938AE093E033DC1E
:100C1000FF91EF91BF91AF919F918F917F916F91D4
:100C20005F914F913F912F910F900BBE0F900FBE90
:100C30000F901F9018951F920F920FB60F921124CC
:100C40000BB60F922F938F939F93EF93FF93E091A7
:100C50001A03F0911B038081E0912003F09121039E
:100C600082FD12C09081809123038F5F8F7320914A
:100C70002403821751F0E0912303F0E0E65FFC4F7C
:100C8000958F8093230301C08081FF91EF919F9105
:100C90008F912F910F900BBE0F900FBE0F901F9052
:100CA00018951F920F920FB60F9211242F933F9316
:100CB0008F939F93AF93BF93809160029091610255
:100CC000A0916202B091630230915F0223E0230F92
:100CD0002D3720F40196A11DB11D05C026E8230F74
:100CE0000296A11DB11D20935F0280936002909334
:100CF0006102A0936202B0936302809164029091BA
:100D00006502A0916602B09167020196A11DB11D16
:100D10008093640290936502A0936602B093670289
:100D2000BF91AF919F918F913F912F910F900FBEE7
:100D30000F901F9018951F920F920FB60F921124CB
:100D40000BB60F922F933F934F935F936F937F93C5
:100D50008F939F93AF93BF93EF93FF9348E251E03C
:100D600064E271E080E090E05CDDFF91EF91BF9183
:100D7000AF919F918F917F916F915F914F913F9133
:100D80002F910F900BBE0F900FBE0F901F901895D4
:100D90001F920F920FB60F9211240BB60F922F9342
:100DA0003F934F935F936F937F938F939F93AF93F3
:100DB000BF93EF93FF9348EA50E064EA70E083E06A
:100DC00090E02FDDFF91EF91BF91AF919F918F91B7
:100DD0007F916F915F914F913F912F910F900BBE3B
:100DE0000F900FBE0F901F9018951F920F920FB685
:100DF0000F9211240BB60F922F933F934F935F9353
:100E00006F937F938F939F93AF93BF93EF93FF93D2
:100E100048E950E064E970E082E090E002DDFF9193
:100E2000EF91BF91AF919F918F917F916F915F9162
:100E30004F913F912F910F900BBE0F900FBE0F90CF
:100E40001F9018951F920F920FB60F9211240BB698
:100E50000F922F933F934F935F936F937F938F9353
:100E60009F93AF93BF93EF93FF9348E850E064E8FC
:100E700070E081E090E0D5DCFF91EF91BF91AF9100
:100E80009F918F917F916F915F914F913F912F91A2
:100E90000F900BBE0F900FBE0F901F9018951092E1
:100EA000700210926F0248EE53E060E070E04093F1
:100EB000710250937202609373027093740285E022
:100EC00092E090936E0280936D0225ED30E03093B6
:100ED0007A022093790224ED30E030937C02209353
:100EE0007B0220ED30E030937E0220937D0221EDE5
:100EF00030E03093800220937F0222ED30E0309387
:100F000082022093810226ED30E030938402209308
:100F10008302109286021092870210928802109229
:100F2000890210920D0310920C0340930E0350930C
:100F30000F03609310037093110390930B0380933E
:100F40000A0385EC90E0909317038093160384ECDA
:100F500090E0909319038093180380EC90E09093B5
:100F60001B0380931A0381EC90E090931D03809300
:100F70001C0382EC90E090931F0380931E0386EC89
:100F800090E090932103809320031092230310920A
:100F90002403109225031092260380913704803396
:100FA000A0F491E0980F909337048093380490E078
:100FB000FC01EE0FFF1F8E0F9F1FFC01E955FC4F38
:100FC00088EB9BE09283818303C08FEF809338048A
:100FD0008AE180933B0489E180933C0461E08AE1EB
:100FE00089DB60E089E186DB10923D0410923E04CB
:100FF00010923F0480913704803398F491E0980F69
:1010000090933704282F30E0F901EE0FFF1F2E0FC9
:101010003F1FF901E955FC4F28EB3BE03283218368
:1010200001C08FEF8093380498E0909340048033A0
:1010300008F04FC061E088E05DDB80913804E82F64
:10104000F0E09F01220F331FE20FF31FE955FC4F21
:101050009081907C986090831092390410923A04A9
:101060006CE0DAD19CE0899FB001112440E050E0AF
:101070009B01240F351FF901EE0FFF1F2E0F3F1F9D
:10108000F901E955FC4F908196FD16C04F5F5F4F07
:101090004C30510569F7813009F51092800082E0EB
:1010A000809381001092850010928400B19A809103
:1010B0006F00826080936F00E0913804F0E0CF0110
:1010C000880F991FE80FF91FE955FC4F8081806454
:1010D000808310923F0484E690E0CCC8823061F4B3
:1010E00010929000809391001092950010929400BD
:1010F00088BB80937100E0CF833069F41092A00028
:1011000082E08093A1001092A5001092A40089BBF8
:1011100080937200D1CF8111CFCF1092200182E055
:101120008093210110922501109224018ABB8093A3
:101130007300C2CF789484B5826084BD84B5816029
:1011400084BD85B5826085BD85B5816085BD809192
:101150006E00816080936E0010928100809181000A
:101160008260809381008091810081608093810002
:10117000809180008160809380008091B1008460C4
:101180008093B1008091B00081608093B000809125
:1011900091008260809391008091910081608093A2
:1011A0009100809190008160809390008091A100D7
:1011B00082608093A1008091A10081608093A10052
:1011C0008091A00081608093A000809121018260C5
:1011D0008093210180912101816080932101809180
:1011E000200181608093200180917A008460809347
:1011F0007A0080917A00826080937A0080917A00F0
:10120000816080937A0080917A00806880937A0070
:101210001092C100E0911A03F0911B0322E0208399
:10122000E0911603F09117031082E0911803F091FA
:1012300019038FEC808310922203E0911E03F0913A
:101240001F0396E09083E0911C03F0911D038081C1
:1012500080618083E0911C03F0911D038081886090
:101260008083E0911C03F0911D038081806880835E
:10127000E0911C03F0911D0380818F7D8083E091BC
:101280007D02F0917E022083E0917902F0917A0252
:101290001082E0917B02F0917C0283E380831092C4
:1012A0008502E0918102F09182029083E0917F02B9
:1012B000F0918002808180618083E0917F02F091D3
:1012C0008002808188608083E0917F02F0918002BB
:1012D000808180688083E0917F02F091800280812C
:1012E0008F7D808360E080E205DA60E081E202DAEF
:1012F00060E082E2FFD962E087E1FCD962E088E148
:10130000F9D986E192E052DB8BE192E04FDBC1E05C
:10131000C0933F0480E090E00E943A014CDA8EE2F4
:1013200092E044DB10923F0484E690E00E943A0190
:1013300042DA8BE192E03ADBC0933F0480E090E038
:101340000E943A0138DA8EE292E030DB10923F04DC
:1013500084E690E00E943A012EDA1CD9FECF052ED9
:1013600097FB16F400940FD057FD05D024D007FC4E
:1013700002D046F408C050954095309521953F4FD6
:101380004F4F5F4F089590958095709561957F4F71
:101390008F4F9F4F089531D0A59F900DB49F900D12
:1013A000A49F800D911D11240895B7FFF4CFF3DFA2
:1013B000821B930B0895A1E21A2EAA1BBB1BFD01F1
:1013C0000DC0AA1FBB1FEE1FFF1FA217B307E40724
:1013D000F50720F0A21BB30BE40BF50B661F771F7C
:1013E000881F991F1A9469F760957095809590955C
:1013F0009B01AC01BD01CF010895A29FB001B39F35
:10140000C001A39F700D811D1124911DB29F700D0D
:10141000811D1124911D0895991B79E004C0991F25
:10142000961708F0961B881F7A95C9F7809508953E
:10143000EE0FFF1F881F8BBF0790F691E02D1994C8
:0C14400081E090E0F89400C0F894FFCF29
:10144C00FF000000005D02BE01EC01A9021D02FBC1
:10145C00010F020D0A00484F4C41005345204142F8
:10146C0052494F204C412050554552544100534550
:10147C0020434552524F204C412050554552544127
:02148C0000005E
:00000001FF
